{
  "contractName": "PackFactory",
  "abi": [
    {
      "inputs": [],
      "stateMutability": "nonpayable",
      "type": "constructor"
    },
    {
      "anonymous": false,
      "inputs": [
        {
          "indexed": true,
          "internalType": "address",
          "name": "owner",
          "type": "address"
        },
        {
          "indexed": true,
          "internalType": "address",
          "name": "approved",
          "type": "address"
        },
        {
          "indexed": true,
          "internalType": "uint256",
          "name": "tokenId",
          "type": "uint256"
        }
      ],
      "name": "Approval",
      "type": "event"
    },
    {
      "anonymous": false,
      "inputs": [
        {
          "indexed": true,
          "internalType": "address",
          "name": "owner",
          "type": "address"
        },
        {
          "indexed": true,
          "internalType": "address",
          "name": "operator",
          "type": "address"
        },
        {
          "indexed": false,
          "internalType": "bool",
          "name": "approved",
          "type": "bool"
        }
      ],
      "name": "ApprovalForAll",
      "type": "event"
    },
    {
      "anonymous": false,
      "inputs": [
        {
          "indexed": false,
          "internalType": "uint256",
          "name": "packId",
          "type": "uint256"
        },
        {
          "indexed": false,
          "internalType": "address",
          "name": "receiver",
          "type": "address"
        }
      ],
      "name": "NewPack",
      "type": "event"
    },
    {
      "anonymous": false,
      "inputs": [
        {
          "indexed": true,
          "internalType": "address",
          "name": "previousOwner",
          "type": "address"
        },
        {
          "indexed": true,
          "internalType": "address",
          "name": "newOwner",
          "type": "address"
        }
      ],
      "name": "OwnershipTransferred",
      "type": "event"
    },
    {
      "anonymous": false,
      "inputs": [
        {
          "indexed": true,
          "internalType": "address",
          "name": "from",
          "type": "address"
        },
        {
          "indexed": true,
          "internalType": "address",
          "name": "to",
          "type": "address"
        },
        {
          "indexed": true,
          "internalType": "uint256",
          "name": "tokenId",
          "type": "uint256"
        }
      ],
      "name": "Transfer",
      "type": "event"
    },
    {
      "inputs": [],
      "name": "MAX_MINT_PER_TX",
      "outputs": [
        {
          "internalType": "uint256",
          "name": "",
          "type": "uint256"
        }
      ],
      "stateMutability": "view",
      "type": "function",
      "constant": true
    },
    {
      "inputs": [],
      "name": "MAX_TOKENS",
      "outputs": [
        {
          "internalType": "uint256",
          "name": "",
          "type": "uint256"
        }
      ],
      "stateMutability": "view",
      "type": "function",
      "constant": true
    },
    {
      "inputs": [
        {
          "internalType": "address",
          "name": "to",
          "type": "address"
        },
        {
          "internalType": "uint256",
          "name": "tokenId",
          "type": "uint256"
        }
      ],
      "name": "approve",
      "outputs": [],
      "stateMutability": "nonpayable",
      "type": "function"
    },
    {
      "inputs": [
        {
          "internalType": "address",
          "name": "owner",
          "type": "address"
        }
      ],
      "name": "balanceOf",
      "outputs": [
        {
          "internalType": "uint256",
          "name": "",
          "type": "uint256"
        }
      ],
      "stateMutability": "view",
      "type": "function",
      "constant": true
    },
    {
      "inputs": [],
      "name": "baseUri",
      "outputs": [
        {
          "internalType": "string",
          "name": "",
          "type": "string"
        }
      ],
      "stateMutability": "view",
      "type": "function",
      "constant": true
    },
    {
      "inputs": [
        {
          "internalType": "uint256",
          "name": "",
          "type": "uint256"
        }
      ],
      "name": "container",
      "outputs": [
        {
          "internalType": "uint256",
          "name": "pCode",
          "type": "uint256"
        },
        {
          "internalType": "address",
          "name": "sender",
          "type": "address"
        },
        {
          "internalType": "address",
          "name": "receiver",
          "type": "address"
        },
        {
          "internalType": "bool",
          "name": "delivered",
          "type": "bool"
        }
      ],
      "stateMutability": "view",
      "type": "function",
      "constant": true
    },
    {
      "inputs": [
        {
          "internalType": "address",
          "name": "",
          "type": "address"
        }
      ],
      "name": "coordinateFromReceiver",
      "outputs": [
        {
          "internalType": "uint256",
          "name": "lat",
          "type": "uint256"
        },
        {
          "internalType": "uint256",
          "name": "long",
          "type": "uint256"
        }
      ],
      "stateMutability": "view",
      "type": "function",
      "constant": true
    },
    {
      "inputs": [
        {
          "internalType": "uint256",
          "name": "tokenId",
          "type": "uint256"
        }
      ],
      "name": "getApproved",
      "outputs": [
        {
          "internalType": "address",
          "name": "",
          "type": "address"
        }
      ],
      "stateMutability": "view",
      "type": "function",
      "constant": true
    },
    {
      "inputs": [
        {
          "internalType": "address",
          "name": "owner",
          "type": "address"
        },
        {
          "internalType": "address",
          "name": "operator",
          "type": "address"
        }
      ],
      "name": "isApprovedForAll",
      "outputs": [
        {
          "internalType": "bool",
          "name": "",
          "type": "bool"
        }
      ],
      "stateMutability": "view",
      "type": "function",
      "constant": true
    },
    {
      "inputs": [
        {
          "internalType": "uint256",
          "name": "",
          "type": "uint256"
        }
      ],
      "name": "isDeliveredMap",
      "outputs": [
        {
          "internalType": "bool",
          "name": "",
          "type": "bool"
        }
      ],
      "stateMutability": "view",
      "type": "function",
      "constant": true
    },
    {
      "inputs": [],
      "name": "isSaleActive",
      "outputs": [
        {
          "internalType": "bool",
          "name": "",
          "type": "bool"
        }
      ],
      "stateMutability": "view",
      "type": "function",
      "constant": true
    },
    {
      "inputs": [
        {
          "internalType": "address",
          "name": "",
          "type": "address"
        }
      ],
      "name": "mintedPerWallet",
      "outputs": [
        {
          "internalType": "uint256",
          "name": "",
          "type": "uint256"
        }
      ],
      "stateMutability": "view",
      "type": "function",
      "constant": true
    },
    {
      "inputs": [],
      "name": "name",
      "outputs": [
        {
          "internalType": "string",
          "name": "",
          "type": "string"
        }
      ],
      "stateMutability": "view",
      "type": "function",
      "constant": true
    },
    {
      "inputs": [],
      "name": "owner",
      "outputs": [
        {
          "internalType": "address",
          "name": "",
          "type": "address"
        }
      ],
      "stateMutability": "view",
      "type": "function",
      "constant": true
    },
    {
      "inputs": [
        {
          "internalType": "uint256",
          "name": "tokenId",
          "type": "uint256"
        }
      ],
      "name": "ownerOf",
      "outputs": [
        {
          "internalType": "address",
          "name": "",
          "type": "address"
        }
      ],
      "stateMutability": "view",
      "type": "function",
      "constant": true
    },
    {
      "inputs": [
        {
          "internalType": "uint256",
          "name": "",
          "type": "uint256"
        }
      ],
      "name": "packToReceiver",
      "outputs": [
        {
          "internalType": "address",
          "name": "",
          "type": "address"
        }
      ],
      "stateMutability": "view",
      "type": "function",
      "constant": true
    },
    {
      "inputs": [
        {
          "internalType": "uint256",
          "name": "",
          "type": "uint256"
        }
      ],
      "name": "packToSender",
      "outputs": [
        {
          "internalType": "address",
          "name": "",
          "type": "address"
        }
      ],
      "stateMutability": "view",
      "type": "function",
      "constant": true
    },
    {
      "inputs": [],
      "name": "price",
      "outputs": [
        {
          "internalType": "uint256",
          "name": "",
          "type": "uint256"
        }
      ],
      "stateMutability": "view",
      "type": "function",
      "constant": true
    },
    {
      "inputs": [
        {
          "internalType": "address",
          "name": "",
          "type": "address"
        }
      ],
      "name": "receiverPackCount",
      "outputs": [
        {
          "internalType": "uint256",
          "name": "",
          "type": "uint256"
        }
      ],
      "stateMutability": "view",
      "type": "function",
      "constant": true
    },
    {
      "inputs": [],
      "name": "renounceOwnership",
      "outputs": [],
      "stateMutability": "nonpayable",
      "type": "function"
    },
    {
      "inputs": [
        {
          "internalType": "address",
          "name": "from",
          "type": "address"
        },
        {
          "internalType": "address",
          "name": "to",
          "type": "address"
        },
        {
          "internalType": "uint256",
          "name": "tokenId",
          "type": "uint256"
        }
      ],
      "name": "safeTransferFrom",
      "outputs": [],
      "stateMutability": "nonpayable",
      "type": "function"
    },
    {
      "inputs": [
        {
          "internalType": "address",
          "name": "from",
          "type": "address"
        },
        {
          "internalType": "address",
          "name": "to",
          "type": "address"
        },
        {
          "internalType": "uint256",
          "name": "tokenId",
          "type": "uint256"
        },
        {
          "internalType": "bytes",
          "name": "data",
          "type": "bytes"
        }
      ],
      "name": "safeTransferFrom",
      "outputs": [],
      "stateMutability": "nonpayable",
      "type": "function"
    },
    {
      "inputs": [
        {
          "internalType": "address",
          "name": "",
          "type": "address"
        }
      ],
      "name": "senderPackCount",
      "outputs": [
        {
          "internalType": "uint256",
          "name": "",
          "type": "uint256"
        }
      ],
      "stateMutability": "view",
      "type": "function",
      "constant": true
    },
    {
      "inputs": [
        {
          "internalType": "address",
          "name": "operator",
          "type": "address"
        },
        {
          "internalType": "bool",
          "name": "approved",
          "type": "bool"
        }
      ],
      "name": "setApprovalForAll",
      "outputs": [],
      "stateMutability": "nonpayable",
      "type": "function"
    },
    {
      "inputs": [
        {
          "internalType": "bytes4",
          "name": "interfaceId",
          "type": "bytes4"
        }
      ],
      "name": "supportsInterface",
      "outputs": [
        {
          "internalType": "bool",
          "name": "",
          "type": "bool"
        }
      ],
      "stateMutability": "view",
      "type": "function",
      "constant": true
    },
    {
      "inputs": [],
      "name": "symbol",
      "outputs": [
        {
          "internalType": "string",
          "name": "",
          "type": "string"
        }
      ],
      "stateMutability": "view",
      "type": "function",
      "constant": true
    },
    {
      "inputs": [
        {
          "internalType": "uint256",
          "name": "",
          "type": "uint256"
        }
      ],
      "name": "tokenIdPerWallet",
      "outputs": [
        {
          "internalType": "address",
          "name": "",
          "type": "address"
        }
      ],
      "stateMutability": "view",
      "type": "function",
      "constant": true
    },
    {
      "inputs": [],
      "name": "tokenIds",
      "outputs": [
        {
          "internalType": "uint256",
          "name": "",
          "type": "uint256"
        }
      ],
      "stateMutability": "view",
      "type": "function",
      "constant": true
    },
    {
      "inputs": [
        {
          "internalType": "uint256",
          "name": "tokenId",
          "type": "uint256"
        }
      ],
      "name": "tokenURI",
      "outputs": [
        {
          "internalType": "string",
          "name": "",
          "type": "string"
        }
      ],
      "stateMutability": "view",
      "type": "function",
      "constant": true
    },
    {
      "inputs": [],
      "name": "totalSupply",
      "outputs": [
        {
          "internalType": "uint256",
          "name": "",
          "type": "uint256"
        }
      ],
      "stateMutability": "view",
      "type": "function",
      "constant": true
    },
    {
      "inputs": [
        {
          "internalType": "address",
          "name": "from",
          "type": "address"
        },
        {
          "internalType": "address",
          "name": "to",
          "type": "address"
        },
        {
          "internalType": "uint256",
          "name": "tokenId",
          "type": "uint256"
        }
      ],
      "name": "transferFrom",
      "outputs": [],
      "stateMutability": "nonpayable",
      "type": "function"
    },
    {
      "inputs": [
        {
          "internalType": "address",
          "name": "newOwner",
          "type": "address"
        }
      ],
      "name": "transferOwnership",
      "outputs": [],
      "stateMutability": "nonpayable",
      "type": "function"
    },
    {
      "inputs": [
        {
          "internalType": "address",
          "name": "_receiver",
          "type": "address"
        },
        {
          "internalType": "uint256",
          "name": "_numTokens",
          "type": "uint256"
        },
        {
          "internalType": "uint256",
          "name": "_lat",
          "type": "uint256"
        },
        {
          "internalType": "uint256",
          "name": "_long",
          "type": "uint256"
        }
      ],
      "name": "createPack",
      "outputs": [],
      "stateMutability": "nonpayable",
      "type": "function"
    },
    {
      "inputs": [
        {
          "internalType": "uint256",
          "name": "_numTokens",
          "type": "uint256"
        },
        {
          "internalType": "address",
          "name": "_receiver",
          "type": "address"
        }
      ],
      "name": "mint",
      "outputs": [],
      "stateMutability": "payable",
      "type": "function",
      "payable": true
    },
    {
      "inputs": [],
      "name": "flipSaleState",
      "outputs": [],
      "stateMutability": "nonpayable",
      "type": "function"
    },
    {
      "inputs": [
        {
          "internalType": "string",
          "name": "_baseUri",
          "type": "string"
        }
      ],
      "name": "setBaseUri",
      "outputs": [],
      "stateMutability": "nonpayable",
      "type": "function"
    },
    {
      "inputs": [
        {
          "internalType": "uint256",
          "name": "_price",
          "type": "uint256"
        }
      ],
      "name": "setPrice",
      "outputs": [],
      "stateMutability": "nonpayable",
      "type": "function"
    },
    {
      "inputs": [
        {
          "internalType": "address",
          "name": "_address",
          "type": "address"
        }
      ],
      "name": "getMintedPerWallet",
      "outputs": [
        {
          "internalType": "uint256",
          "name": "",
          "type": "uint256"
        }
      ],
      "stateMutability": "view",
      "type": "function",
      "constant": true
    }
  ],
  "bytecode": "0x6080604052600060085560006011553480156200001b57600080fd5b506040518060400160405280600881526020017f4e4654205061636b0000000000000000000000000000000000000000000000008152506040518060400160405280600481526020017f4e46545000000000000000000000000000000000000000000000000000000000815250816000908162000099919062000447565b508060019081620000ab919062000447565b505050620000ce620000c2620000ff60201b60201c565b6200010760201b60201c565b6040518060600160405280602581526020016200472f6025913960159081620000f8919062000447565b506200052e565b600033905090565b6000600660009054906101000a900473ffffffffffffffffffffffffffffffffffffffff16905081600660006101000a81548173ffffffffffffffffffffffffffffffffffffffff021916908373ffffffffffffffffffffffffffffffffffffffff1602179055508173ffffffffffffffffffffffffffffffffffffffff168173ffffffffffffffffffffffffffffffffffffffff167f8be0079c531659141344cd1fd0a4f28419497f9722a3daafe3b4186f6b6457e060405160405180910390a35050565b600081519050919050565b7f4e487b7100000000000000000000000000000000000000000000000000000000600052604160045260246000fd5b7f4e487b7100000000000000000000000000000000000000000000000000000000600052602260045260246000fd5b600060028204905060018216806200024f57607f821691505b60208210810362000265576200026462000207565b5b50919050565b60008190508160005260206000209050919050565b60006020601f8301049050919050565b600082821b905092915050565b600060088302620002cf7fffffffffffffffffffffffffffffffffffffffffffffffffffffffffffffffff8262000290565b620002db868362000290565b95508019841693508086168417925050509392505050565b6000819050919050565b6000819050919050565b600062000328620003226200031c84620002f3565b620002fd565b620002f3565b9050919050565b6000819050919050565b620003448362000307565b6200035c62000353826200032f565b8484546200029d565b825550505050565b600090565b6200037362000364565b6200038081848462000339565b505050565b5b81811015620003a8576200039c60008262000369565b60018101905062000386565b5050565b601f821115620003f757620003c1816200026b565b620003cc8462000280565b81016020851015620003dc578190505b620003f4620003eb8562000280565b83018262000385565b50505b505050565b600082821c905092915050565b60006200041c60001984600802620003fc565b1980831691505092915050565b600062000437838362000409565b9150826002028217905092915050565b6200045282620001cd565b67ffffffffffffffff8111156200046e576200046d620001d8565b5b6200047a825462000236565b62000487828285620003ac565b600060209050601f831160018114620004bf5760008415620004aa578287015190505b620004b6858262000429565b86555062000526565b601f198416620004cf866200026b565b60005b82811015620004f957848901518255600182019150602085019450602081019050620004d2565b8683101562000519578489015162000515601f89168262000409565b8355505b6001600288020188555050505b505050505050565b6141f1806200053e6000396000f3fe6080604052600436106102255760003560e01c8063714cff5611610123578063a035b1fe116100ab578063c87b56dd1161006f578063c87b56dd1461085c578063dd68eb1f14610899578063e985e9c5146108d6578063f2fde38b14610913578063f47c84c51461093c57610225565b8063a035b1fe14610779578063a0bcfc7f146107a4578063a22cb465146107cd578063a2e94c00146107f6578063b88d4fde1461083357610225565b80638ecad721116100f25780638ecad721146106b357806391b7f5ed146106de57806394bf804d1461070757806395d89b41146107235780639abc83201461074e57610225565b8063714cff5614610609578063715018a6146106345780638bb953201461064b5780638da5cb5b1461068857610225565b80632d9d1c5d116101b157806342842e0e1161017557806342842e0e146104fd57806346a2967d14610526578063564566a8146105645780636352211e1461058f57806370a08231146105cc57610225565b80632d9d1c5d1461040357806334918dfd1461044357806337d0e31e1461045a57806338528c7e146104835780633a602b4d146104c057610225565b8063105b0da7116101f8578063105b0da7146102f8578063124337f61461033557806318160ddd1461037257806319fd1f721461039d57806323b872dd146103da57610225565b806301ffc9a71461022a57806306fdde0314610267578063081812fc14610292578063095ea7b3146102cf575b600080fd5b34801561023657600080fd5b50610251600480360381019061024c9190612bb7565b610967565b60405161025e9190612bff565b60405180910390f35b34801561027357600080fd5b5061027c610a49565b6040516102899190612caa565b60405180910390f35b34801561029e57600080fd5b506102b960048036038101906102b49190612d02565b610adb565b6040516102c69190612d70565b60405180910390f35b3480156102db57600080fd5b506102f660048036038101906102f19190612db7565b610b21565b005b34801561030457600080fd5b5061031f600480360381019061031a9190612d02565b610c38565b60405161032c9190612d70565b60405180910390f35b34801561034157600080fd5b5061035c60048036038101906103579190612df7565b610c6b565b6040516103699190612e33565b60405180910390f35b34801561037e57600080fd5b50610387610c83565b6040516103949190612e33565b60405180910390f35b3480156103a957600080fd5b506103c460048036038101906103bf9190612df7565b610c89565b6040516103d19190612e33565b60405180910390f35b3480156103e657600080fd5b5061040160048036038101906103fc9190612e4e565b610ca1565b005b34801561040f57600080fd5b5061042a60048036038101906104259190612d02565b610d01565b60405161043a9493929190612ea1565b60405180910390f35b34801561044f57600080fd5b50610458610d8e565b005b34801561046657600080fd5b50610481600480360381019061047c9190612ee6565b610dc2565b005b34801561048f57600080fd5b506104aa60048036038101906104a59190612d02565b6111e2565b6040516104b79190612d70565b60405180910390f35b3480156104cc57600080fd5b506104e760048036038101906104e29190612df7565b611215565b6040516104f49190612e33565b60405180910390f35b34801561050957600080fd5b50610524600480360381019061051f9190612e4e565b61122d565b005b34801561053257600080fd5b5061054d60048036038101906105489190612df7565b61124d565b60405161055b929190612f4d565b60405180910390f35b34801561057057600080fd5b50610579611271565b6040516105869190612bff565b60405180910390f35b34801561059b57600080fd5b506105b660048036038101906105b19190612d02565b611284565b6040516105c39190612d70565b60405180910390f35b3480156105d857600080fd5b506105f360048036038101906105ee9190612df7565b61130a565b6040516106009190612e33565b60405180910390f35b34801561061557600080fd5b5061061e6113c1565b60405161062b9190612e33565b60405180910390f35b34801561064057600080fd5b506106496113c7565b005b34801561065757600080fd5b50610672600480360381019061066d9190612d02565b6113db565b60405161067f9190612bff565b60405180910390f35b34801561069457600080fd5b5061069d6113fb565b6040516106aa9190612d70565b60405180910390f35b3480156106bf57600080fd5b506106c8611425565b6040516106d59190612e33565b60405180910390f35b3480156106ea57600080fd5b5061070560048036038101906107009190612d02565b61142a565b005b610721600480360381019061071c9190612f76565b61143c565b005b34801561072f57600080fd5b50610738611719565b6040516107459190612caa565b60405180910390f35b34801561075a57600080fd5b506107636117ab565b6040516107709190612caa565b60405180910390f35b34801561078557600080fd5b5061078e611839565b60405161079b9190612e33565b60405180910390f35b3480156107b057600080fd5b506107cb60048036038101906107c691906130eb565b61183f565b005b3480156107d957600080fd5b506107f460048036038101906107ef9190613160565b61185a565b005b34801561080257600080fd5b5061081d60048036038101906108189190612d02565b611870565b60405161082a9190612d70565b60405180910390f35b34801561083f57600080fd5b5061085a60048036038101906108559190613241565b6118a3565b005b34801561086857600080fd5b50610883600480360381019061087e9190612d02565b611905565b6040516108909190612caa565b60405180910390f35b3480156108a557600080fd5b506108c060048036038101906108bb9190612df7565b61196d565b6040516108cd9190612e33565b60405180910390f35b3480156108e257600080fd5b506108fd60048036038101906108f891906132c4565b6119b6565b60405161090a9190612bff565b60405180910390f35b34801561091f57600080fd5b5061093a60048036038101906109359190612df7565b611a4a565b005b34801561094857600080fd5b50610951611acd565b60405161095e9190612e33565b60405180910390f35b60007f80ac58cd000000000000000000000000000000000000000000000000000000007bffffffffffffffffffffffffffffffffffffffffffffffffffffffff1916827bffffffffffffffffffffffffffffffffffffffffffffffffffffffff19161480610a3257507f5b5e139f000000000000000000000000000000000000000000000000000000007bffffffffffffffffffffffffffffffffffffffffffffffffffffffff1916827bffffffffffffffffffffffffffffffffffffffffffffffffffffffff1916145b80610a425750610a4182611ad3565b5b9050919050565b606060008054610a5890613333565b80601f0160208091040260200160405190810160405280929190818152602001828054610a8490613333565b8015610ad15780601f10610aa657610100808354040283529160200191610ad1565b820191906000526020600020905b815481529060010190602001808311610ab457829003601f168201915b5050505050905090565b6000610ae682611b3d565b6004600083815260200190815260200160002060009054906101000a900473ffffffffffffffffffffffffffffffffffffffff169050919050565b6000610b2c82611284565b90508073ffffffffffffffffffffffffffffffffffffffff168373ffffffffffffffffffffffffffffffffffffffff1603610b9c576040517f08c379a0000000000000000000000000000000000000000000000000000000008152600401610b93906133d6565b60405180910390fd5b8073ffffffffffffffffffffffffffffffffffffffff16610bbb611b88565b73ffffffffffffffffffffffffffffffffffffffff161480610bea5750610be981610be4611b88565b6119b6565b5b610c29576040517f08c379a0000000000000000000000000000000000000000000000000000000008152600401610c2090613468565b60405180910390fd5b610c338383611b90565b505050565b600a6020528060005260406000206000915054906101000a900473ffffffffffffffffffffffffffffffffffffffff1681565b600b6020528060005260406000206000915090505481565b60145481565b600c6020528060005260406000206000915090505481565b610cb2610cac611b88565b82611c49565b610cf1576040517f08c379a0000000000000000000000000000000000000000000000000000000008152600401610ce8906134fa565b60405180910390fd5b610cfc838383611cde565b505050565b60078181548110610d1157600080fd5b90600052602060002090600302016000915090508060000154908060010160009054906101000a900473ffffffffffffffffffffffffffffffffffffffff16908060020160009054906101000a900473ffffffffffffffffffffffffffffffffffffffff16908060020160149054906101000a900460ff16905084565b610d96611fd7565b601360009054906101000a900460ff1615601360006101000a81548160ff021916908315150217905550565b610dca611fd7565b610dd2612b31565b828160000181815250508181602001818152505080600d60008773ffffffffffffffffffffffffffffffffffffffff1673ffffffffffffffffffffffffffffffffffffffff16815260200190815260200160002060008201518160000155602082015181600101559050506000600190505b8481116111da57610e61600160085461205590919063ffffffff16565b6008819055506007604051806080016040528060085481526020013373ffffffffffffffffffffffffffffffffffffffff1681526020018873ffffffffffffffffffffffffffffffffffffffff1681526020016000151581525090806001815401808255809150506001900390600052602060002090600302016000909190919091506000820151816000015560208201518160010160006101000a81548173ffffffffffffffffffffffffffffffffffffffff021916908373ffffffffffffffffffffffffffffffffffffffff16021790555060408201518160020160006101000a81548173ffffffffffffffffffffffffffffffffffffffff021916908373ffffffffffffffffffffffffffffffffffffffff16021790555060608201518160020160146101000a81548160ff021916908315150217905550505060006001600780549050610fb29190613549565b9050336009600083815260200190815260200160002060006101000a81548173ffffffffffffffffffffffffffffffffffffffff021916908373ffffffffffffffffffffffffffffffffffffffff16021790555086600a600083815260200190815260200160002060006101000a81548173ffffffffffffffffffffffffffffffffffffffff021916908373ffffffffffffffffffffffffffffffffffffffff1602179055506110ab6001600b60003373ffffffffffffffffffffffffffffffffffffffff1673ffffffffffffffffffffffffffffffffffffffff1681526020019081526020016000205461205590919063ffffffff16565b600b60003373ffffffffffffffffffffffffffffffffffffffff1673ffffffffffffffffffffffffffffffffffffffff168152602001908152602001600020819055506111416001600c60008a73ffffffffffffffffffffffffffffffffffffffff1673ffffffffffffffffffffffffffffffffffffffff1681526020019081526020016000205461205590919063ffffffff16565b600c60008973ffffffffffffffffffffffffffffffffffffffff1673ffffffffffffffffffffffffffffffffffffffff168152602001908152602001600020819055507fdd99a654cef3d7d04265cbed186b2898d64a57945f525288bdd7050c0aebd0cd81886040516111b592919061357d565b60405180910390a16111c860018861143c565b50806111d3906135a6565b9050610e44565b505050505050565b60106020528060005260406000206000915054906101000a900473ffffffffffffffffffffffffffffffffffffffff1681565b600f6020528060005260406000206000915090505481565b611248838383604051806020016040528060008152506118a3565b505050565b600d6020528060005260406000206000915090508060000154908060010154905082565b601360009054906101000a900460ff1681565b60008061129083612081565b9050600073ffffffffffffffffffffffffffffffffffffffff168173ffffffffffffffffffffffffffffffffffffffff1603611301576040517f08c379a00000000000000000000000000000000000000000000000000000000081526004016112f89061363a565b60405180910390fd5b80915050919050565b60008073ffffffffffffffffffffffffffffffffffffffff168273ffffffffffffffffffffffffffffffffffffffff160361137a576040517f08c379a0000000000000000000000000000000000000000000000000000000008152600401611371906136cc565b60405180910390fd5b600360008373ffffffffffffffffffffffffffffffffffffffff1673ffffffffffffffffffffffffffffffffffffffff168152602001908152602001600020549050919050565b60125481565b6113cf611fd7565b6113d960006120be565b565b600e6020528060005260406000206000915054906101000a900460ff1681565b6000600660009054906101000a900473ffffffffffffffffffffffffffffffffffffffff16905090565b600a81565b611432611fd7565b8060118190555050565b601360009054906101000a900460ff1661148b576040517f08c379a000000000000000000000000000000000000000000000000000000000815260040161148290613738565b60405180910390fd5b600a8211156114cf576040517f08c379a00000000000000000000000000000000000000000000000000000000081526004016114c6906137ca565b60405180910390fd5b600a82600f60003373ffffffffffffffffffffffffffffffffffffffff1673ffffffffffffffffffffffffffffffffffffffff1681526020019081526020016000205461151c91906137ea565b111561155d576040517f08c379a00000000000000000000000000000000000000000000000000000000081526004016115549061386a565b60405180910390fd5b60006014549050612710838261157391906137ea565b11156115b4576040517f08c379a00000000000000000000000000000000000000000000000000000000081526004016115ab906138d6565b60405180910390fd5b34601154846115c391906138f6565b1115611604576040517f08c379a00000000000000000000000000000000000000000000000000000000081526004016115fb90613984565b60405180910390fd5b6000600190505b8381116116385761162733828461162291906137ea565b612184565b80611631906135a6565b905061160b565b5082600f60008473ffffffffffffffffffffffffffffffffffffffff1673ffffffffffffffffffffffffffffffffffffffff168152602001908152602001600020600082825461168891906137ea565b92505081905550601260008154809291906116a2906135a6565b91905055503360106000601254815260200190815260200160002060006101000a81548173ffffffffffffffffffffffffffffffffffffffff021916908373ffffffffffffffffffffffffffffffffffffffff160217905550826014600082825461170d91906137ea565b92505081905550505050565b60606001805461172890613333565b80601f016020809104026020016040519081016040528092919081815260200182805461175490613333565b80156117a15780601f10611776576101008083540402835291602001916117a1565b820191906000526020600020905b81548152906001019060200180831161178457829003601f168201915b5050505050905090565b601580546117b890613333565b80601f01602080910402602001604051908101604052809291908181526020018280546117e490613333565b80156118315780601f1061180657610100808354040283529160200191611831565b820191906000526020600020905b81548152906001019060200180831161181457829003601f168201915b505050505081565b60115481565b611847611fd7565b80601590816118569190613b50565b5050565b61186c611865611b88565b83836121a2565b5050565b60096020528060005260406000206000915054906101000a900473ffffffffffffffffffffffffffffffffffffffff1681565b6118b46118ae611b88565b83611c49565b6118f3576040517f08c379a00000000000000000000000000000000000000000000000000000000081526004016118ea906134fa565b60405180910390fd5b6118ff8484848461230e565b50505050565b606061191082611b3d565b600061191a61236a565b9050600081511161193a5760405180602001604052806000815250611965565b8061194484612381565b604051602001611955929190613c5e565b6040516020818303038152906040525b915050919050565b6000600f60008373ffffffffffffffffffffffffffffffffffffffff1673ffffffffffffffffffffffffffffffffffffffff168152602001908152602001600020549050919050565b6000600560008473ffffffffffffffffffffffffffffffffffffffff1673ffffffffffffffffffffffffffffffffffffffff16815260200190815260200160002060008373ffffffffffffffffffffffffffffffffffffffff1673ffffffffffffffffffffffffffffffffffffffff16815260200190815260200160002060009054906101000a900460ff16905092915050565b611a52611fd7565b600073ffffffffffffffffffffffffffffffffffffffff168173ffffffffffffffffffffffffffffffffffffffff1603611ac1576040517f08c379a0000000000000000000000000000000000000000000000000000000008152600401611ab890613cf4565b60405180910390fd5b611aca816120be565b50565b61271081565b60007f01ffc9a7000000000000000000000000000000000000000000000000000000007bffffffffffffffffffffffffffffffffffffffffffffffffffffffff1916827bffffffffffffffffffffffffffffffffffffffffffffffffffffffff1916149050919050565b611b468161244f565b611b85576040517f08c379a0000000000000000000000000000000000000000000000000000000008152600401611b7c9061363a565b60405180910390fd5b50565b600033905090565b816004600083815260200190815260200160002060006101000a81548173ffffffffffffffffffffffffffffffffffffffff021916908373ffffffffffffffffffffffffffffffffffffffff160217905550808273ffffffffffffffffffffffffffffffffffffffff16611c0383611284565b73ffffffffffffffffffffffffffffffffffffffff167f8c5be1e5ebec7d5bd14f71427d1e84f3dd0314c0f7b2291e5b200ac8c7c3b92560405160405180910390a45050565b600080611c5583611284565b90508073ffffffffffffffffffffffffffffffffffffffff168473ffffffffffffffffffffffffffffffffffffffff161480611c975750611c9681856119b6565b5b80611cd557508373ffffffffffffffffffffffffffffffffffffffff16611cbd84610adb565b73ffffffffffffffffffffffffffffffffffffffff16145b91505092915050565b8273ffffffffffffffffffffffffffffffffffffffff16611cfe82611284565b73ffffffffffffffffffffffffffffffffffffffff1614611d54576040517f08c379a0000000000000000000000000000000000000000000000000000000008152600401611d4b90613d86565b60405180910390fd5b600073ffffffffffffffffffffffffffffffffffffffff168273ffffffffffffffffffffffffffffffffffffffff1603611dc3576040517f08c379a0000000000000000000000000000000000000000000000000000000008152600401611dba90613e18565b60405180910390fd5b611dd08383836001612490565b8273ffffffffffffffffffffffffffffffffffffffff16611df082611284565b73ffffffffffffffffffffffffffffffffffffffff1614611e46576040517f08c379a0000000000000000000000000000000000000000000000000000000008152600401611e3d90613d86565b60405180910390fd5b6004600082815260200190815260200160002060006101000a81549073ffffffffffffffffffffffffffffffffffffffff02191690556001600360008573ffffffffffffffffffffffffffffffffffffffff1673ffffffffffffffffffffffffffffffffffffffff168152602001908152602001600020600082825403925050819055506001600360008473ffffffffffffffffffffffffffffffffffffffff1673ffffffffffffffffffffffffffffffffffffffff16815260200190815260200160002060008282540192505081905550816002600083815260200190815260200160002060006101000a81548173ffffffffffffffffffffffffffffffffffffffff021916908373ffffffffffffffffffffffffffffffffffffffff160217905550808273ffffffffffffffffffffffffffffffffffffffff168473ffffffffffffffffffffffffffffffffffffffff167fddf252ad1be2c89b69c2b068fc378daa952ba7f163c4a11628f55a4df523b3ef60405160405180910390a4611fd283838360016125b6565b505050565b611fdf611b88565b73ffffffffffffffffffffffffffffffffffffffff16611ffd6113fb565b73ffffffffffffffffffffffffffffffffffffffff1614612053576040517f08c379a000000000000000000000000000000000000000000000000000000000815260040161204a90613e84565b60405180910390fd5b565b600080828461206491906137ea565b90508381101561207757612076613ea4565b5b8091505092915050565b60006002600083815260200190815260200160002060009054906101000a900473ffffffffffffffffffffffffffffffffffffffff169050919050565b6000600660009054906101000a900473ffffffffffffffffffffffffffffffffffffffff16905081600660006101000a81548173ffffffffffffffffffffffffffffffffffffffff021916908373ffffffffffffffffffffffffffffffffffffffff1602179055508173ffffffffffffffffffffffffffffffffffffffff168173ffffffffffffffffffffffffffffffffffffffff167f8be0079c531659141344cd1fd0a4f28419497f9722a3daafe3b4186f6b6457e060405160405180910390a35050565b61219e8282604051806020016040528060008152506125bc565b5050565b8173ffffffffffffffffffffffffffffffffffffffff168373ffffffffffffffffffffffffffffffffffffffff1603612210576040517f08c379a000000000000000000000000000000000000000000000000000000000815260040161220790613f1f565b60405180910390fd5b80600560008573ffffffffffffffffffffffffffffffffffffffff1673ffffffffffffffffffffffffffffffffffffffff16815260200190815260200160002060008473ffffffffffffffffffffffffffffffffffffffff1673ffffffffffffffffffffffffffffffffffffffff16815260200190815260200160002060006101000a81548160ff0219169083151502179055508173ffffffffffffffffffffffffffffffffffffffff168373ffffffffffffffffffffffffffffffffffffffff167f17307eab39ab6107e8899845ad3d59bd9653f200f220920489ca2b5937696c31836040516123019190612bff565b60405180910390a3505050565b612319848484611cde565b61232584848484612617565b612364576040517f08c379a000000000000000000000000000000000000000000000000000000000815260040161235b90613fb1565b60405180910390fd5b50505050565b606060405180602001604052806000815250905090565b6060600060016123908461279e565b01905060008167ffffffffffffffff8111156123af576123ae612fc0565b5b6040519080825280601f01601f1916602001820160405280156123e15781602001600182028036833780820191505090505b509050600082602001820190505b600115612444578080600190039150507f3031323334353637383961626364656600000000000000000000000000000000600a86061a8153600a858161243857612437613fd1565b5b049450600085036123ef575b819350505050919050565b60008073ffffffffffffffffffffffffffffffffffffffff1661247183612081565b73ffffffffffffffffffffffffffffffffffffffff1614159050919050565b60018111156125b057600073ffffffffffffffffffffffffffffffffffffffff168473ffffffffffffffffffffffffffffffffffffffff16146125245780600360008673ffffffffffffffffffffffffffffffffffffffff1673ffffffffffffffffffffffffffffffffffffffff168152602001908152602001600020600082825461251c9190613549565b925050819055505b600073ffffffffffffffffffffffffffffffffffffffff168373ffffffffffffffffffffffffffffffffffffffff16146125af5780600360008573ffffffffffffffffffffffffffffffffffffffff1673ffffffffffffffffffffffffffffffffffffffff16815260200190815260200160002060008282546125a791906137ea565b925050819055505b5b50505050565b50505050565b6125c683836128f1565b6125d36000848484612617565b612612576040517f08c379a000000000000000000000000000000000000000000000000000000000815260040161260990613fb1565b60405180910390fd5b505050565b60006126388473ffffffffffffffffffffffffffffffffffffffff16612b0e565b15612791578373ffffffffffffffffffffffffffffffffffffffff1663150b7a02612661611b88565b8786866040518563ffffffff1660e01b81526004016126839493929190614055565b6020604051808303816000875af19250505080156126bf57506040513d601f19601f820116820180604052508101906126bc91906140b6565b60015b612741573d80600081146126ef576040519150601f19603f3d011682016040523d82523d6000602084013e6126f4565b606091505b506000815103612739576040517f08c379a000000000000000000000000000000000000000000000000000000000815260040161273090613fb1565b60405180910390fd5b805181602001fd5b63150b7a0260e01b7bffffffffffffffffffffffffffffffffffffffffffffffffffffffff1916817bffffffffffffffffffffffffffffffffffffffffffffffffffffffff191614915050612796565b600190505b949350505050565b600080600090507a184f03e93ff9f4daa797ed6e38ed64bf6a1f01000000000000000083106127fc577a184f03e93ff9f4daa797ed6e38ed64bf6a1f01000000000000000083816127f2576127f1613fd1565b5b0492506040810190505b6d04ee2d6d415b85acef81000000008310612839576d04ee2d6d415b85acef8100000000838161282f5761282e613fd1565b5b0492506020810190505b662386f26fc10000831061286857662386f26fc10000838161285e5761285d613fd1565b5b0492506010810190505b6305f5e1008310612891576305f5e100838161288757612886613fd1565b5b0492506008810190505b61271083106128b65761271083816128ac576128ab613fd1565b5b0492506004810190505b606483106128d957606483816128cf576128ce613fd1565b5b0492506002810190505b600a83106128e8576001810190505b80915050919050565b600073ffffffffffffffffffffffffffffffffffffffff168273ffffffffffffffffffffffffffffffffffffffff1603612960576040517f08c379a00000000000000000000000000000000000000000000000000000000081526004016129579061412f565b60405180910390fd5b6129698161244f565b156129a9576040517f08c379a00000000000000000000000000000000000000000000000000000000081526004016129a09061419b565b60405180910390fd5b6129b7600083836001612490565b6129c08161244f565b15612a00576040517f08c379a00000000000000000000000000000000000000000000000000000000081526004016129f79061419b565b60405180910390fd5b6001600360008473ffffffffffffffffffffffffffffffffffffffff1673ffffffffffffffffffffffffffffffffffffffff16815260200190815260200160002060008282540192505081905550816002600083815260200190815260200160002060006101000a81548173ffffffffffffffffffffffffffffffffffffffff021916908373ffffffffffffffffffffffffffffffffffffffff160217905550808273ffffffffffffffffffffffffffffffffffffffff16600073ffffffffffffffffffffffffffffffffffffffff167fddf252ad1be2c89b69c2b068fc378daa952ba7f163c4a11628f55a4df523b3ef60405160405180910390a4612b0a6000838360016125b6565b5050565b6000808273ffffffffffffffffffffffffffffffffffffffff163b119050919050565b604051806040016040528060008152602001600081525090565b6000604051905090565b600080fd5b600080fd5b60007fffffffff0000000000000000000000000000000000000000000000000000000082169050919050565b612b9481612b5f565b8114612b9f57600080fd5b50565b600081359050612bb181612b8b565b92915050565b600060208284031215612bcd57612bcc612b55565b5b6000612bdb84828501612ba2565b91505092915050565b60008115159050919050565b612bf981612be4565b82525050565b6000602082019050612c146000830184612bf0565b92915050565b600081519050919050565b600082825260208201905092915050565b60005b83811015612c54578082015181840152602081019050612c39565b60008484015250505050565b6000601f19601f8301169050919050565b6000612c7c82612c1a565b612c868185612c25565b9350612c96818560208601612c36565b612c9f81612c60565b840191505092915050565b60006020820190508181036000830152612cc48184612c71565b905092915050565b6000819050919050565b612cdf81612ccc565b8114612cea57600080fd5b50565b600081359050612cfc81612cd6565b92915050565b600060208284031215612d1857612d17612b55565b5b6000612d2684828501612ced565b91505092915050565b600073ffffffffffffffffffffffffffffffffffffffff82169050919050565b6000612d5a82612d2f565b9050919050565b612d6a81612d4f565b82525050565b6000602082019050612d856000830184612d61565b92915050565b612d9481612d4f565b8114612d9f57600080fd5b50565b600081359050612db181612d8b565b92915050565b60008060408385031215612dce57612dcd612b55565b5b6000612ddc85828601612da2565b9250506020612ded85828601612ced565b9150509250929050565b600060208284031215612e0d57612e0c612b55565b5b6000612e1b84828501612da2565b91505092915050565b612e2d81612ccc565b82525050565b6000602082019050612e486000830184612e24565b92915050565b600080600060608486031215612e6757612e66612b55565b5b6000612e7586828701612da2565b9350506020612e8686828701612da2565b9250506040612e9786828701612ced565b9150509250925092565b6000608082019050612eb66000830187612e24565b612ec36020830186612d61565b612ed06040830185612d61565b612edd6060830184612bf0565b95945050505050565b60008060008060808587031215612f0057612eff612b55565b5b6000612f0e87828801612da2565b9450506020612f1f87828801612ced565b9350506040612f3087828801612ced565b9250506060612f4187828801612ced565b91505092959194509250565b6000604082019050612f626000830185612e24565b612f6f6020830184612e24565b9392505050565b60008060408385031215612f8d57612f8c612b55565b5b6000612f9b85828601612ced565b9250506020612fac85828601612da2565b9150509250929050565b600080fd5b600080fd5b7f4e487b7100000000000000000000000000000000000000000000000000000000600052604160045260246000fd5b612ff882612c60565b810181811067ffffffffffffffff8211171561301757613016612fc0565b5b80604052505050565b600061302a612b4b565b90506130368282612fef565b919050565b600067ffffffffffffffff82111561305657613055612fc0565b5b61305f82612c60565b9050602081019050919050565b82818337600083830152505050565b600061308e6130898461303b565b613020565b9050828152602081018484840111156130aa576130a9612fbb565b5b6130b584828561306c565b509392505050565b600082601f8301126130d2576130d1612fb6565b5b81356130e284826020860161307b565b91505092915050565b60006020828403121561310157613100612b55565b5b600082013567ffffffffffffffff81111561311f5761311e612b5a565b5b61312b848285016130bd565b91505092915050565b61313d81612be4565b811461314857600080fd5b50565b60008135905061315a81613134565b92915050565b6000806040838503121561317757613176612b55565b5b600061318585828601612da2565b92505060206131968582860161314b565b9150509250929050565b600067ffffffffffffffff8211156131bb576131ba612fc0565b5b6131c482612c60565b9050602081019050919050565b60006131e46131df846131a0565b613020565b905082815260208101848484011115613200576131ff612fbb565b5b61320b84828561306c565b509392505050565b600082601f83011261322857613227612fb6565b5b81356132388482602086016131d1565b91505092915050565b6000806000806080858703121561325b5761325a612b55565b5b600061326987828801612da2565b945050602061327a87828801612da2565b935050604061328b87828801612ced565b925050606085013567ffffffffffffffff8111156132ac576132ab612b5a565b5b6132b887828801613213565b91505092959194509250565b600080604083850312156132db576132da612b55565b5b60006132e985828601612da2565b92505060206132fa85828601612da2565b9150509250929050565b7f4e487b7100000000000000000000000000000000000000000000000000000000600052602260045260246000fd5b6000600282049050600182168061334b57607f821691505b60208210810361335e5761335d613304565b5b50919050565b7f4552433732313a20617070726f76616c20746f2063757272656e74206f776e6560008201527f7200000000000000000000000000000000000000000000000000000000000000602082015250565b60006133c0602183612c25565b91506133cb82613364565b604082019050919050565b600060208201905081810360008301526133ef816133b3565b9050919050565b7f4552433732313a20617070726f76652063616c6c6572206973206e6f7420746f60008201527f6b656e206f776e6572206f7220617070726f76656420666f7220616c6c000000602082015250565b6000613452603d83612c25565b915061345d826133f6565b604082019050919050565b6000602082019050818103600083015261348181613445565b9050919050565b7f4552433732313a2063616c6c6572206973206e6f7420746f6b656e206f776e6560008201527f72206f7220617070726f76656400000000000000000000000000000000000000602082015250565b60006134e4602d83612c25565b91506134ef82613488565b604082019050919050565b60006020820190508181036000830152613513816134d7565b9050919050565b7f4e487b7100000000000000000000000000000000000000000000000000000000600052601160045260246000fd5b600061355482612ccc565b915061355f83612ccc565b92508282039050818111156135775761357661351a565b5b92915050565b60006040820190506135926000830185612e24565b61359f6020830184612d61565b9392505050565b60006135b182612ccc565b91507fffffffffffffffffffffffffffffffffffffffffffffffffffffffffffffffff82036135e3576135e261351a565b5b600182019050919050565b7f4552433732313a20696e76616c696420746f6b656e2049440000000000000000600082015250565b6000613624601883612c25565b915061362f826135ee565b602082019050919050565b6000602082019050818103600083015261365381613617565b9050919050565b7f4552433732313a2061646472657373207a65726f206973206e6f74206120766160008201527f6c6964206f776e65720000000000000000000000000000000000000000000000602082015250565b60006136b6602983612c25565b91506136c18261365a565b604082019050919050565b600060208201905081810360008301526136e5816136a9565b9050919050565b7f5468652073616c65206973207061757365642e00000000000000000000000000600082015250565b6000613722601383612c25565b915061372d826136ec565b602082019050919050565b6000602082019050818103600083015261375181613715565b9050919050565b7f596f752063616e6e6f74206d696e742074686174206d616e7920696e206f6e6560008201527f207472616e73616374696f6e2e00000000000000000000000000000000000000602082015250565b60006137b4602d83612c25565b91506137bf82613758565b604082019050919050565b600060208201905081810360008301526137e3816137a7565b9050919050565b60006137f582612ccc565b915061380083612ccc565b92508282019050808211156138185761381761351a565b5b92915050565b7f596f752063616e6e6f74206d696e742074686174206d616e7920746f74616c2e600082015250565b6000613854602083612c25565b915061385f8261381e565b602082019050919050565b6000602082019050818103600083015261388381613847565b9050919050565b7f4578636565647320746f74616c20737570706c792e0000000000000000000000600082015250565b60006138c0601583612c25565b91506138cb8261388a565b602082019050919050565b600060208201905081810360008301526138ef816138b3565b9050919050565b600061390182612ccc565b915061390c83612ccc565b925082820261391a81612ccc565b915082820484148315176139315761393061351a565b5b5092915050565b7f496e73756666696369656e742066756e64732e00000000000000000000000000600082015250565b600061396e601383612c25565b915061397982613938565b602082019050919050565b6000602082019050818103600083015261399d81613961565b9050919050565b60008190508160005260206000209050919050565b60006020601f8301049050919050565b600082821b905092915050565b600060088302613a067fffffffffffffffffffffffffffffffffffffffffffffffffffffffffffffffff826139c9565b613a1086836139c9565b95508019841693508086168417925050509392505050565b6000819050919050565b6000613a4d613a48613a4384612ccc565b613a28565b612ccc565b9050919050565b6000819050919050565b613a6783613a32565b613a7b613a7382613a54565b8484546139d6565b825550505050565b600090565b613a90613a83565b613a9b818484613a5e565b505050565b5b81811015613abf57613ab4600082613a88565b600181019050613aa1565b5050565b601f821115613b0457613ad5816139a4565b613ade846139b9565b81016020851015613aed578190505b613b01613af9856139b9565b830182613aa0565b50505b505050565b600082821c905092915050565b6000613b2760001984600802613b09565b1980831691505092915050565b6000613b408383613b16565b9150826002028217905092915050565b613b5982612c1a565b67ffffffffffffffff811115613b7257613b71612fc0565b5b613b7c8254613333565b613b87828285613ac3565b600060209050601f831160018114613bba5760008415613ba8578287015190505b613bb28582613b34565b865550613c1a565b601f198416613bc8866139a4565b60005b82811015613bf057848901518255600182019150602085019450602081019050613bcb565b86831015613c0d5784890151613c09601f891682613b16565b8355505b6001600288020188555050505b505050505050565b600081905092915050565b6000613c3882612c1a565b613c428185613c22565b9350613c52818560208601612c36565b80840191505092915050565b6000613c6a8285613c2d565b9150613c768284613c2d565b91508190509392505050565b7f4f776e61626c653a206e6577206f776e657220697320746865207a65726f206160008201527f6464726573730000000000000000000000000000000000000000000000000000602082015250565b6000613cde602683612c25565b9150613ce982613c82565b604082019050919050565b60006020820190508181036000830152613d0d81613cd1565b9050919050565b7f4552433732313a207472616e736665722066726f6d20696e636f72726563742060008201527f6f776e6572000000000000000000000000000000000000000000000000000000602082015250565b6000613d70602583612c25565b9150613d7b82613d14565b604082019050919050565b60006020820190508181036000830152613d9f81613d63565b9050919050565b7f4552433732313a207472616e7366657220746f20746865207a65726f2061646460008201527f7265737300000000000000000000000000000000000000000000000000000000602082015250565b6000613e02602483612c25565b9150613e0d82613da6565b604082019050919050565b60006020820190508181036000830152613e3181613df5565b9050919050565b7f4f776e61626c653a2063616c6c6572206973206e6f7420746865206f776e6572600082015250565b6000613e6e602083612c25565b9150613e7982613e38565b602082019050919050565b60006020820190508181036000830152613e9d81613e61565b9050919050565b7f4e487b7100000000000000000000000000000000000000000000000000000000600052600160045260246000fd5b7f4552433732313a20617070726f766520746f2063616c6c657200000000000000600082015250565b6000613f09601983612c25565b9150613f1482613ed3565b602082019050919050565b60006020820190508181036000830152613f3881613efc565b9050919050565b7f4552433732313a207472616e7366657220746f206e6f6e20455243373231526560008201527f63656976657220696d706c656d656e7465720000000000000000000000000000602082015250565b6000613f9b603283612c25565b9150613fa682613f3f565b604082019050919050565b60006020820190508181036000830152613fca81613f8e565b9050919050565b7f4e487b7100000000000000000000000000000000000000000000000000000000600052601260045260246000fd5b600081519050919050565b600082825260208201905092915050565b600061402782614000565b614031818561400b565b9350614041818560208601612c36565b61404a81612c60565b840191505092915050565b600060808201905061406a6000830187612d61565b6140776020830186612d61565b6140846040830185612e24565b8181036060830152614096818461401c565b905095945050505050565b6000815190506140b081612b8b565b92915050565b6000602082840312156140cc576140cb612b55565b5b60006140da848285016140a1565b91505092915050565b7f4552433732313a206d696e7420746f20746865207a65726f2061646472657373600082015250565b6000614119602083612c25565b9150614124826140e3565b602082019050919050565b600060208201905081810360008301526141488161410c565b9050919050565b7f4552433732313a20746f6b656e20616c7265616479206d696e74656400000000600082015250565b6000614185601c83612c25565b91506141908261414f565b602082019050919050565b600060208201905081810360008301526141b481614178565b905091905056fea2646970667358221220c8c0ff1993c1754793d98f1b2fdd8e43ad64f8c1d46abdf2b7e28c92666f893d64736f6c63430008110033697066733a2f2f78787878787878787878787878787878787878787878787878787878782f",
  "immutableReferences": {},
  "source": "// SPDX-License-Identifier: UNIBO\npragma solidity ^0.8.0;\n\nimport \"./safemath.sol\";\nimport \"@openzeppelin/contracts/token/ERC721/ERC721.sol\";\nimport \"@openzeppelin/contracts/security/Pausable.sol\";\nimport \"@openzeppelin/contracts/access/Ownable.sol\";\nimport \"@openzeppelin/contracts/token/ERC721/extensions/ERC721Burnable.sol\";\n\n\ncontract PackFactory is ERC721, Ownable {\n\n    using SafeMath for uint256;\n    using SafeMath32 for uint32;\n    using SafeMath16 for uint16;\n\n    event NewPack(uint packId, address receiver);\n\n    struct Coordinate {\n        uint lat;\n        uint long;\n    }\n\n    struct Pack {\n        uint256 pCode; //codice pacco progressivo. Ogni nuovo pacco  pcode + 1\n        address sender;\n        address receiver;\n        bool delivered; //true consegnato, false in transito\n    }\n\n    Pack[] public container;\n\n    uint256 seed = 0;\n\n    mapping (uint => address) public packToSender;\n    mapping (uint => address) public packToReceiver;\n    mapping (address => uint) public senderPackCount;\n    mapping (address => uint) public receiverPackCount;\n    mapping (address => Coordinate) public coordinateFromReceiver;\n    mapping (uint => bool) public isDeliveredMap;\n    mapping(address => uint256) public mintedPerWallet;\n    mapping(uint256 => address) public tokenIdPerWallet;\n\n    using Strings for uint256;\n\n    uint public constant MAX_TOKENS = 10000;\n    uint private constant TOKENS_RESERVED = 5;\n    uint public price = 0;\n    uint256 public constant MAX_MINT_PER_TX = 10;\n\n    uint256 public tokenIds;\n    bool public isSaleActive;\n    uint256 public totalSupply;\n    string public baseUri;\n\n\n    constructor() ERC721(\"NFT Pack\", \"NFTP\") {\n        baseUri = \"ipfs://xxxxxxxxxxxxxxxxxxxxxxxxxxxxx/\";\n    }\n\n    function createPack(address _receiver, uint256 _numTokens, uint _lat, uint _long) external onlyOwner {\n        Coordinate memory cord;\n        cord.lat = _lat;\n        cord.long = _long;\n        coordinateFromReceiver[_receiver] = cord;\n        for(uint256 i = 1; i <= _numTokens; ++i) {\n            seed = seed.add(1);\n            container.push(Pack(seed, msg.sender, _receiver, false));\n            uint id = container.length - 1;\n            packToSender[id] = msg.sender;\n            packToReceiver[id] = _receiver;\n            senderPackCount[msg.sender] = senderPackCount[msg.sender].add(1);\n            receiverPackCount[_receiver] = receiverPackCount[_receiver].add(1);\n            emit NewPack(id, _receiver);\n            mint(1, _receiver);\n        }\n    }\n\n    // Public Functions\n    function mint(uint256 _numTokens, address _receiver) public payable {\n        require(isSaleActive, \"The sale is paused.\");\n        require(_numTokens <= MAX_MINT_PER_TX, \"You cannot mint that many in one transaction.\");\n        require(mintedPerWallet[msg.sender] + _numTokens <= MAX_MINT_PER_TX, \"You cannot mint that many total.\");\n        uint256 curTotalSupply = totalSupply;\n        require(curTotalSupply + _numTokens <= MAX_TOKENS, \"Exceeds total supply.\");\n        require(_numTokens * price <= msg.value, \"Insufficient funds.\");\n\n        for(uint256 i = 1; i <= _numTokens; ++i) {\n            _safeMint(msg.sender, curTotalSupply + i);\n        }\n        mintedPerWallet[_receiver] += _numTokens;\n        tokenIds++;\n        tokenIdPerWallet[tokenIds] = msg.sender;\n        totalSupply += _numTokens;\n    }\n\n    // Owner-only functions\n    function flipSaleState() external onlyOwner {\n        isSaleActive = !isSaleActive;\n    }\n\n    function setBaseUri(string memory _baseUri) external onlyOwner {\n        baseUri = _baseUri;\n    }\n\n    function setPrice(uint256 _price) external onlyOwner {\n        price = _price;\n    }\n\n    function getMintedPerWallet(address _address) external view returns (uint256) {\n        return mintedPerWallet[_address];\n    }\n\n}\n",
  "sourcePath": "/Users/luigidinuzzo/Desktop/smart-pack/contracts/packfactory.sol",
  "compiler": {
    "name": "solc",
    "version": "0.8.17+commit.8df45f5f.Emscripten.clang"
  },
  "schemaVersion": "3.4.10",
  "updatedAt": "2022-11-22T17:25:53.665Z",
  "networkType": "ethereum",
  "devdoc": {
    "kind": "dev",
    "methods": {
      "approve(address,uint256)": {
        "details": "See {IERC721-approve}."
      },
      "balanceOf(address)": {
        "details": "See {IERC721-balanceOf}."
      },
      "getApproved(uint256)": {
        "details": "See {IERC721-getApproved}."
      },
      "isApprovedForAll(address,address)": {
        "details": "See {IERC721-isApprovedForAll}."
      },
      "name()": {
        "details": "See {IERC721Metadata-name}."
      },
      "owner()": {
        "details": "Returns the address of the current owner."
      },
      "ownerOf(uint256)": {
        "details": "See {IERC721-ownerOf}."
      },
      "renounceOwnership()": {
        "details": "Leaves the contract without owner. It will not be possible to call `onlyOwner` functions anymore. Can only be called by the current owner. NOTE: Renouncing ownership will leave the contract without an owner, thereby removing any functionality that is only available to the owner."
      },
      "safeTransferFrom(address,address,uint256)": {
        "details": "See {IERC721-safeTransferFrom}."
      },
      "safeTransferFrom(address,address,uint256,bytes)": {
        "details": "See {IERC721-safeTransferFrom}."
      },
      "setApprovalForAll(address,bool)": {
        "details": "See {IERC721-setApprovalForAll}."
      },
      "supportsInterface(bytes4)": {
        "details": "See {IERC165-supportsInterface}."
      },
      "symbol()": {
        "details": "See {IERC721Metadata-symbol}."
      },
      "tokenURI(uint256)": {
        "details": "See {IERC721Metadata-tokenURI}."
      },
      "transferFrom(address,address,uint256)": {
        "details": "See {IERC721-transferFrom}."
      },
      "transferOwnership(address)": {
        "details": "Transfers ownership of the contract to a new account (`newOwner`). Can only be called by the current owner."
      }
    },
    "version": 1
  },
  "userdoc": {
    "kind": "user",
    "methods": {},
    "version": 1
  }
}