{
  "contractName": "PackHelper",
  "abi": [
    {
      "anonymous": false,
      "inputs": [
        {
          "indexed": true,
          "internalType": "address",
          "name": "owner",
          "type": "address"
        },
        {
          "indexed": true,
          "internalType": "address",
          "name": "approved",
          "type": "address"
        },
        {
          "indexed": true,
          "internalType": "uint256",
          "name": "tokenId",
          "type": "uint256"
        }
      ],
      "name": "Approval",
      "type": "event"
    },
    {
      "anonymous": false,
      "inputs": [
        {
          "indexed": true,
          "internalType": "address",
          "name": "owner",
          "type": "address"
        },
        {
          "indexed": true,
          "internalType": "address",
          "name": "operator",
          "type": "address"
        },
        {
          "indexed": false,
          "internalType": "bool",
          "name": "approved",
          "type": "bool"
        }
      ],
      "name": "ApprovalForAll",
      "type": "event"
    },
    {
      "anonymous": false,
      "inputs": [
        {
          "indexed": false,
          "internalType": "uint256",
          "name": "packId",
          "type": "uint256"
        },
        {
          "indexed": false,
          "internalType": "address",
          "name": "receiver",
          "type": "address"
        }
      ],
      "name": "NewPack",
      "type": "event"
    },
    {
      "anonymous": false,
      "inputs": [
        {
          "indexed": true,
          "internalType": "address",
          "name": "previousOwner",
          "type": "address"
        },
        {
          "indexed": true,
          "internalType": "address",
          "name": "newOwner",
          "type": "address"
        }
      ],
      "name": "OwnershipTransferred",
      "type": "event"
    },
    {
      "anonymous": false,
      "inputs": [
        {
          "indexed": true,
          "internalType": "address",
          "name": "from",
          "type": "address"
        },
        {
          "indexed": true,
          "internalType": "address",
          "name": "to",
          "type": "address"
        },
        {
          "indexed": true,
          "internalType": "uint256",
          "name": "tokenId",
          "type": "uint256"
        }
      ],
      "name": "Transfer",
      "type": "event"
    },
    {
      "inputs": [],
      "name": "MAX_MINT_PER_TX",
      "outputs": [
        {
          "internalType": "uint256",
          "name": "",
          "type": "uint256"
        }
      ],
      "stateMutability": "view",
      "type": "function"
    },
    {
      "inputs": [],
      "name": "MAX_TOKENS",
      "outputs": [
        {
          "internalType": "uint256",
          "name": "",
          "type": "uint256"
        }
      ],
      "stateMutability": "view",
      "type": "function"
    },
    {
      "inputs": [
        {
          "internalType": "address",
          "name": "to",
          "type": "address"
        },
        {
          "internalType": "uint256",
          "name": "tokenId",
          "type": "uint256"
        }
      ],
      "name": "approve",
      "outputs": [],
      "stateMutability": "nonpayable",
      "type": "function"
    },
    {
      "inputs": [
        {
          "internalType": "address",
          "name": "owner",
          "type": "address"
        }
      ],
      "name": "balanceOf",
      "outputs": [
        {
          "internalType": "uint256",
          "name": "",
          "type": "uint256"
        }
      ],
      "stateMutability": "view",
      "type": "function"
    },
    {
      "inputs": [],
      "name": "baseUri",
      "outputs": [
        {
          "internalType": "string",
          "name": "",
          "type": "string"
        }
      ],
      "stateMutability": "view",
      "type": "function"
    },
    {
      "inputs": [
        {
          "internalType": "uint256",
          "name": "",
          "type": "uint256"
        }
      ],
      "name": "container",
      "outputs": [
        {
          "internalType": "uint256",
          "name": "pCode",
          "type": "uint256"
        },
        {
          "internalType": "address",
          "name": "sender",
          "type": "address"
        },
        {
          "internalType": "address",
          "name": "receiver",
          "type": "address"
        },
        {
          "internalType": "bool",
          "name": "delivered",
          "type": "bool"
        }
      ],
      "stateMutability": "view",
      "type": "function"
    },
    {
      "inputs": [
        {
          "internalType": "address",
          "name": "",
          "type": "address"
        }
      ],
      "name": "coordinateFromReceiver",
      "outputs": [
        {
          "internalType": "uint256",
          "name": "lat",
          "type": "uint256"
        },
        {
          "internalType": "uint256",
          "name": "long",
          "type": "uint256"
        }
      ],
      "stateMutability": "view",
      "type": "function"
    },
    {
      "inputs": [
        {
          "internalType": "address",
          "name": "_receiver",
          "type": "address"
        },
        {
          "internalType": "uint256",
          "name": "_numTokens",
          "type": "uint256"
        },
        {
          "internalType": "uint256",
          "name": "_lat",
          "type": "uint256"
        },
        {
          "internalType": "uint256",
          "name": "_long",
          "type": "uint256"
        }
      ],
      "name": "createPack",
      "outputs": [],
      "stateMutability": "nonpayable",
      "type": "function"
    },
    {
      "inputs": [],
      "name": "flipSaleState",
      "outputs": [],
      "stateMutability": "nonpayable",
      "type": "function"
    },
    {
      "inputs": [
        {
          "internalType": "uint256",
          "name": "tokenId",
          "type": "uint256"
        }
      ],
      "name": "getApproved",
      "outputs": [
        {
          "internalType": "address",
          "name": "",
          "type": "address"
        }
      ],
      "stateMutability": "view",
      "type": "function"
    },
    {
      "inputs": [
        {
          "internalType": "address",
          "name": "_address",
          "type": "address"
        }
      ],
      "name": "getMintedPerWallet",
      "outputs": [
        {
          "internalType": "uint256",
          "name": "",
          "type": "uint256"
        }
      ],
      "stateMutability": "view",
      "type": "function"
    },
    {
      "inputs": [
        {
          "internalType": "address",
          "name": "owner",
          "type": "address"
        },
        {
          "internalType": "address",
          "name": "operator",
          "type": "address"
        }
      ],
      "name": "isApprovedForAll",
      "outputs": [
        {
          "internalType": "bool",
          "name": "",
          "type": "bool"
        }
      ],
      "stateMutability": "view",
      "type": "function"
    },
    {
      "inputs": [
        {
          "internalType": "uint256",
          "name": "",
          "type": "uint256"
        }
      ],
      "name": "isDeliveredMap",
      "outputs": [
        {
          "internalType": "bool",
          "name": "",
          "type": "bool"
        }
      ],
      "stateMutability": "view",
      "type": "function"
    },
    {
      "inputs": [],
      "name": "isSaleActive",
      "outputs": [
        {
          "internalType": "bool",
          "name": "",
          "type": "bool"
        }
      ],
      "stateMutability": "view",
      "type": "function"
    },
    {
      "inputs": [
        {
          "internalType": "uint256",
          "name": "_numTokens",
          "type": "uint256"
        },
        {
          "internalType": "address",
          "name": "_receiver",
          "type": "address"
        }
      ],
      "name": "mint",
      "outputs": [],
      "stateMutability": "payable",
      "type": "function"
    },
    {
      "inputs": [
        {
          "internalType": "address",
          "name": "",
          "type": "address"
        }
      ],
      "name": "mintedPerWallet",
      "outputs": [
        {
          "internalType": "uint256",
          "name": "",
          "type": "uint256"
        }
      ],
      "stateMutability": "view",
      "type": "function"
    },
    {
      "inputs": [],
      "name": "name",
      "outputs": [
        {
          "internalType": "string",
          "name": "",
          "type": "string"
        }
      ],
      "stateMutability": "view",
      "type": "function"
    },
    {
      "inputs": [],
      "name": "owner",
      "outputs": [
        {
          "internalType": "address",
          "name": "",
          "type": "address"
        }
      ],
      "stateMutability": "view",
      "type": "function"
    },
    {
      "inputs": [
        {
          "internalType": "uint256",
          "name": "tokenId",
          "type": "uint256"
        }
      ],
      "name": "ownerOf",
      "outputs": [
        {
          "internalType": "address",
          "name": "",
          "type": "address"
        }
      ],
      "stateMutability": "view",
      "type": "function"
    },
    {
      "inputs": [
        {
          "internalType": "uint256",
          "name": "",
          "type": "uint256"
        }
      ],
      "name": "packToReceiver",
      "outputs": [
        {
          "internalType": "address",
          "name": "",
          "type": "address"
        }
      ],
      "stateMutability": "view",
      "type": "function"
    },
    {
      "inputs": [
        {
          "internalType": "uint256",
          "name": "",
          "type": "uint256"
        }
      ],
      "name": "packToSender",
      "outputs": [
        {
          "internalType": "address",
          "name": "",
          "type": "address"
        }
      ],
      "stateMutability": "view",
      "type": "function"
    },
    {
      "inputs": [],
      "name": "price",
      "outputs": [
        {
          "internalType": "uint256",
          "name": "",
          "type": "uint256"
        }
      ],
      "stateMutability": "view",
      "type": "function"
    },
    {
      "inputs": [
        {
          "internalType": "address",
          "name": "",
          "type": "address"
        }
      ],
      "name": "receiverPackCount",
      "outputs": [
        {
          "internalType": "uint256",
          "name": "",
          "type": "uint256"
        }
      ],
      "stateMutability": "view",
      "type": "function"
    },
    {
      "inputs": [],
      "name": "renounceOwnership",
      "outputs": [],
      "stateMutability": "nonpayable",
      "type": "function"
    },
    {
      "inputs": [
        {
          "internalType": "address",
          "name": "from",
          "type": "address"
        },
        {
          "internalType": "address",
          "name": "to",
          "type": "address"
        },
        {
          "internalType": "uint256",
          "name": "tokenId",
          "type": "uint256"
        }
      ],
      "name": "safeTransferFrom",
      "outputs": [],
      "stateMutability": "nonpayable",
      "type": "function"
    },
    {
      "inputs": [
        {
          "internalType": "address",
          "name": "from",
          "type": "address"
        },
        {
          "internalType": "address",
          "name": "to",
          "type": "address"
        },
        {
          "internalType": "uint256",
          "name": "tokenId",
          "type": "uint256"
        },
        {
          "internalType": "bytes",
          "name": "data",
          "type": "bytes"
        }
      ],
      "name": "safeTransferFrom",
      "outputs": [],
      "stateMutability": "nonpayable",
      "type": "function"
    },
    {
      "inputs": [
        {
          "internalType": "address",
          "name": "",
          "type": "address"
        }
      ],
      "name": "senderPackCount",
      "outputs": [
        {
          "internalType": "uint256",
          "name": "",
          "type": "uint256"
        }
      ],
      "stateMutability": "view",
      "type": "function"
    },
    {
      "inputs": [
        {
          "internalType": "address",
          "name": "operator",
          "type": "address"
        },
        {
          "internalType": "bool",
          "name": "approved",
          "type": "bool"
        }
      ],
      "name": "setApprovalForAll",
      "outputs": [],
      "stateMutability": "nonpayable",
      "type": "function"
    },
    {
      "inputs": [
        {
          "internalType": "string",
          "name": "_baseUri",
          "type": "string"
        }
      ],
      "name": "setBaseUri",
      "outputs": [],
      "stateMutability": "nonpayable",
      "type": "function"
    },
    {
      "inputs": [
        {
          "internalType": "uint256",
          "name": "_price",
          "type": "uint256"
        }
      ],
      "name": "setPrice",
      "outputs": [],
      "stateMutability": "nonpayable",
      "type": "function"
    },
    {
      "inputs": [
        {
          "internalType": "bytes4",
          "name": "interfaceId",
          "type": "bytes4"
        }
      ],
      "name": "supportsInterface",
      "outputs": [
        {
          "internalType": "bool",
          "name": "",
          "type": "bool"
        }
      ],
      "stateMutability": "view",
      "type": "function"
    },
    {
      "inputs": [],
      "name": "symbol",
      "outputs": [
        {
          "internalType": "string",
          "name": "",
          "type": "string"
        }
      ],
      "stateMutability": "view",
      "type": "function"
    },
    {
      "inputs": [
        {
          "internalType": "uint256",
          "name": "",
          "type": "uint256"
        }
      ],
      "name": "tokenIdPerWallet",
      "outputs": [
        {
          "internalType": "address",
          "name": "",
          "type": "address"
        }
      ],
      "stateMutability": "view",
      "type": "function"
    },
    {
      "inputs": [],
      "name": "tokenIds",
      "outputs": [
        {
          "internalType": "uint256",
          "name": "",
          "type": "uint256"
        }
      ],
      "stateMutability": "view",
      "type": "function"
    },
    {
      "inputs": [
        {
          "internalType": "uint256",
          "name": "tokenId",
          "type": "uint256"
        }
      ],
      "name": "tokenURI",
      "outputs": [
        {
          "internalType": "string",
          "name": "",
          "type": "string"
        }
      ],
      "stateMutability": "view",
      "type": "function"
    },
    {
      "inputs": [],
      "name": "totalSupply",
      "outputs": [
        {
          "internalType": "uint256",
          "name": "",
          "type": "uint256"
        }
      ],
      "stateMutability": "view",
      "type": "function"
    },
    {
      "inputs": [
        {
          "internalType": "address",
          "name": "from",
          "type": "address"
        },
        {
          "internalType": "address",
          "name": "to",
          "type": "address"
        },
        {
          "internalType": "uint256",
          "name": "tokenId",
          "type": "uint256"
        }
      ],
      "name": "transferFrom",
      "outputs": [],
      "stateMutability": "nonpayable",
      "type": "function"
    },
    {
      "inputs": [
        {
          "internalType": "address",
          "name": "newOwner",
          "type": "address"
        }
      ],
      "name": "transferOwnership",
      "outputs": [],
      "stateMutability": "nonpayable",
      "type": "function"
    },
    {
      "inputs": [
        {
          "internalType": "uint256",
          "name": "_fee",
          "type": "uint256"
        }
      ],
      "name": "setDeliveringFee",
      "outputs": [],
      "stateMutability": "nonpayable",
      "type": "function"
    },
    {
      "inputs": [
        {
          "internalType": "uint256",
          "name": "_packId",
          "type": "uint256"
        },
        {
          "internalType": "address",
          "name": "_newReceiver",
          "type": "address"
        }
      ],
      "name": "changeReceiver",
      "outputs": [],
      "stateMutability": "nonpayable",
      "type": "function"
    },
    {
      "inputs": [
        {
          "internalType": "address",
          "name": "_sender",
          "type": "address"
        }
      ],
      "name": "getPacksBySender",
      "outputs": [
        {
          "internalType": "uint256[]",
          "name": "",
          "type": "uint256[]"
        }
      ],
      "stateMutability": "view",
      "type": "function"
    },
    {
      "inputs": [
        {
          "internalType": "address",
          "name": "_receiver",
          "type": "address"
        }
      ],
      "name": "getPacksByReceiver",
      "outputs": [
        {
          "internalType": "uint256[]",
          "name": "",
          "type": "uint256[]"
        }
      ],
      "stateMutability": "view",
      "type": "function"
    },
    {
      "inputs": [],
      "name": "getAddressSender",
      "outputs": [
        {
          "internalType": "address[]",
          "name": "",
          "type": "address[]"
        }
      ],
      "stateMutability": "view",
      "type": "function"
    },
    {
      "inputs": [],
      "name": "getAddressReceiver",
      "outputs": [
        {
          "internalType": "address[]",
          "name": "",
          "type": "address[]"
        }
      ],
      "stateMutability": "view",
      "type": "function"
    }
  ],
  "bytecode": "0x60806040526000600855600060115566038d7ea4c680006016553480156200002657600080fd5b506040518060400160405280600881526020017f4e4654205061636b0000000000000000000000000000000000000000000000008152506040518060400160405280600481526020017f4e465450000000000000000000000000000000000000000000000000000000008152508160009081620000a4919062000452565b508060019081620000b6919062000452565b505050620000d9620000cd6200010a60201b60201c565b6200011260201b60201c565b60405180606001604052806025815260200162005631602591396015908162000103919062000452565b5062000539565b600033905090565b6000600660009054906101000a900473ffffffffffffffffffffffffffffffffffffffff16905081600660006101000a81548173ffffffffffffffffffffffffffffffffffffffff021916908373ffffffffffffffffffffffffffffffffffffffff1602179055508173ffffffffffffffffffffffffffffffffffffffff168173ffffffffffffffffffffffffffffffffffffffff167f8be0079c531659141344cd1fd0a4f28419497f9722a3daafe3b4186f6b6457e060405160405180910390a35050565b600081519050919050565b7f4e487b7100000000000000000000000000000000000000000000000000000000600052604160045260246000fd5b7f4e487b7100000000000000000000000000000000000000000000000000000000600052602260045260246000fd5b600060028204905060018216806200025a57607f821691505b60208210810362000270576200026f62000212565b5b50919050565b60008190508160005260206000209050919050565b60006020601f8301049050919050565b600082821b905092915050565b600060088302620002da7fffffffffffffffffffffffffffffffffffffffffffffffffffffffffffffffff826200029b565b620002e686836200029b565b95508019841693508086168417925050509392505050565b6000819050919050565b6000819050919050565b6000620003336200032d6200032784620002fe565b62000308565b620002fe565b9050919050565b6000819050919050565b6200034f8362000312565b620003676200035e826200033a565b848454620002a8565b825550505050565b600090565b6200037e6200036f565b6200038b81848462000344565b505050565b5b81811015620003b357620003a760008262000374565b60018101905062000391565b5050565b601f8211156200040257620003cc8162000276565b620003d7846200028b565b81016020851015620003e7578190505b620003ff620003f6856200028b565b83018262000390565b50505b505050565b600082821c905092915050565b6000620004276000198460080262000407565b1980831691505092915050565b600062000442838362000414565b9150826002028217905092915050565b6200045d82620001d8565b67ffffffffffffffff811115620004795762000478620001e3565b5b62000485825462000241565b62000492828285620003b7565b600060209050601f831160018114620004ca5760008415620004b5578287015190505b620004c1858262000434565b86555062000531565b601f198416620004da8662000276565b60005b828110156200050457848901518255600182019150602085019450602081019050620004dd565b8683101562000524578489015162000520601f89168262000414565b8355505b6001600288020188555050505b505050505050565b6150e880620005496000396000f3fe6080604052600436106102675760003560e01c8063714cff5611610144578063a0bcfc7f116100b6578063dd68eb1f1161007a578063dd68eb1f14610997578063ddffb562146109d4578063e985e9c514610a11578063ed1d487014610a4e578063f2fde38b14610a77578063f47c84c514610aa057610267565b8063a0bcfc7f146108a2578063a22cb465146108cb578063a2e94c00146108f4578063b88d4fde14610931578063c87b56dd1461095a57610267565b806391b7f5ed1161010857806391b7f5ed146107b157806394bf804d146107da57806395d89b41146107f657806397c21330146108215780639abc83201461084c578063a035b1fe1461087757610267565b8063714cff56146106dc578063715018a6146107075780638bb953201461071e5780638da5cb5b1461075b5780638ecad7211461078657610267565b806334918dfd116101dd57806346a2967d116101a157806346a2967d146105915780634c8bfc85146105cf578063564566a81461060c5780636352211e146106375780636cc73bcc1461067457806370a082311461069f57610267565b806334918dfd146104ae57806337d0e31e146104c557806338528c7e146104ee5780633a602b4d1461052b57806342842e0e1461056857610267565b8063124337f61161022f578063124337f61461037757806318160ddd146103b457806319fd1f72146103df5780631b7df0981461041c57806323b872dd146104455780632d9d1c5d1461046e57610267565b806301ffc9a71461026c57806306fdde03146102a9578063081812fc146102d4578063095ea7b314610311578063105b0da71461033a575b600080fd5b34801561027857600080fd5b50610293600480360381019061028e91906138bf565b610acb565b6040516102a09190613907565b60405180910390f35b3480156102b557600080fd5b506102be610bad565b6040516102cb91906139b2565b60405180910390f35b3480156102e057600080fd5b506102fb60048036038101906102f69190613a0a565b610c3f565b6040516103089190613a78565b60405180910390f35b34801561031d57600080fd5b5061033860048036038101906103339190613abf565b610c85565b005b34801561034657600080fd5b50610361600480360381019061035c9190613a0a565b610d9c565b60405161036e9190613a78565b60405180910390f35b34801561038357600080fd5b5061039e60048036038101906103999190613aff565b610dcf565b6040516103ab9190613b3b565b60405180910390f35b3480156103c057600080fd5b506103c9610de7565b6040516103d69190613b3b565b60405180910390f35b3480156103eb57600080fd5b5061040660048036038101906104019190613aff565b610ded565b6040516104139190613b3b565b60405180910390f35b34801561042857600080fd5b50610443600480360381019061043e9190613a0a565b610e05565b005b34801561045157600080fd5b5061046c60048036038101906104679190613b56565b610e17565b005b34801561047a57600080fd5b5061049560048036038101906104909190613a0a565b610e77565b6040516104a59493929190613ba9565b60405180910390f35b3480156104ba57600080fd5b506104c3610f04565b005b3480156104d157600080fd5b506104ec60048036038101906104e79190613bee565b610f38565b005b3480156104fa57600080fd5b5061051560048036038101906105109190613a0a565b611358565b6040516105229190613a78565b60405180910390f35b34801561053757600080fd5b50610552600480360381019061054d9190613aff565b61138b565b60405161055f9190613b3b565b60405180910390f35b34801561057457600080fd5b5061058f600480360381019061058a9190613b56565b6113a3565b005b34801561059d57600080fd5b506105b860048036038101906105b39190613aff565b6113c3565b6040516105c6929190613c55565b60405180910390f35b3480156105db57600080fd5b506105f660048036038101906105f19190613aff565b6113e7565b6040516106039190613d3c565b60405180910390f35b34801561061857600080fd5b50610621611539565b60405161062e9190613907565b60405180910390f35b34801561064357600080fd5b5061065e60048036038101906106599190613a0a565b61154c565b60405161066b9190613a78565b60405180910390f35b34801561068057600080fd5b506106896115d2565b6040516106969190613e1c565b60405180910390f35b3480156106ab57600080fd5b506106c660048036038101906106c19190613aff565b611901565b6040516106d39190613b3b565b60405180910390f35b3480156106e857600080fd5b506106f16119b8565b6040516106fe9190613b3b565b60405180910390f35b34801561071357600080fd5b5061071c6119be565b005b34801561072a57600080fd5b5061074560048036038101906107409190613a0a565b6119d2565b6040516107529190613907565b60405180910390f35b34801561076757600080fd5b506107706119f2565b60405161077d9190613a78565b60405180910390f35b34801561079257600080fd5b5061079b611a1c565b6040516107a89190613b3b565b60405180910390f35b3480156107bd57600080fd5b506107d860048036038101906107d39190613a0a565b611a21565b005b6107f460048036038101906107ef9190613e3e565b611a33565b005b34801561080257600080fd5b5061080b611d10565b60405161081891906139b2565b60405180910390f35b34801561082d57600080fd5b50610836611da2565b6040516108439190613e1c565b60405180910390f35b34801561085857600080fd5b506108616120d1565b60405161086e91906139b2565b60405180910390f35b34801561088357600080fd5b5061088c61215f565b6040516108999190613b3b565b60405180910390f35b3480156108ae57600080fd5b506108c960048036038101906108c49190613fb3565b612165565b005b3480156108d757600080fd5b506108f260048036038101906108ed9190614028565b612180565b005b34801561090057600080fd5b5061091b60048036038101906109169190613a0a565b612196565b6040516109289190613a78565b60405180910390f35b34801561093d57600080fd5b5061095860048036038101906109539190614109565b6121c9565b005b34801561096657600080fd5b50610981600480360381019061097c9190613a0a565b61222b565b60405161098e91906139b2565b60405180910390f35b3480156109a357600080fd5b506109be60048036038101906109b99190613aff565b612293565b6040516109cb9190613b3b565b60405180910390f35b3480156109e057600080fd5b506109fb60048036038101906109f69190613aff565b6122dc565b604051610a089190613d3c565b60405180910390f35b348015610a1d57600080fd5b50610a386004803603810190610a33919061418c565b61242e565b604051610a459190613907565b60405180910390f35b348015610a5a57600080fd5b50610a756004803603810190610a709190613e3e565b6124c2565b005b348015610a8357600080fd5b50610a9e6004803603810190610a999190613aff565b612532565b005b348015610aac57600080fd5b50610ab56125b5565b604051610ac29190613b3b565b60405180910390f35b60007f80ac58cd000000000000000000000000000000000000000000000000000000007bffffffffffffffffffffffffffffffffffffffffffffffffffffffff1916827bffffffffffffffffffffffffffffffffffffffffffffffffffffffff19161480610b9657507f5b5e139f000000000000000000000000000000000000000000000000000000007bffffffffffffffffffffffffffffffffffffffffffffffffffffffff1916827bffffffffffffffffffffffffffffffffffffffffffffffffffffffff1916145b80610ba65750610ba5826125bb565b5b9050919050565b606060008054610bbc906141fb565b80601f0160208091040260200160405190810160405280929190818152602001828054610be8906141fb565b8015610c355780601f10610c0a57610100808354040283529160200191610c35565b820191906000526020600020905b815481529060010190602001808311610c1857829003601f168201915b5050505050905090565b6000610c4a82612625565b6004600083815260200190815260200160002060009054906101000a900473ffffffffffffffffffffffffffffffffffffffff169050919050565b6000610c908261154c565b90508073ffffffffffffffffffffffffffffffffffffffff168373ffffffffffffffffffffffffffffffffffffffff1603610d00576040517f08c379a0000000000000000000000000000000000000000000000000000000008152600401610cf79061429e565b60405180910390fd5b8073ffffffffffffffffffffffffffffffffffffffff16610d1f612670565b73ffffffffffffffffffffffffffffffffffffffff161480610d4e5750610d4d81610d48612670565b61242e565b5b610d8d576040517f08c379a0000000000000000000000000000000000000000000000000000000008152600401610d8490614330565b60405180910390fd5b610d978383612678565b505050565b600a6020528060005260406000206000915054906101000a900473ffffffffffffffffffffffffffffffffffffffff1681565b600b6020528060005260406000206000915090505481565b60145481565b600c6020528060005260406000206000915090505481565b610e0d612731565b8060168190555050565b610e28610e22612670565b826127af565b610e67576040517f08c379a0000000000000000000000000000000000000000000000000000000008152600401610e5e906143c2565b60405180910390fd5b610e72838383612844565b505050565b60078181548110610e8757600080fd5b90600052602060002090600302016000915090508060000154908060010160009054906101000a900473ffffffffffffffffffffffffffffffffffffffff16908060020160009054906101000a900473ffffffffffffffffffffffffffffffffffffffff16908060020160149054906101000a900460ff16905084565b610f0c612731565b601360009054906101000a900460ff1615601360006101000a81548160ff021916908315150217905550565b610f40612731565b610f48613839565b828160000181815250508181602001818152505080600d60008773ffffffffffffffffffffffffffffffffffffffff1673ffffffffffffffffffffffffffffffffffffffff16815260200190815260200160002060008201518160000155602082015181600101559050506000600190505b84811161135057610fd76001600854612b3d90919063ffffffff16565b6008819055506007604051806080016040528060085481526020013373ffffffffffffffffffffffffffffffffffffffff1681526020018873ffffffffffffffffffffffffffffffffffffffff1681526020016000151581525090806001815401808255809150506001900390600052602060002090600302016000909190919091506000820151816000015560208201518160010160006101000a81548173ffffffffffffffffffffffffffffffffffffffff021916908373ffffffffffffffffffffffffffffffffffffffff16021790555060408201518160020160006101000a81548173ffffffffffffffffffffffffffffffffffffffff021916908373ffffffffffffffffffffffffffffffffffffffff16021790555060608201518160020160146101000a81548160ff0219169083151502179055505050600060016007805490506111289190614411565b9050336009600083815260200190815260200160002060006101000a81548173ffffffffffffffffffffffffffffffffffffffff021916908373ffffffffffffffffffffffffffffffffffffffff16021790555086600a600083815260200190815260200160002060006101000a81548173ffffffffffffffffffffffffffffffffffffffff021916908373ffffffffffffffffffffffffffffffffffffffff1602179055506112216001600b60003373ffffffffffffffffffffffffffffffffffffffff1673ffffffffffffffffffffffffffffffffffffffff16815260200190815260200160002054612b3d90919063ffffffff16565b600b60003373ffffffffffffffffffffffffffffffffffffffff1673ffffffffffffffffffffffffffffffffffffffff168152602001908152602001600020819055506112b76001600c60008a73ffffffffffffffffffffffffffffffffffffffff1673ffffffffffffffffffffffffffffffffffffffff16815260200190815260200160002054612b3d90919063ffffffff16565b600c60008973ffffffffffffffffffffffffffffffffffffffff1673ffffffffffffffffffffffffffffffffffffffff168152602001908152602001600020819055507fdd99a654cef3d7d04265cbed186b2898d64a57945f525288bdd7050c0aebd0cd818860405161132b929190614445565b60405180910390a161133e600188611a33565b50806113499061446e565b9050610fba565b505050505050565b60106020528060005260406000206000915054906101000a900473ffffffffffffffffffffffffffffffffffffffff1681565b600f6020528060005260406000206000915090505481565b6113be838383604051806020016040528060008152506121c9565b505050565b600d6020528060005260406000206000915090508060000154908060010154905082565b60606000600c60008473ffffffffffffffffffffffffffffffffffffffff1673ffffffffffffffffffffffffffffffffffffffff1681526020019081526020016000205467ffffffffffffffff81111561144457611443613e88565b5b6040519080825280602002602001820160405280156114725781602001602082028036833780820191505090505b5090506000805b60078054905081101561152e578473ffffffffffffffffffffffffffffffffffffffff16600a600083815260200190815260200160002060009054906101000a900473ffffffffffffffffffffffffffffffffffffffff1673ffffffffffffffffffffffffffffffffffffffff160361151b5780838381518110611500576114ff6144b6565b5b60200260200101818152505081806115179061446e565b9250505b80806115269061446e565b915050611479565b508192505050919050565b601360009054906101000a900460ff1681565b60008061155883612b69565b9050600073ffffffffffffffffffffffffffffffffffffffff168173ffffffffffffffffffffffffffffffffffffffff16036115c9576040517f08c379a00000000000000000000000000000000000000000000000000000000081526004016115c090614531565b60405180910390fd5b80915050919050565b606060008060008060006115e4612ba6565b90506000815167ffffffffffffffff81111561160357611602613e88565b5b6040519080825280602002602001820160405280156116315781602001602082028036833780820191505090505b50905060005b82518110156117745760005b83518110156116cb5782818151811061165f5761165e6144b6565b5b602002602001015173ffffffffffffffffffffffffffffffffffffffff168483815181106116905761168f6144b6565b5b602002602001015173ffffffffffffffffffffffffffffffffffffffff16036116b857600197505b80806116c39061446e565b915050611643565b50600015158715150361175d578281815181106116eb576116ea6144b6565b5b6020026020010151828781518110611706576117056144b6565b5b602002602001019073ffffffffffffffffffffffffffffffffffffffff16908173ffffffffffffffffffffffffffffffffffffffff1681525050858061174b9061446e565b96505083806117599061446e565b9450505b60009650808061176c9061446e565b915050611637565b5060008367ffffffffffffffff81111561179157611790613e88565b5b6040519080825280602002602001820160405280156117bf5781602001602082028036833780820191505090505b50905060005b83518110156118f35760005b85811015611858578281815181106117ec576117eb6144b6565b5b602002602001015173ffffffffffffffffffffffffffffffffffffffff1685838151811061181d5761181c6144b6565b5b602002602001015173ffffffffffffffffffffffffffffffffffffffff160361184557600198505b80806118509061446e565b9150506117d1565b5060001515881515036118dc57838181518110611878576118776144b6565b5b6020026020010151828781518110611893576118926144b6565b5b602002602001019073ffffffffffffffffffffffffffffffffffffffff16908173ffffffffffffffffffffffffffffffffffffffff168152505085806118d89061446e565b9650505b6000975080806118eb9061446e565b9150506117c5565b508097505050505050505090565b60008073ffffffffffffffffffffffffffffffffffffffff168273ffffffffffffffffffffffffffffffffffffffff1603611971576040517f08c379a0000000000000000000000000000000000000000000000000000000008152600401611968906145c3565b60405180910390fd5b600360008373ffffffffffffffffffffffffffffffffffffffff1673ffffffffffffffffffffffffffffffffffffffff168152602001908152602001600020549050919050565b60125481565b6119c6612731565b6119d06000612cb6565b565b600e6020528060005260406000206000915054906101000a900460ff1681565b6000600660009054906101000a900473ffffffffffffffffffffffffffffffffffffffff16905090565b600a81565b611a29612731565b8060118190555050565b601360009054906101000a900460ff16611a82576040517f08c379a0000000000000000000000000000000000000000000000000000000008152600401611a799061462f565b60405180910390fd5b600a821115611ac6576040517f08c379a0000000000000000000000000000000000000000000000000000000008152600401611abd906146c1565b60405180910390fd5b600a82600f60003373ffffffffffffffffffffffffffffffffffffffff1673ffffffffffffffffffffffffffffffffffffffff16815260200190815260200160002054611b1391906146e1565b1115611b54576040517f08c379a0000000000000000000000000000000000000000000000000000000008152600401611b4b90614761565b60405180910390fd5b600060145490506127108382611b6a91906146e1565b1115611bab576040517f08c379a0000000000000000000000000000000000000000000000000000000008152600401611ba2906147cd565b60405180910390fd5b3460115484611bba91906147ed565b1115611bfb576040517f08c379a0000000000000000000000000000000000000000000000000000000008152600401611bf29061487b565b60405180910390fd5b6000600190505b838111611c2f57611c1e338284611c1991906146e1565b612d7c565b80611c289061446e565b9050611c02565b5082600f60008473ffffffffffffffffffffffffffffffffffffffff1673ffffffffffffffffffffffffffffffffffffffff1681526020019081526020016000206000828254611c7f91906146e1565b9250508190555060126000815480929190611c999061446e565b91905055503360106000601254815260200190815260200160002060006101000a81548173ffffffffffffffffffffffffffffffffffffffff021916908373ffffffffffffffffffffffffffffffffffffffff1602179055508260146000828254611d0491906146e1565b92505081905550505050565b606060018054611d1f906141fb565b80601f0160208091040260200160405190810160405280929190818152602001828054611d4b906141fb565b8015611d985780601f10611d6d57610100808354040283529160200191611d98565b820191906000526020600020905b815481529060010190602001808311611d7b57829003601f168201915b5050505050905090565b60606000806000806000611db4612d9a565b90506000815167ffffffffffffffff811115611dd357611dd2613e88565b5b604051908082528060200260200182016040528015611e015781602001602082028036833780820191505090505b50905060005b8251811015611f445760005b8351811015611e9b57828181518110611e2f57611e2e6144b6565b5b602002602001015173ffffffffffffffffffffffffffffffffffffffff16848381518110611e6057611e5f6144b6565b5b602002602001015173ffffffffffffffffffffffffffffffffffffffff1603611e8857600197505b8080611e939061446e565b915050611e13565b506000151587151503611f2d57828181518110611ebb57611eba6144b6565b5b6020026020010151828781518110611ed657611ed56144b6565b5b602002602001019073ffffffffffffffffffffffffffffffffffffffff16908173ffffffffffffffffffffffffffffffffffffffff16815250508580611f1b9061446e565b9650508380611f299061446e565b9450505b600096508080611f3c9061446e565b915050611e07565b5060008367ffffffffffffffff811115611f6157611f60613e88565b5b604051908082528060200260200182016040528015611f8f5781602001602082028036833780820191505090505b50905060005b83518110156120c35760005b8581101561202857828181518110611fbc57611fbb6144b6565b5b602002602001015173ffffffffffffffffffffffffffffffffffffffff16858381518110611fed57611fec6144b6565b5b602002602001015173ffffffffffffffffffffffffffffffffffffffff160361201557600198505b80806120209061446e565b915050611fa1565b5060001515881515036120ac57838181518110612048576120476144b6565b5b6020026020010151828781518110612063576120626144b6565b5b602002602001019073ffffffffffffffffffffffffffffffffffffffff16908173ffffffffffffffffffffffffffffffffffffffff168152505085806120a89061446e565b9650505b6000975080806120bb9061446e565b915050611f95565b508097505050505050505090565b601580546120de906141fb565b80601f016020809104026020016040519081016040528092919081815260200182805461210a906141fb565b80156121575780601f1061212c57610100808354040283529160200191612157565b820191906000526020600020905b81548152906001019060200180831161213a57829003601f168201915b505050505081565b60115481565b61216d612731565b806015908161217c9190614a47565b5050565b61219261218b612670565b8383612eaa565b5050565b60096020528060005260406000206000915054906101000a900473ffffffffffffffffffffffffffffffffffffffff1681565b6121da6121d4612670565b836127af565b612219576040517f08c379a0000000000000000000000000000000000000000000000000000000008152600401612210906143c2565b60405180910390fd5b61222584848484613016565b50505050565b606061223682612625565b6000612240613072565b90506000815111612260576040518060200160405280600081525061228b565b8061226a84613089565b60405160200161227b929190614b55565b6040516020818303038152906040525b915050919050565b6000600f60008373ffffffffffffffffffffffffffffffffffffffff1673ffffffffffffffffffffffffffffffffffffffff168152602001908152602001600020549050919050565b60606000600b60008473ffffffffffffffffffffffffffffffffffffffff1673ffffffffffffffffffffffffffffffffffffffff1681526020019081526020016000205467ffffffffffffffff81111561233957612338613e88565b5b6040519080825280602002602001820160405280156123675781602001602082028036833780820191505090505b5090506000805b600780549050811015612423578473ffffffffffffffffffffffffffffffffffffffff166009600083815260200190815260200160002060009054906101000a900473ffffffffffffffffffffffffffffffffffffffff1673ffffffffffffffffffffffffffffffffffffffff160361241057808383815181106123f5576123f46144b6565b5b602002602001018181525050818061240c9061446e565b9250505b808061241b9061446e565b91505061236e565b508192505050919050565b6000600560008473ffffffffffffffffffffffffffffffffffffffff1673ffffffffffffffffffffffffffffffffffffffff16815260200190815260200160002060008373ffffffffffffffffffffffffffffffffffffffff1673ffffffffffffffffffffffffffffffffffffffff16815260200190815260200160002060009054906101000a900460ff16905092915050565b6124ca612731565b80600783815481106124df576124de6144b6565b5b906000526020600020906003020160020160006101000a81548173ffffffffffffffffffffffffffffffffffffffff021916908373ffffffffffffffffffffffffffffffffffffffff1602179055505050565b61253a612731565b600073ffffffffffffffffffffffffffffffffffffffff168173ffffffffffffffffffffffffffffffffffffffff16036125a9576040517f08c379a00000000000000000000000000000000000000000000000000000000081526004016125a090614beb565b60405180910390fd5b6125b281612cb6565b50565b61271081565b60007f01ffc9a7000000000000000000000000000000000000000000000000000000007bffffffffffffffffffffffffffffffffffffffffffffffffffffffff1916827bffffffffffffffffffffffffffffffffffffffffffffffffffffffff1916149050919050565b61262e81613157565b61266d576040517f08c379a000000000000000000000000000000000000000000000000000000000815260040161266490614531565b60405180910390fd5b50565b600033905090565b816004600083815260200190815260200160002060006101000a81548173ffffffffffffffffffffffffffffffffffffffff021916908373ffffffffffffffffffffffffffffffffffffffff160217905550808273ffffffffffffffffffffffffffffffffffffffff166126eb8361154c565b73ffffffffffffffffffffffffffffffffffffffff167f8c5be1e5ebec7d5bd14f71427d1e84f3dd0314c0f7b2291e5b200ac8c7c3b92560405160405180910390a45050565b612739612670565b73ffffffffffffffffffffffffffffffffffffffff166127576119f2565b73ffffffffffffffffffffffffffffffffffffffff16146127ad576040517f08c379a00000000000000000000000000000000000000000000000000000000081526004016127a490614c57565b60405180910390fd5b565b6000806127bb8361154c565b90508073ffffffffffffffffffffffffffffffffffffffff168473ffffffffffffffffffffffffffffffffffffffff1614806127fd57506127fc818561242e565b5b8061283b57508373ffffffffffffffffffffffffffffffffffffffff1661282384610c3f565b73ffffffffffffffffffffffffffffffffffffffff16145b91505092915050565b8273ffffffffffffffffffffffffffffffffffffffff166128648261154c565b73ffffffffffffffffffffffffffffffffffffffff16146128ba576040517f08c379a00000000000000000000000000000000000000000000000000000000081526004016128b190614ce9565b60405180910390fd5b600073ffffffffffffffffffffffffffffffffffffffff168273ffffffffffffffffffffffffffffffffffffffff1603612929576040517f08c379a000000000000000000000000000000000000000000000000000000000815260040161292090614d7b565b60405180910390fd5b6129368383836001613198565b8273ffffffffffffffffffffffffffffffffffffffff166129568261154c565b73ffffffffffffffffffffffffffffffffffffffff16146129ac576040517f08c379a00000000000000000000000000000000000000000000000000000000081526004016129a390614ce9565b60405180910390fd5b6004600082815260200190815260200160002060006101000a81549073ffffffffffffffffffffffffffffffffffffffff02191690556001600360008573ffffffffffffffffffffffffffffffffffffffff1673ffffffffffffffffffffffffffffffffffffffff168152602001908152602001600020600082825403925050819055506001600360008473ffffffffffffffffffffffffffffffffffffffff1673ffffffffffffffffffffffffffffffffffffffff16815260200190815260200160002060008282540192505081905550816002600083815260200190815260200160002060006101000a81548173ffffffffffffffffffffffffffffffffffffffff021916908373ffffffffffffffffffffffffffffffffffffffff160217905550808273ffffffffffffffffffffffffffffffffffffffff168473ffffffffffffffffffffffffffffffffffffffff167fddf252ad1be2c89b69c2b068fc378daa952ba7f163c4a11628f55a4df523b3ef60405160405180910390a4612b3883838360016132be565b505050565b6000808284612b4c91906146e1565b905083811015612b5f57612b5e614d9b565b5b8091505092915050565b60006002600083815260200190815260200160002060009054906101000a900473ffffffffffffffffffffffffffffffffffffffff169050919050565b6060600060078054905067ffffffffffffffff811115612bc957612bc8613e88565b5b604051908082528060200260200182016040528015612bf75781602001602082028036833780820191505090505b5090506000805b600780549050811015612cad576009600082815260200190815260200160002060009054906101000a900473ffffffffffffffffffffffffffffffffffffffff16838381518110612c5257612c516144b6565b5b602002602001019073ffffffffffffffffffffffffffffffffffffffff16908173ffffffffffffffffffffffffffffffffffffffff16815250508180612c979061446e565b9250508080612ca59061446e565b915050612bfe565b50819250505090565b6000600660009054906101000a900473ffffffffffffffffffffffffffffffffffffffff16905081600660006101000a81548173ffffffffffffffffffffffffffffffffffffffff021916908373ffffffffffffffffffffffffffffffffffffffff1602179055508173ffffffffffffffffffffffffffffffffffffffff168173ffffffffffffffffffffffffffffffffffffffff167f8be0079c531659141344cd1fd0a4f28419497f9722a3daafe3b4186f6b6457e060405160405180910390a35050565b612d968282604051806020016040528060008152506132c4565b5050565b6060600060078054905067ffffffffffffffff811115612dbd57612dbc613e88565b5b604051908082528060200260200182016040528015612deb5781602001602082028036833780820191505090505b5090506000805b600780549050811015612ea157600a600082815260200190815260200160002060009054906101000a900473ffffffffffffffffffffffffffffffffffffffff16838381518110612e4657612e456144b6565b5b602002602001019073ffffffffffffffffffffffffffffffffffffffff16908173ffffffffffffffffffffffffffffffffffffffff16815250508180612e8b9061446e565b9250508080612e999061446e565b915050612df2565b50819250505090565b8173ffffffffffffffffffffffffffffffffffffffff168373ffffffffffffffffffffffffffffffffffffffff1603612f18576040517f08c379a0000000000000000000000000000000000000000000000000000000008152600401612f0f90614e16565b60405180910390fd5b80600560008573ffffffffffffffffffffffffffffffffffffffff1673ffffffffffffffffffffffffffffffffffffffff16815260200190815260200160002060008473ffffffffffffffffffffffffffffffffffffffff1673ffffffffffffffffffffffffffffffffffffffff16815260200190815260200160002060006101000a81548160ff0219169083151502179055508173ffffffffffffffffffffffffffffffffffffffff168373ffffffffffffffffffffffffffffffffffffffff167f17307eab39ab6107e8899845ad3d59bd9653f200f220920489ca2b5937696c31836040516130099190613907565b60405180910390a3505050565b613021848484612844565b61302d8484848461331f565b61306c576040517f08c379a000000000000000000000000000000000000000000000000000000000815260040161306390614ea8565b60405180910390fd5b50505050565b606060405180602001604052806000815250905090565b606060006001613098846134a6565b01905060008167ffffffffffffffff8111156130b7576130b6613e88565b5b6040519080825280601f01601f1916602001820160405280156130e95781602001600182028036833780820191505090505b509050600082602001820190505b60011561314c578080600190039150507f3031323334353637383961626364656600000000000000000000000000000000600a86061a8153600a85816131405761313f614ec8565b5b049450600085036130f7575b819350505050919050565b60008073ffffffffffffffffffffffffffffffffffffffff1661317983612b69565b73ffffffffffffffffffffffffffffffffffffffff1614159050919050565b60018111156132b857600073ffffffffffffffffffffffffffffffffffffffff168473ffffffffffffffffffffffffffffffffffffffff161461322c5780600360008673ffffffffffffffffffffffffffffffffffffffff1673ffffffffffffffffffffffffffffffffffffffff16815260200190815260200160002060008282546132249190614411565b925050819055505b600073ffffffffffffffffffffffffffffffffffffffff168373ffffffffffffffffffffffffffffffffffffffff16146132b75780600360008573ffffffffffffffffffffffffffffffffffffffff1673ffffffffffffffffffffffffffffffffffffffff16815260200190815260200160002060008282546132af91906146e1565b925050819055505b5b50505050565b50505050565b6132ce83836135f9565b6132db600084848461331f565b61331a576040517f08c379a000000000000000000000000000000000000000000000000000000000815260040161331190614ea8565b60405180910390fd5b505050565b60006133408473ffffffffffffffffffffffffffffffffffffffff16613816565b15613499578373ffffffffffffffffffffffffffffffffffffffff1663150b7a02613369612670565b8786866040518563ffffffff1660e01b815260040161338b9493929190614f4c565b6020604051808303816000875af19250505080156133c757506040513d601f19601f820116820180604052508101906133c49190614fad565b60015b613449573d80600081146133f7576040519150601f19603f3d011682016040523d82523d6000602084013e6133fc565b606091505b506000815103613441576040517f08c379a000000000000000000000000000000000000000000000000000000000815260040161343890614ea8565b60405180910390fd5b805181602001fd5b63150b7a0260e01b7bffffffffffffffffffffffffffffffffffffffffffffffffffffffff1916817bffffffffffffffffffffffffffffffffffffffffffffffffffffffff19161491505061349e565b600190505b949350505050565b600080600090507a184f03e93ff9f4daa797ed6e38ed64bf6a1f0100000000000000008310613504577a184f03e93ff9f4daa797ed6e38ed64bf6a1f01000000000000000083816134fa576134f9614ec8565b5b0492506040810190505b6d04ee2d6d415b85acef81000000008310613541576d04ee2d6d415b85acef8100000000838161353757613536614ec8565b5b0492506020810190505b662386f26fc10000831061357057662386f26fc10000838161356657613565614ec8565b5b0492506010810190505b6305f5e1008310613599576305f5e100838161358f5761358e614ec8565b5b0492506008810190505b61271083106135be5761271083816135b4576135b3614ec8565b5b0492506004810190505b606483106135e157606483816135d7576135d6614ec8565b5b0492506002810190505b600a83106135f0576001810190505b80915050919050565b600073ffffffffffffffffffffffffffffffffffffffff168273ffffffffffffffffffffffffffffffffffffffff1603613668576040517f08c379a000000000000000000000000000000000000000000000000000000000815260040161365f90615026565b60405180910390fd5b61367181613157565b156136b1576040517f08c379a00000000000000000000000000000000000000000000000000000000081526004016136a890615092565b60405180910390fd5b6136bf600083836001613198565b6136c881613157565b15613708576040517f08c379a00000000000000000000000000000000000000000000000000000000081526004016136ff90615092565b60405180910390fd5b6001600360008473ffffffffffffffffffffffffffffffffffffffff1673ffffffffffffffffffffffffffffffffffffffff16815260200190815260200160002060008282540192505081905550816002600083815260200190815260200160002060006101000a81548173ffffffffffffffffffffffffffffffffffffffff021916908373ffffffffffffffffffffffffffffffffffffffff160217905550808273ffffffffffffffffffffffffffffffffffffffff16600073ffffffffffffffffffffffffffffffffffffffff167fddf252ad1be2c89b69c2b068fc378daa952ba7f163c4a11628f55a4df523b3ef60405160405180910390a46138126000838360016132be565b5050565b6000808273ffffffffffffffffffffffffffffffffffffffff163b119050919050565b604051806040016040528060008152602001600081525090565b6000604051905090565b600080fd5b600080fd5b60007fffffffff0000000000000000000000000000000000000000000000000000000082169050919050565b61389c81613867565b81146138a757600080fd5b50565b6000813590506138b981613893565b92915050565b6000602082840312156138d5576138d461385d565b5b60006138e3848285016138aa565b91505092915050565b60008115159050919050565b613901816138ec565b82525050565b600060208201905061391c60008301846138f8565b92915050565b600081519050919050565b600082825260208201905092915050565b60005b8381101561395c578082015181840152602081019050613941565b60008484015250505050565b6000601f19601f8301169050919050565b600061398482613922565b61398e818561392d565b935061399e81856020860161393e565b6139a781613968565b840191505092915050565b600060208201905081810360008301526139cc8184613979565b905092915050565b6000819050919050565b6139e7816139d4565b81146139f257600080fd5b50565b600081359050613a04816139de565b92915050565b600060208284031215613a2057613a1f61385d565b5b6000613a2e848285016139f5565b91505092915050565b600073ffffffffffffffffffffffffffffffffffffffff82169050919050565b6000613a6282613a37565b9050919050565b613a7281613a57565b82525050565b6000602082019050613a8d6000830184613a69565b92915050565b613a9c81613a57565b8114613aa757600080fd5b50565b600081359050613ab981613a93565b92915050565b60008060408385031215613ad657613ad561385d565b5b6000613ae485828601613aaa565b9250506020613af5858286016139f5565b9150509250929050565b600060208284031215613b1557613b1461385d565b5b6000613b2384828501613aaa565b91505092915050565b613b35816139d4565b82525050565b6000602082019050613b506000830184613b2c565b92915050565b600080600060608486031215613b6f57613b6e61385d565b5b6000613b7d86828701613aaa565b9350506020613b8e86828701613aaa565b9250506040613b9f868287016139f5565b9150509250925092565b6000608082019050613bbe6000830187613b2c565b613bcb6020830186613a69565b613bd86040830185613a69565b613be560608301846138f8565b95945050505050565b60008060008060808587031215613c0857613c0761385d565b5b6000613c1687828801613aaa565b9450506020613c27878288016139f5565b9350506040613c38878288016139f5565b9250506060613c49878288016139f5565b91505092959194509250565b6000604082019050613c6a6000830185613b2c565b613c776020830184613b2c565b9392505050565b600081519050919050565b600082825260208201905092915050565b6000819050602082019050919050565b613cb3816139d4565b82525050565b6000613cc58383613caa565b60208301905092915050565b6000602082019050919050565b6000613ce982613c7e565b613cf38185613c89565b9350613cfe83613c9a565b8060005b83811015613d2f578151613d168882613cb9565b9750613d2183613cd1565b925050600181019050613d02565b5085935050505092915050565b60006020820190508181036000830152613d568184613cde565b905092915050565b600081519050919050565b600082825260208201905092915050565b6000819050602082019050919050565b613d9381613a57565b82525050565b6000613da58383613d8a565b60208301905092915050565b6000602082019050919050565b6000613dc982613d5e565b613dd38185613d69565b9350613dde83613d7a565b8060005b83811015613e0f578151613df68882613d99565b9750613e0183613db1565b925050600181019050613de2565b5085935050505092915050565b60006020820190508181036000830152613e368184613dbe565b905092915050565b60008060408385031215613e5557613e5461385d565b5b6000613e63858286016139f5565b9250506020613e7485828601613aaa565b9150509250929050565b600080fd5b600080fd5b7f4e487b7100000000000000000000000000000000000000000000000000000000600052604160045260246000fd5b613ec082613968565b810181811067ffffffffffffffff82111715613edf57613ede613e88565b5b80604052505050565b6000613ef2613853565b9050613efe8282613eb7565b919050565b600067ffffffffffffffff821115613f1e57613f1d613e88565b5b613f2782613968565b9050602081019050919050565b82818337600083830152505050565b6000613f56613f5184613f03565b613ee8565b905082815260208101848484011115613f7257613f71613e83565b5b613f7d848285613f34565b509392505050565b600082601f830112613f9a57613f99613e7e565b5b8135613faa848260208601613f43565b91505092915050565b600060208284031215613fc957613fc861385d565b5b600082013567ffffffffffffffff811115613fe757613fe6613862565b5b613ff384828501613f85565b91505092915050565b614005816138ec565b811461401057600080fd5b50565b60008135905061402281613ffc565b92915050565b6000806040838503121561403f5761403e61385d565b5b600061404d85828601613aaa565b925050602061405e85828601614013565b9150509250929050565b600067ffffffffffffffff82111561408357614082613e88565b5b61408c82613968565b9050602081019050919050565b60006140ac6140a784614068565b613ee8565b9050828152602081018484840111156140c8576140c7613e83565b5b6140d3848285613f34565b509392505050565b600082601f8301126140f0576140ef613e7e565b5b8135614100848260208601614099565b91505092915050565b600080600080608085870312156141235761412261385d565b5b600061413187828801613aaa565b945050602061414287828801613aaa565b9350506040614153878288016139f5565b925050606085013567ffffffffffffffff81111561417457614173613862565b5b614180878288016140db565b91505092959194509250565b600080604083850312156141a3576141a261385d565b5b60006141b185828601613aaa565b92505060206141c285828601613aaa565b9150509250929050565b7f4e487b7100000000000000000000000000000000000000000000000000000000600052602260045260246000fd5b6000600282049050600182168061421357607f821691505b602082108103614226576142256141cc565b5b50919050565b7f4552433732313a20617070726f76616c20746f2063757272656e74206f776e6560008201527f7200000000000000000000000000000000000000000000000000000000000000602082015250565b600061428860218361392d565b91506142938261422c565b604082019050919050565b600060208201905081810360008301526142b78161427b565b9050919050565b7f4552433732313a20617070726f76652063616c6c6572206973206e6f7420746f60008201527f6b656e206f776e6572206f7220617070726f76656420666f7220616c6c000000602082015250565b600061431a603d8361392d565b9150614325826142be565b604082019050919050565b600060208201905081810360008301526143498161430d565b9050919050565b7f4552433732313a2063616c6c6572206973206e6f7420746f6b656e206f776e6560008201527f72206f7220617070726f76656400000000000000000000000000000000000000602082015250565b60006143ac602d8361392d565b91506143b782614350565b604082019050919050565b600060208201905081810360008301526143db8161439f565b9050919050565b7f4e487b7100000000000000000000000000000000000000000000000000000000600052601160045260246000fd5b600061441c826139d4565b9150614427836139d4565b925082820390508181111561443f5761443e6143e2565b5b92915050565b600060408201905061445a6000830185613b2c565b6144676020830184613a69565b9392505050565b6000614479826139d4565b91507fffffffffffffffffffffffffffffffffffffffffffffffffffffffffffffffff82036144ab576144aa6143e2565b5b600182019050919050565b7f4e487b7100000000000000000000000000000000000000000000000000000000600052603260045260246000fd5b7f4552433732313a20696e76616c696420746f6b656e2049440000000000000000600082015250565b600061451b60188361392d565b9150614526826144e5565b602082019050919050565b6000602082019050818103600083015261454a8161450e565b9050919050565b7f4552433732313a2061646472657373207a65726f206973206e6f74206120766160008201527f6c6964206f776e65720000000000000000000000000000000000000000000000602082015250565b60006145ad60298361392d565b91506145b882614551565b604082019050919050565b600060208201905081810360008301526145dc816145a0565b9050919050565b7f5468652073616c65206973207061757365642e00000000000000000000000000600082015250565b600061461960138361392d565b9150614624826145e3565b602082019050919050565b600060208201905081810360008301526146488161460c565b9050919050565b7f596f752063616e6e6f74206d696e742074686174206d616e7920696e206f6e6560008201527f207472616e73616374696f6e2e00000000000000000000000000000000000000602082015250565b60006146ab602d8361392d565b91506146b68261464f565b604082019050919050565b600060208201905081810360008301526146da8161469e565b9050919050565b60006146ec826139d4565b91506146f7836139d4565b925082820190508082111561470f5761470e6143e2565b5b92915050565b7f596f752063616e6e6f74206d696e742074686174206d616e7920746f74616c2e600082015250565b600061474b60208361392d565b915061475682614715565b602082019050919050565b6000602082019050818103600083015261477a8161473e565b9050919050565b7f4578636565647320746f74616c20737570706c792e0000000000000000000000600082015250565b60006147b760158361392d565b91506147c282614781565b602082019050919050565b600060208201905081810360008301526147e6816147aa565b9050919050565b60006147f8826139d4565b9150614803836139d4565b9250828202614811816139d4565b91508282048414831517614828576148276143e2565b5b5092915050565b7f496e73756666696369656e742066756e64732e00000000000000000000000000600082015250565b600061486560138361392d565b91506148708261482f565b602082019050919050565b6000602082019050818103600083015261489481614858565b9050919050565b60008190508160005260206000209050919050565b60006020601f8301049050919050565b600082821b905092915050565b6000600883026148fd7fffffffffffffffffffffffffffffffffffffffffffffffffffffffffffffffff826148c0565b61490786836148c0565b95508019841693508086168417925050509392505050565b6000819050919050565b600061494461493f61493a846139d4565b61491f565b6139d4565b9050919050565b6000819050919050565b61495e83614929565b61497261496a8261494b565b8484546148cd565b825550505050565b600090565b61498761497a565b614992818484614955565b505050565b5b818110156149b6576149ab60008261497f565b600181019050614998565b5050565b601f8211156149fb576149cc8161489b565b6149d5846148b0565b810160208510156149e4578190505b6149f86149f0856148b0565b830182614997565b50505b505050565b600082821c905092915050565b6000614a1e60001984600802614a00565b1980831691505092915050565b6000614a378383614a0d565b9150826002028217905092915050565b614a5082613922565b67ffffffffffffffff811115614a6957614a68613e88565b5b614a7382546141fb565b614a7e8282856149ba565b600060209050601f831160018114614ab15760008415614a9f578287015190505b614aa98582614a2b565b865550614b11565b601f198416614abf8661489b565b60005b82811015614ae757848901518255600182019150602085019450602081019050614ac2565b86831015614b045784890151614b00601f891682614a0d565b8355505b6001600288020188555050505b505050505050565b600081905092915050565b6000614b2f82613922565b614b398185614b19565b9350614b4981856020860161393e565b80840191505092915050565b6000614b618285614b24565b9150614b6d8284614b24565b91508190509392505050565b7f4f776e61626c653a206e6577206f776e657220697320746865207a65726f206160008201527f6464726573730000000000000000000000000000000000000000000000000000602082015250565b6000614bd560268361392d565b9150614be082614b79565b604082019050919050565b60006020820190508181036000830152614c0481614bc8565b9050919050565b7f4f776e61626c653a2063616c6c6572206973206e6f7420746865206f776e6572600082015250565b6000614c4160208361392d565b9150614c4c82614c0b565b602082019050919050565b60006020820190508181036000830152614c7081614c34565b9050919050565b7f4552433732313a207472616e736665722066726f6d20696e636f72726563742060008201527f6f776e6572000000000000000000000000000000000000000000000000000000602082015250565b6000614cd360258361392d565b9150614cde82614c77565b604082019050919050565b60006020820190508181036000830152614d0281614cc6565b9050919050565b7f4552433732313a207472616e7366657220746f20746865207a65726f2061646460008201527f7265737300000000000000000000000000000000000000000000000000000000602082015250565b6000614d6560248361392d565b9150614d7082614d09565b604082019050919050565b60006020820190508181036000830152614d9481614d58565b9050919050565b7f4e487b7100000000000000000000000000000000000000000000000000000000600052600160045260246000fd5b7f4552433732313a20617070726f766520746f2063616c6c657200000000000000600082015250565b6000614e0060198361392d565b9150614e0b82614dca565b602082019050919050565b60006020820190508181036000830152614e2f81614df3565b9050919050565b7f4552433732313a207472616e7366657220746f206e6f6e20455243373231526560008201527f63656976657220696d706c656d656e7465720000000000000000000000000000602082015250565b6000614e9260328361392d565b9150614e9d82614e36565b604082019050919050565b60006020820190508181036000830152614ec181614e85565b9050919050565b7f4e487b7100000000000000000000000000000000000000000000000000000000600052601260045260246000fd5b600081519050919050565b600082825260208201905092915050565b6000614f1e82614ef7565b614f288185614f02565b9350614f3881856020860161393e565b614f4181613968565b840191505092915050565b6000608082019050614f616000830187613a69565b614f6e6020830186613a69565b614f7b6040830185613b2c565b8181036060830152614f8d8184614f13565b905095945050505050565b600081519050614fa781613893565b92915050565b600060208284031215614fc357614fc261385d565b5b6000614fd184828501614f98565b91505092915050565b7f4552433732313a206d696e7420746f20746865207a65726f2061646472657373600082015250565b600061501060208361392d565b915061501b82614fda565b602082019050919050565b6000602082019050818103600083015261503f81615003565b9050919050565b7f4552433732313a20746f6b656e20616c7265616479206d696e74656400000000600082015250565b600061507c601c8361392d565b915061508782615046565b602082019050919050565b600060208201905081810360008301526150ab8161506f565b905091905056fea26469706673582212209358c1483ea054e8ff58d43308058bb560e57b9ca14d7a09da0477276ab1f39564736f6c63430008110033697066733a2f2f78787878787878787878787878787878787878787878787878787878782f",
  "immutableReferences": {},
  "source": "// SPDX-License-Identifier: UNIBO\npragma solidity ^0.8.0;\n\nimport \"./packfactory.sol\";\n\ncontract PackHelper is PackFactory {\n\n  uint deliveringFee = 0.001 ether;\n\n  modifier onlyOwnerOf(uint _packId) {\n    require(msg.sender == packToSender[_packId]);\n    _;\n  }\n\n\n  function setDeliveringFee(uint _fee) external onlyOwner {\n    deliveringFee = _fee;\n  }\n\n\n  function changeReceiver(uint _packId, address _newReceiver) external onlyOwner {\n    container[_packId].receiver = _newReceiver;\n  }\n\n  //restituisce i pacchiId dei sender\n  function getPacksBySender(address _sender) external view returns(uint[] memory) {\n    uint[] memory result = new uint[](senderPackCount[_sender]);\n    uint counter = 0;\n    for (uint i = 0; i < container.length; i++) {\n      if (packToSender[i] == _sender) {\n        result[counter] = i;\n        counter++;\n      }\n    }\n    return result;\n  }\n\n  //restituisce i pacchiId dei receiver\n  function getPacksByReceiver(address _receiver) external view returns(uint[] memory) {\n    uint[] memory result = new uint[](receiverPackCount[_receiver]);\n    uint counter = 0;\n    for (uint i = 0; i < container.length; i++) {\n      if (packToReceiver[i] == _receiver) {\n        result[counter] = i;\n        counter++;\n      }\n    }\n    return result;\n  }\n\n  //restituisce anche doppioni, funzioni sotto consentono di avere array con valori unici (costa per di pi). \n  //Pu servire x il futuro nel caso andiamo a scrivere un array andando a scrivere meno dati su blockchain\n  function getAddressSenderDouble() internal view returns(address [] memory) {\n    address[] memory result = new address[](container.length);\n    uint counter = 0;\n    for (uint i = 0; i < container.length; i++) {\n        result[counter] = packToSender[i];\n        counter++;\n      }\n      return result;\n    }\n\n  //restituisce anche doppioni, funzioni sotto consentono di avere array con valori unici (costa per di pi)\n  //Pu servire x il futuro nel caso andiamo a scrivere un array andando a scrivere meno dati su blockchain\n  function getAddressReceiverDouble() internal view returns(address[] memory) {\n    address[] memory result = new address[](container.length);\n    uint counter = 0;\n    for (uint i = 0; i < container.length; i++) {\n        result[counter] = packToReceiver[i];\n        counter++;\n      }\n  \n    return result;\n  }\n\n  //restituisce indirizzi unici senza doppioni. costosa ma utile in ottica futura\n  function getAddressSender() external view returns(address[] memory) {\n      bool doppio = false;\n\t\t  uint count = 0;\n      uint counter = 0;\n      uint dim = 0;\n\t\t  address[] memory array = getAddressSenderDouble();\t\t  \n      address[] memory temp = new address[](array.length);\n      for(uint i = 0; i < array.length ; i++) {\n\t\t\t  for(uint j = 0; j < array.length; j++) {\n\t\t\t\t  if(array[i] == temp[j]) {\n\t\t\t\t\t  doppio = true;\n            }\n\t\t\t\t  }\n\t\t\t\t  if(doppio == false) {\n            temp[count] = array[i];\n            count++;\n\t\t\t\t\t  dim++;\t\n\t\t\t    }\n\t\t\t    doppio = false;\n\t\t\t}\n      address[] memory result = new address[](dim);\n        for(uint i = 0; i < array.length ; i++) {\n\t\t\t    for(uint j = 0; j < dim; j++) {\n\t\t\t\t    if(array[i] == result[j]) {\n\t\t\t\t\t    doppio = true;\n              }\n\t\t\t\t    }\n\t\t\t\t    if(doppio == false) {\n              result[counter] = array[i];\n\t\t\t\t\t    counter++;\t\n\t\t\t    \t}\n\t\t\t      doppio = false;\n\t\t\t\t  }\n\t\t  return result;\n    }\n\n\n  //restituisce indirizzi unici senza doppioni. costosa ma utile in ottica futura\n  function getAddressReceiver() public view returns(address[] memory) {\n    bool doppio = false;\n\t\tuint count = 0;\n    uint counter = 0;\n    uint dim = 0;\n\t\taddress[] memory array = getAddressReceiverDouble();\t\t  \n    address[] memory temp = new address[](array.length);\n    for(uint i = 0; i < array.length ; i++) {\n\t\t\tfor(uint j = 0; j < array.length; j++) {\n\t\t\t\tif(array[i] == temp[j]) {\n\t\t\t\t\tdoppio = true;\n          }\n\t\t\t\t}\n\t\t\t\tif(doppio == false) {\n          temp[count] = array[i];\n          count++;\n\t\t\t\t\tdim++;\t\n\t\t\t  }\n\t\t\t  doppio = false;\n\t\t}\n    address[] memory result = new address[](dim);\n      for(uint i = 0; i < array.length ; i++) {\n\t\t\t  for(uint j = 0; j < dim; j++) {\n\t\t\t\t  if(array[i] == result[j]) {\n\t\t\t\t\t  doppio = true;\n            }\n\t\t\t\t  }\n\t\t\t\t  if(doppio == false) {\n            result[counter] = array[i];\n\t\t\t\t\t  counter++;\t\n\t\t\t    }\n\t\t\t    doppio = false;\n\t\t\t\t}\n\t\treturn result;\n  }\n  \n}",
  "sourcePath": "/Users/luigidinuzzo/Desktop/smart-pack/contracts/packhelper.sol",
  "compiler": {
    "name": "solc",
    "version": "0.8.17+commit.8df45f5f.Emscripten.clang"
  },
  "schemaVersion": "3.4.10",
  "updatedAt": "2022-11-22T17:22:12.446Z",
  "devdoc": {
    "kind": "dev",
    "methods": {
      "approve(address,uint256)": {
        "details": "See {IERC721-approve}."
      },
      "balanceOf(address)": {
        "details": "See {IERC721-balanceOf}."
      },
      "getApproved(uint256)": {
        "details": "See {IERC721-getApproved}."
      },
      "isApprovedForAll(address,address)": {
        "details": "See {IERC721-isApprovedForAll}."
      },
      "name()": {
        "details": "See {IERC721Metadata-name}."
      },
      "owner()": {
        "details": "Returns the address of the current owner."
      },
      "ownerOf(uint256)": {
        "details": "See {IERC721-ownerOf}."
      },
      "renounceOwnership()": {
        "details": "Leaves the contract without owner. It will not be possible to call `onlyOwner` functions anymore. Can only be called by the current owner. NOTE: Renouncing ownership will leave the contract without an owner, thereby removing any functionality that is only available to the owner."
      },
      "safeTransferFrom(address,address,uint256)": {
        "details": "See {IERC721-safeTransferFrom}."
      },
      "safeTransferFrom(address,address,uint256,bytes)": {
        "details": "See {IERC721-safeTransferFrom}."
      },
      "setApprovalForAll(address,bool)": {
        "details": "See {IERC721-setApprovalForAll}."
      },
      "supportsInterface(bytes4)": {
        "details": "See {IERC165-supportsInterface}."
      },
      "symbol()": {
        "details": "See {IERC721Metadata-symbol}."
      },
      "tokenURI(uint256)": {
        "details": "See {IERC721Metadata-tokenURI}."
      },
      "transferFrom(address,address,uint256)": {
        "details": "See {IERC721-transferFrom}."
      },
      "transferOwnership(address)": {
        "details": "Transfers ownership of the contract to a new account (`newOwner`). Can only be called by the current owner."
      }
    },
    "version": 1
  },
  "userdoc": {
    "kind": "user",
    "methods": {},
    "version": 1
  }
}