{
  "contractName": "PackDeliver",
  "abi": [
    {
      "anonymous": false,
      "inputs": [
        {
          "indexed": true,
          "internalType": "address",
          "name": "owner",
          "type": "address"
        },
        {
          "indexed": true,
          "internalType": "address",
          "name": "approved",
          "type": "address"
        },
        {
          "indexed": true,
          "internalType": "uint256",
          "name": "tokenId",
          "type": "uint256"
        }
      ],
      "name": "Approval",
      "type": "event"
    },
    {
      "anonymous": false,
      "inputs": [
        {
          "indexed": true,
          "internalType": "address",
          "name": "owner",
          "type": "address"
        },
        {
          "indexed": true,
          "internalType": "address",
          "name": "operator",
          "type": "address"
        },
        {
          "indexed": false,
          "internalType": "bool",
          "name": "approved",
          "type": "bool"
        }
      ],
      "name": "ApprovalForAll",
      "type": "event"
    },
    {
      "anonymous": false,
      "inputs": [
        {
          "indexed": false,
          "internalType": "uint256",
          "name": "packId",
          "type": "uint256"
        },
        {
          "indexed": false,
          "internalType": "address",
          "name": "receiver",
          "type": "address"
        }
      ],
      "name": "NewPack",
      "type": "event"
    },
    {
      "anonymous": false,
      "inputs": [
        {
          "indexed": true,
          "internalType": "address",
          "name": "previousOwner",
          "type": "address"
        },
        {
          "indexed": true,
          "internalType": "address",
          "name": "newOwner",
          "type": "address"
        }
      ],
      "name": "OwnershipTransferred",
      "type": "event"
    },
    {
      "anonymous": false,
      "inputs": [
        {
          "indexed": true,
          "internalType": "address",
          "name": "from",
          "type": "address"
        },
        {
          "indexed": true,
          "internalType": "address",
          "name": "to",
          "type": "address"
        },
        {
          "indexed": true,
          "internalType": "uint256",
          "name": "tokenId",
          "type": "uint256"
        }
      ],
      "name": "Transfer",
      "type": "event"
    },
    {
      "inputs": [],
      "name": "MAX_MINT_PER_TX",
      "outputs": [
        {
          "internalType": "uint256",
          "name": "",
          "type": "uint256"
        }
      ],
      "stateMutability": "view",
      "type": "function",
      "constant": true
    },
    {
      "inputs": [],
      "name": "MAX_TOKENS",
      "outputs": [
        {
          "internalType": "uint256",
          "name": "",
          "type": "uint256"
        }
      ],
      "stateMutability": "view",
      "type": "function",
      "constant": true
    },
    {
      "inputs": [
        {
          "internalType": "address",
          "name": "to",
          "type": "address"
        },
        {
          "internalType": "uint256",
          "name": "tokenId",
          "type": "uint256"
        }
      ],
      "name": "approve",
      "outputs": [],
      "stateMutability": "nonpayable",
      "type": "function"
    },
    {
      "inputs": [
        {
          "internalType": "address",
          "name": "owner",
          "type": "address"
        }
      ],
      "name": "balanceOf",
      "outputs": [
        {
          "internalType": "uint256",
          "name": "",
          "type": "uint256"
        }
      ],
      "stateMutability": "view",
      "type": "function",
      "constant": true
    },
    {
      "inputs": [],
      "name": "baseUri",
      "outputs": [
        {
          "internalType": "string",
          "name": "",
          "type": "string"
        }
      ],
      "stateMutability": "view",
      "type": "function",
      "constant": true
    },
    {
      "inputs": [
        {
          "internalType": "uint256",
          "name": "_packId",
          "type": "uint256"
        },
        {
          "internalType": "address",
          "name": "_newReceiver",
          "type": "address"
        }
      ],
      "name": "changeReceiver",
      "outputs": [],
      "stateMutability": "nonpayable",
      "type": "function"
    },
    {
      "inputs": [
        {
          "internalType": "uint256",
          "name": "",
          "type": "uint256"
        }
      ],
      "name": "container",
      "outputs": [
        {
          "internalType": "uint256",
          "name": "pCode",
          "type": "uint256"
        },
        {
          "internalType": "address",
          "name": "sender",
          "type": "address"
        },
        {
          "internalType": "address",
          "name": "receiver",
          "type": "address"
        },
        {
          "internalType": "bool",
          "name": "delivered",
          "type": "bool"
        }
      ],
      "stateMutability": "view",
      "type": "function",
      "constant": true
    },
    {
      "inputs": [
        {
          "internalType": "address",
          "name": "",
          "type": "address"
        }
      ],
      "name": "coordinateFromReceiver",
      "outputs": [
        {
          "internalType": "uint256",
          "name": "lat",
          "type": "uint256"
        },
        {
          "internalType": "uint256",
          "name": "long",
          "type": "uint256"
        }
      ],
      "stateMutability": "view",
      "type": "function",
      "constant": true
    },
    {
      "inputs": [
        {
          "internalType": "address",
          "name": "_receiver",
          "type": "address"
        },
        {
          "internalType": "uint256",
          "name": "_numTokens",
          "type": "uint256"
        },
        {
          "internalType": "uint256",
          "name": "_lat",
          "type": "uint256"
        },
        {
          "internalType": "uint256",
          "name": "_long",
          "type": "uint256"
        }
      ],
      "name": "createPack",
      "outputs": [],
      "stateMutability": "nonpayable",
      "type": "function"
    },
    {
      "inputs": [],
      "name": "flipSaleState",
      "outputs": [],
      "stateMutability": "nonpayable",
      "type": "function"
    },
    {
      "inputs": [],
      "name": "getAddressReceiver",
      "outputs": [
        {
          "internalType": "address[]",
          "name": "",
          "type": "address[]"
        }
      ],
      "stateMutability": "view",
      "type": "function",
      "constant": true
    },
    {
      "inputs": [],
      "name": "getAddressSender",
      "outputs": [
        {
          "internalType": "address[]",
          "name": "",
          "type": "address[]"
        }
      ],
      "stateMutability": "view",
      "type": "function",
      "constant": true
    },
    {
      "inputs": [
        {
          "internalType": "uint256",
          "name": "tokenId",
          "type": "uint256"
        }
      ],
      "name": "getApproved",
      "outputs": [
        {
          "internalType": "address",
          "name": "",
          "type": "address"
        }
      ],
      "stateMutability": "view",
      "type": "function",
      "constant": true
    },
    {
      "inputs": [
        {
          "internalType": "address",
          "name": "_address",
          "type": "address"
        }
      ],
      "name": "getMintedPerWallet",
      "outputs": [
        {
          "internalType": "uint256",
          "name": "",
          "type": "uint256"
        }
      ],
      "stateMutability": "view",
      "type": "function",
      "constant": true
    },
    {
      "inputs": [
        {
          "internalType": "address",
          "name": "_receiver",
          "type": "address"
        }
      ],
      "name": "getPacksByReceiver",
      "outputs": [
        {
          "internalType": "uint256[]",
          "name": "",
          "type": "uint256[]"
        }
      ],
      "stateMutability": "view",
      "type": "function",
      "constant": true
    },
    {
      "inputs": [
        {
          "internalType": "address",
          "name": "_sender",
          "type": "address"
        }
      ],
      "name": "getPacksBySender",
      "outputs": [
        {
          "internalType": "uint256[]",
          "name": "",
          "type": "uint256[]"
        }
      ],
      "stateMutability": "view",
      "type": "function",
      "constant": true
    },
    {
      "inputs": [
        {
          "internalType": "address",
          "name": "owner",
          "type": "address"
        },
        {
          "internalType": "address",
          "name": "operator",
          "type": "address"
        }
      ],
      "name": "isApprovedForAll",
      "outputs": [
        {
          "internalType": "bool",
          "name": "",
          "type": "bool"
        }
      ],
      "stateMutability": "view",
      "type": "function",
      "constant": true
    },
    {
      "inputs": [
        {
          "internalType": "uint256",
          "name": "",
          "type": "uint256"
        }
      ],
      "name": "isDeliveredMap",
      "outputs": [
        {
          "internalType": "bool",
          "name": "",
          "type": "bool"
        }
      ],
      "stateMutability": "view",
      "type": "function",
      "constant": true
    },
    {
      "inputs": [],
      "name": "isSaleActive",
      "outputs": [
        {
          "internalType": "bool",
          "name": "",
          "type": "bool"
        }
      ],
      "stateMutability": "view",
      "type": "function",
      "constant": true
    },
    {
      "inputs": [
        {
          "internalType": "uint256",
          "name": "_numTokens",
          "type": "uint256"
        },
        {
          "internalType": "address",
          "name": "_receiver",
          "type": "address"
        }
      ],
      "name": "mint",
      "outputs": [],
      "stateMutability": "payable",
      "type": "function",
      "payable": true
    },
    {
      "inputs": [
        {
          "internalType": "address",
          "name": "",
          "type": "address"
        }
      ],
      "name": "mintedPerWallet",
      "outputs": [
        {
          "internalType": "uint256",
          "name": "",
          "type": "uint256"
        }
      ],
      "stateMutability": "view",
      "type": "function",
      "constant": true
    },
    {
      "inputs": [],
      "name": "name",
      "outputs": [
        {
          "internalType": "string",
          "name": "",
          "type": "string"
        }
      ],
      "stateMutability": "view",
      "type": "function",
      "constant": true
    },
    {
      "inputs": [],
      "name": "owner",
      "outputs": [
        {
          "internalType": "address",
          "name": "",
          "type": "address"
        }
      ],
      "stateMutability": "view",
      "type": "function",
      "constant": true
    },
    {
      "inputs": [
        {
          "internalType": "uint256",
          "name": "tokenId",
          "type": "uint256"
        }
      ],
      "name": "ownerOf",
      "outputs": [
        {
          "internalType": "address",
          "name": "",
          "type": "address"
        }
      ],
      "stateMutability": "view",
      "type": "function",
      "constant": true
    },
    {
      "inputs": [
        {
          "internalType": "uint256",
          "name": "",
          "type": "uint256"
        }
      ],
      "name": "packToReceiver",
      "outputs": [
        {
          "internalType": "address",
          "name": "",
          "type": "address"
        }
      ],
      "stateMutability": "view",
      "type": "function",
      "constant": true
    },
    {
      "inputs": [
        {
          "internalType": "uint256",
          "name": "",
          "type": "uint256"
        }
      ],
      "name": "packToSender",
      "outputs": [
        {
          "internalType": "address",
          "name": "",
          "type": "address"
        }
      ],
      "stateMutability": "view",
      "type": "function",
      "constant": true
    },
    {
      "inputs": [],
      "name": "price",
      "outputs": [
        {
          "internalType": "uint256",
          "name": "",
          "type": "uint256"
        }
      ],
      "stateMutability": "view",
      "type": "function",
      "constant": true
    },
    {
      "inputs": [
        {
          "internalType": "address",
          "name": "",
          "type": "address"
        }
      ],
      "name": "receiverPackCount",
      "outputs": [
        {
          "internalType": "uint256",
          "name": "",
          "type": "uint256"
        }
      ],
      "stateMutability": "view",
      "type": "function",
      "constant": true
    },
    {
      "inputs": [],
      "name": "renounceOwnership",
      "outputs": [],
      "stateMutability": "nonpayable",
      "type": "function"
    },
    {
      "inputs": [
        {
          "internalType": "address",
          "name": "from",
          "type": "address"
        },
        {
          "internalType": "address",
          "name": "to",
          "type": "address"
        },
        {
          "internalType": "uint256",
          "name": "tokenId",
          "type": "uint256"
        }
      ],
      "name": "safeTransferFrom",
      "outputs": [],
      "stateMutability": "nonpayable",
      "type": "function"
    },
    {
      "inputs": [
        {
          "internalType": "address",
          "name": "from",
          "type": "address"
        },
        {
          "internalType": "address",
          "name": "to",
          "type": "address"
        },
        {
          "internalType": "uint256",
          "name": "tokenId",
          "type": "uint256"
        },
        {
          "internalType": "bytes",
          "name": "data",
          "type": "bytes"
        }
      ],
      "name": "safeTransferFrom",
      "outputs": [],
      "stateMutability": "nonpayable",
      "type": "function"
    },
    {
      "inputs": [
        {
          "internalType": "address",
          "name": "",
          "type": "address"
        }
      ],
      "name": "senderPackCount",
      "outputs": [
        {
          "internalType": "uint256",
          "name": "",
          "type": "uint256"
        }
      ],
      "stateMutability": "view",
      "type": "function",
      "constant": true
    },
    {
      "inputs": [
        {
          "internalType": "address",
          "name": "operator",
          "type": "address"
        },
        {
          "internalType": "bool",
          "name": "approved",
          "type": "bool"
        }
      ],
      "name": "setApprovalForAll",
      "outputs": [],
      "stateMutability": "nonpayable",
      "type": "function"
    },
    {
      "inputs": [
        {
          "internalType": "string",
          "name": "_baseUri",
          "type": "string"
        }
      ],
      "name": "setBaseUri",
      "outputs": [],
      "stateMutability": "nonpayable",
      "type": "function"
    },
    {
      "inputs": [
        {
          "internalType": "uint256",
          "name": "_fee",
          "type": "uint256"
        }
      ],
      "name": "setDeliveringFee",
      "outputs": [],
      "stateMutability": "nonpayable",
      "type": "function"
    },
    {
      "inputs": [
        {
          "internalType": "uint256",
          "name": "_price",
          "type": "uint256"
        }
      ],
      "name": "setPrice",
      "outputs": [],
      "stateMutability": "nonpayable",
      "type": "function"
    },
    {
      "inputs": [
        {
          "internalType": "bytes4",
          "name": "interfaceId",
          "type": "bytes4"
        }
      ],
      "name": "supportsInterface",
      "outputs": [
        {
          "internalType": "bool",
          "name": "",
          "type": "bool"
        }
      ],
      "stateMutability": "view",
      "type": "function",
      "constant": true
    },
    {
      "inputs": [],
      "name": "symbol",
      "outputs": [
        {
          "internalType": "string",
          "name": "",
          "type": "string"
        }
      ],
      "stateMutability": "view",
      "type": "function",
      "constant": true
    },
    {
      "inputs": [
        {
          "internalType": "uint256",
          "name": "",
          "type": "uint256"
        }
      ],
      "name": "tokenIdPerWallet",
      "outputs": [
        {
          "internalType": "address",
          "name": "",
          "type": "address"
        }
      ],
      "stateMutability": "view",
      "type": "function",
      "constant": true
    },
    {
      "inputs": [],
      "name": "tokenIds",
      "outputs": [
        {
          "internalType": "uint256",
          "name": "",
          "type": "uint256"
        }
      ],
      "stateMutability": "view",
      "type": "function",
      "constant": true
    },
    {
      "inputs": [
        {
          "internalType": "uint256",
          "name": "tokenId",
          "type": "uint256"
        }
      ],
      "name": "tokenURI",
      "outputs": [
        {
          "internalType": "string",
          "name": "",
          "type": "string"
        }
      ],
      "stateMutability": "view",
      "type": "function",
      "constant": true
    },
    {
      "inputs": [],
      "name": "totalSupply",
      "outputs": [
        {
          "internalType": "uint256",
          "name": "",
          "type": "uint256"
        }
      ],
      "stateMutability": "view",
      "type": "function",
      "constant": true
    },
    {
      "inputs": [
        {
          "internalType": "address",
          "name": "from",
          "type": "address"
        },
        {
          "internalType": "address",
          "name": "to",
          "type": "address"
        },
        {
          "internalType": "uint256",
          "name": "tokenId",
          "type": "uint256"
        }
      ],
      "name": "transferFrom",
      "outputs": [],
      "stateMutability": "nonpayable",
      "type": "function"
    },
    {
      "inputs": [
        {
          "internalType": "address",
          "name": "newOwner",
          "type": "address"
        }
      ],
      "name": "transferOwnership",
      "outputs": [],
      "stateMutability": "nonpayable",
      "type": "function"
    },
    {
      "inputs": [],
      "name": "deliver",
      "outputs": [],
      "stateMutability": "nonpayable",
      "type": "function"
    },
    {
      "inputs": [],
      "name": "getContainerElements",
      "outputs": [
        {
          "components": [
            {
              "internalType": "uint256",
              "name": "pCode",
              "type": "uint256"
            },
            {
              "internalType": "address",
              "name": "sender",
              "type": "address"
            },
            {
              "internalType": "address",
              "name": "receiver",
              "type": "address"
            },
            {
              "internalType": "bool",
              "name": "delivered",
              "type": "bool"
            }
          ],
          "internalType": "struct PackFactory.Pack[]",
          "name": "",
          "type": "tuple[]"
        }
      ],
      "stateMutability": "view",
      "type": "function",
      "constant": true
    }
  ],
  "bytecode": "0x60806040526000600855600060115566038d7ea4c680006016553480156200002657600080fd5b506040518060400160405280600881526020017f4e4654205061636b0000000000000000000000000000000000000000000000008152506040518060400160405280600481526020017f4e465450000000000000000000000000000000000000000000000000000000008152508160009081620000a4919062000452565b508060019081620000b6919062000452565b505050620000d9620000cd6200010a60201b60201c565b6200011260201b60201c565b60405180606001604052806025815260200162006536602591396015908162000103919062000452565b5062000539565b600033905090565b6000600660009054906101000a900473ffffffffffffffffffffffffffffffffffffffff16905081600660006101000a81548173ffffffffffffffffffffffffffffffffffffffff021916908373ffffffffffffffffffffffffffffffffffffffff1602179055508173ffffffffffffffffffffffffffffffffffffffff168173ffffffffffffffffffffffffffffffffffffffff167f8be0079c531659141344cd1fd0a4f28419497f9722a3daafe3b4186f6b6457e060405160405180910390a35050565b600081519050919050565b7f4e487b7100000000000000000000000000000000000000000000000000000000600052604160045260246000fd5b7f4e487b7100000000000000000000000000000000000000000000000000000000600052602260045260246000fd5b600060028204905060018216806200025a57607f821691505b60208210810362000270576200026f62000212565b5b50919050565b60008190508160005260206000209050919050565b60006020601f8301049050919050565b600082821b905092915050565b600060088302620002da7fffffffffffffffffffffffffffffffffffffffffffffffffffffffffffffffff826200029b565b620002e686836200029b565b95508019841693508086168417925050509392505050565b6000819050919050565b6000819050919050565b6000620003336200032d6200032784620002fe565b62000308565b620002fe565b9050919050565b6000819050919050565b6200034f8362000312565b620003676200035e826200033a565b848454620002a8565b825550505050565b600090565b6200037e6200036f565b6200038b81848462000344565b505050565b5b81811015620003b357620003a760008262000374565b60018101905062000391565b5050565b601f8211156200040257620003cc8162000276565b620003d7846200028b565b81016020851015620003e7578190505b620003ff620003f6856200028b565b83018262000390565b50505b505050565b600082821c905092915050565b6000620004276000198460080262000407565b1980831691505092915050565b600062000442838362000414565b9150826002028217905092915050565b6200045d82620001d8565b67ffffffffffffffff811115620004795762000478620001e3565b5b62000485825462000241565b62000492828285620003b7565b600060209050601f831160018114620004ca5760008415620004b5578287015190505b620004c1858262000434565b86555062000531565b601f198416620004da8662000276565b60005b828110156200050457848901518255600182019150602085019450602081019050620004dd565b8683101562000524578489015162000520601f89168262000414565b8355505b6001600288020188555050505b505050505050565b615fed80620005496000396000f3fe60806040526004361061027d5760003560e01c8063715018a61161014f578063a22cb465116100c1578063ddffb5621161007a578063ddffb56214610a15578063e985e9c514610a52578063ed1d487014610a8f578063f2fde38b14610ab8578063f47c84c514610ae1578063fd3e50a714610b0c5761027d565b8063a22cb465146108e1578063a2e94c001461090a578063afeb9a9f14610947578063b88d4fde14610972578063c87b56dd1461099b578063dd68eb1f146109d85761027d565b806394bf804d1161011357806394bf804d146107f057806395d89b411461080c57806397c21330146108375780639abc832014610862578063a035b1fe1461088d578063a0bcfc7f146108b85761027d565b8063715018a61461071d5780638bb95320146107345780638da5cb5b146107715780638ecad7211461079c57806391b7f5ed146107c75761027d565b806334918dfd116101f35780634c8bfc85116101ac5780634c8bfc85146105e5578063564566a8146106225780636352211e1461064d5780636cc73bcc1461068a57806370a08231146106b5578063714cff56146106f25761027d565b806334918dfd146104c457806337d0e31e146104db57806338528c7e146105045780633a602b4d1461054157806342842e0e1461057e57806346a2967d146105a75761027d565b8063124337f611610245578063124337f61461038d57806318160ddd146103ca57806319fd1f72146103f55780631b7df0981461043257806323b872dd1461045b5780632d9d1c5d146104845761027d565b806301ffc9a71461028257806306fdde03146102bf578063081812fc146102ea578063095ea7b314610327578063105b0da714610350575b600080fd5b34801561028e57600080fd5b506102a960048036038101906102a4919061468f565b610b23565b6040516102b691906146d7565b60405180910390f35b3480156102cb57600080fd5b506102d4610c05565b6040516102e19190614782565b60405180910390f35b3480156102f657600080fd5b50610311600480360381019061030c91906147da565b610c97565b60405161031e9190614848565b60405180910390f35b34801561033357600080fd5b5061034e6004803603810190610349919061488f565b610cdd565b005b34801561035c57600080fd5b50610377600480360381019061037291906147da565b610df4565b6040516103849190614848565b60405180910390f35b34801561039957600080fd5b506103b460048036038101906103af91906148cf565b610e27565b6040516103c1919061490b565b60405180910390f35b3480156103d657600080fd5b506103df610e3f565b6040516103ec919061490b565b60405180910390f35b34801561040157600080fd5b5061041c600480360381019061041791906148cf565b610e45565b604051610429919061490b565b60405180910390f35b34801561043e57600080fd5b50610459600480360381019061045491906147da565b610e5d565b005b34801561046757600080fd5b50610482600480360381019061047d9190614926565b610e6f565b005b34801561049057600080fd5b506104ab60048036038101906104a691906147da565b610ecf565b6040516104bb9493929190614979565b60405180910390f35b3480156104d057600080fd5b506104d9610f5c565b005b3480156104e757600080fd5b5061050260048036038101906104fd91906149be565b610f90565b005b34801561051057600080fd5b5061052b600480360381019061052691906147da565b6113b0565b6040516105389190614848565b60405180910390f35b34801561054d57600080fd5b50610568600480360381019061056391906148cf565b6113e3565b604051610575919061490b565b60405180910390f35b34801561058a57600080fd5b506105a560048036038101906105a09190614926565b6113fb565b005b3480156105b357600080fd5b506105ce60048036038101906105c991906148cf565b61141b565b6040516105dc929190614a25565b60405180910390f35b3480156105f157600080fd5b5061060c600480360381019061060791906148cf565b61143f565b6040516106199190614b0c565b60405180910390f35b34801561062e57600080fd5b50610637611591565b60405161064491906146d7565b60405180910390f35b34801561065957600080fd5b50610674600480360381019061066f91906147da565b6115a4565b6040516106819190614848565b60405180910390f35b34801561069657600080fd5b5061069f61162a565b6040516106ac9190614bec565b60405180910390f35b3480156106c157600080fd5b506106dc60048036038101906106d791906148cf565b611959565b6040516106e9919061490b565b60405180910390f35b3480156106fe57600080fd5b50610707611a10565b604051610714919061490b565b60405180910390f35b34801561072957600080fd5b50610732611a16565b005b34801561074057600080fd5b5061075b600480360381019061075691906147da565b611a2a565b60405161076891906146d7565b60405180910390f35b34801561077d57600080fd5b50610786611a4a565b6040516107939190614848565b60405180910390f35b3480156107a857600080fd5b506107b1611a74565b6040516107be919061490b565b60405180910390f35b3480156107d357600080fd5b506107ee60048036038101906107e991906147da565b611a79565b005b61080a60048036038101906108059190614c0e565b611a8b565b005b34801561081857600080fd5b50610821611d68565b60405161082e9190614782565b60405180910390f35b34801561084357600080fd5b5061084c611dfa565b6040516108599190614bec565b60405180910390f35b34801561086e57600080fd5b50610877612129565b6040516108849190614782565b60405180910390f35b34801561089957600080fd5b506108a26121b7565b6040516108af919061490b565b60405180910390f35b3480156108c457600080fd5b506108df60048036038101906108da9190614d83565b6121bd565b005b3480156108ed57600080fd5b5061090860048036038101906109039190614df8565b6121d8565b005b34801561091657600080fd5b50610931600480360381019061092c91906147da565b6121ee565b60405161093e9190614848565b60405180910390f35b34801561095357600080fd5b5061095c612221565b6040516109699190614f4b565b60405180910390f35b34801561097e57600080fd5b506109996004803603810190610994919061500e565b612351565b005b3480156109a757600080fd5b506109c260048036038101906109bd91906147da565b6123b3565b6040516109cf9190614782565b60405180910390f35b3480156109e457600080fd5b506109ff60048036038101906109fa91906148cf565b61241b565b604051610a0c919061490b565b60405180910390f35b348015610a2157600080fd5b50610a3c6004803603810190610a3791906148cf565b612464565b604051610a499190614b0c565b60405180910390f35b348015610a5e57600080fd5b50610a796004803603810190610a749190615091565b6125b6565b604051610a8691906146d7565b60405180910390f35b348015610a9b57600080fd5b50610ab66004803603810190610ab19190614c0e565b61264a565b005b348015610ac457600080fd5b50610adf6004803603810190610ada91906148cf565b6126ba565b005b348015610aed57600080fd5b50610af661273d565b604051610b03919061490b565b60405180910390f35b348015610b1857600080fd5b50610b21612743565b005b60007f80ac58cd000000000000000000000000000000000000000000000000000000007bffffffffffffffffffffffffffffffffffffffffffffffffffffffff1916827bffffffffffffffffffffffffffffffffffffffffffffffffffffffff19161480610bee57507f5b5e139f000000000000000000000000000000000000000000000000000000007bffffffffffffffffffffffffffffffffffffffffffffffffffffffff1916827bffffffffffffffffffffffffffffffffffffffffffffffffffffffff1916145b80610bfe5750610bfd82612a02565b5b9050919050565b606060008054610c1490615100565b80601f0160208091040260200160405190810160405280929190818152602001828054610c4090615100565b8015610c8d5780601f10610c6257610100808354040283529160200191610c8d565b820191906000526020600020905b815481529060010190602001808311610c7057829003601f168201915b5050505050905090565b6000610ca282612a6c565b6004600083815260200190815260200160002060009054906101000a900473ffffffffffffffffffffffffffffffffffffffff169050919050565b6000610ce8826115a4565b90508073ffffffffffffffffffffffffffffffffffffffff168373ffffffffffffffffffffffffffffffffffffffff1603610d58576040517f08c379a0000000000000000000000000000000000000000000000000000000008152600401610d4f906151a3565b60405180910390fd5b8073ffffffffffffffffffffffffffffffffffffffff16610d77612ab7565b73ffffffffffffffffffffffffffffffffffffffff161480610da65750610da581610da0612ab7565b6125b6565b5b610de5576040517f08c379a0000000000000000000000000000000000000000000000000000000008152600401610ddc90615235565b60405180910390fd5b610def8383612abf565b505050565b600a6020528060005260406000206000915054906101000a900473ffffffffffffffffffffffffffffffffffffffff1681565b600b6020528060005260406000206000915090505481565b60145481565b600c6020528060005260406000206000915090505481565b610e65612b78565b8060168190555050565b610e80610e7a612ab7565b82612bf6565b610ebf576040517f08c379a0000000000000000000000000000000000000000000000000000000008152600401610eb6906152c7565b60405180910390fd5b610eca838383612c8b565b505050565b60078181548110610edf57600080fd5b90600052602060002090600302016000915090508060000154908060010160009054906101000a900473ffffffffffffffffffffffffffffffffffffffff16908060020160009054906101000a900473ffffffffffffffffffffffffffffffffffffffff16908060020160149054906101000a900460ff16905084565b610f64612b78565b601360009054906101000a900460ff1615601360006101000a81548160ff021916908315150217905550565b610f98612b78565b610fa06145b3565b828160000181815250508181602001818152505080600d60008773ffffffffffffffffffffffffffffffffffffffff1673ffffffffffffffffffffffffffffffffffffffff16815260200190815260200160002060008201518160000155602082015181600101559050506000600190505b8481116113a85761102f6001600854612f8490919063ffffffff16565b6008819055506007604051806080016040528060085481526020013373ffffffffffffffffffffffffffffffffffffffff1681526020018873ffffffffffffffffffffffffffffffffffffffff1681526020016000151581525090806001815401808255809150506001900390600052602060002090600302016000909190919091506000820151816000015560208201518160010160006101000a81548173ffffffffffffffffffffffffffffffffffffffff021916908373ffffffffffffffffffffffffffffffffffffffff16021790555060408201518160020160006101000a81548173ffffffffffffffffffffffffffffffffffffffff021916908373ffffffffffffffffffffffffffffffffffffffff16021790555060608201518160020160146101000a81548160ff0219169083151502179055505050600060016007805490506111809190615316565b9050336009600083815260200190815260200160002060006101000a81548173ffffffffffffffffffffffffffffffffffffffff021916908373ffffffffffffffffffffffffffffffffffffffff16021790555086600a600083815260200190815260200160002060006101000a81548173ffffffffffffffffffffffffffffffffffffffff021916908373ffffffffffffffffffffffffffffffffffffffff1602179055506112796001600b60003373ffffffffffffffffffffffffffffffffffffffff1673ffffffffffffffffffffffffffffffffffffffff16815260200190815260200160002054612f8490919063ffffffff16565b600b60003373ffffffffffffffffffffffffffffffffffffffff1673ffffffffffffffffffffffffffffffffffffffff1681526020019081526020016000208190555061130f6001600c60008a73ffffffffffffffffffffffffffffffffffffffff1673ffffffffffffffffffffffffffffffffffffffff16815260200190815260200160002054612f8490919063ffffffff16565b600c60008973ffffffffffffffffffffffffffffffffffffffff1673ffffffffffffffffffffffffffffffffffffffff168152602001908152602001600020819055507fdd99a654cef3d7d04265cbed186b2898d64a57945f525288bdd7050c0aebd0cd818860405161138392919061534a565b60405180910390a1611396600188611a8b565b50806113a190615373565b9050611012565b505050505050565b60106020528060005260406000206000915054906101000a900473ffffffffffffffffffffffffffffffffffffffff1681565b600f6020528060005260406000206000915090505481565b61141683838360405180602001604052806000815250612351565b505050565b600d6020528060005260406000206000915090508060000154908060010154905082565b60606000600c60008473ffffffffffffffffffffffffffffffffffffffff1673ffffffffffffffffffffffffffffffffffffffff1681526020019081526020016000205467ffffffffffffffff81111561149c5761149b614c58565b5b6040519080825280602002602001820160405280156114ca5781602001602082028036833780820191505090505b5090506000805b600780549050811015611586578473ffffffffffffffffffffffffffffffffffffffff16600a600083815260200190815260200160002060009054906101000a900473ffffffffffffffffffffffffffffffffffffffff1673ffffffffffffffffffffffffffffffffffffffff16036115735780838381518110611558576115576153bb565b5b602002602001018181525050818061156f90615373565b9250505b808061157e90615373565b9150506114d1565b508192505050919050565b601360009054906101000a900460ff1681565b6000806115b083612fb0565b9050600073ffffffffffffffffffffffffffffffffffffffff168173ffffffffffffffffffffffffffffffffffffffff1603611621576040517f08c379a000000000000000000000000000000000000000000000000000000000815260040161161890615436565b60405180910390fd5b80915050919050565b6060600080600080600061163c612fed565b90506000815167ffffffffffffffff81111561165b5761165a614c58565b5b6040519080825280602002602001820160405280156116895781602001602082028036833780820191505090505b50905060005b82518110156117cc5760005b8351811015611723578281815181106116b7576116b66153bb565b5b602002602001015173ffffffffffffffffffffffffffffffffffffffff168483815181106116e8576116e76153bb565b5b602002602001015173ffffffffffffffffffffffffffffffffffffffff160361171057600197505b808061171b90615373565b91505061169b565b5060001515871515036117b557828181518110611743576117426153bb565b5b602002602001015182878151811061175e5761175d6153bb565b5b602002602001019073ffffffffffffffffffffffffffffffffffffffff16908173ffffffffffffffffffffffffffffffffffffffff168152505085806117a390615373565b96505083806117b190615373565b9450505b6000965080806117c490615373565b91505061168f565b5060008367ffffffffffffffff8111156117e9576117e8614c58565b5b6040519080825280602002602001820160405280156118175781602001602082028036833780820191505090505b50905060005b835181101561194b5760005b858110156118b057828181518110611844576118436153bb565b5b602002602001015173ffffffffffffffffffffffffffffffffffffffff16858381518110611875576118746153bb565b5b602002602001015173ffffffffffffffffffffffffffffffffffffffff160361189d57600198505b80806118a890615373565b915050611829565b506000151588151503611934578381815181106118d0576118cf6153bb565b5b60200260200101518287815181106118eb576118ea6153bb565b5b602002602001019073ffffffffffffffffffffffffffffffffffffffff16908173ffffffffffffffffffffffffffffffffffffffff1681525050858061193090615373565b9650505b60009750808061194390615373565b91505061181d565b508097505050505050505090565b60008073ffffffffffffffffffffffffffffffffffffffff168273ffffffffffffffffffffffffffffffffffffffff16036119c9576040517f08c379a00000000000000000000000000000000000000000000000000000000081526004016119c0906154c8565b60405180910390fd5b600360008373ffffffffffffffffffffffffffffffffffffffff1673ffffffffffffffffffffffffffffffffffffffff168152602001908152602001600020549050919050565b60125481565b611a1e612b78565b611a2860006130fd565b565b600e6020528060005260406000206000915054906101000a900460ff1681565b6000600660009054906101000a900473ffffffffffffffffffffffffffffffffffffffff16905090565b600a81565b611a81612b78565b8060118190555050565b601360009054906101000a900460ff16611ada576040517f08c379a0000000000000000000000000000000000000000000000000000000008152600401611ad190615534565b60405180910390fd5b600a821115611b1e576040517f08c379a0000000000000000000000000000000000000000000000000000000008152600401611b15906155c6565b60405180910390fd5b600a82600f60003373ffffffffffffffffffffffffffffffffffffffff1673ffffffffffffffffffffffffffffffffffffffff16815260200190815260200160002054611b6b91906155e6565b1115611bac576040517f08c379a0000000000000000000000000000000000000000000000000000000008152600401611ba390615666565b60405180910390fd5b600060145490506127108382611bc291906155e6565b1115611c03576040517f08c379a0000000000000000000000000000000000000000000000000000000008152600401611bfa906156d2565b60405180910390fd5b3460115484611c1291906156f2565b1115611c53576040517f08c379a0000000000000000000000000000000000000000000000000000000008152600401611c4a90615780565b60405180910390fd5b6000600190505b838111611c8757611c76338284611c7191906155e6565b6131c3565b80611c8090615373565b9050611c5a565b5082600f60008473ffffffffffffffffffffffffffffffffffffffff1673ffffffffffffffffffffffffffffffffffffffff1681526020019081526020016000206000828254611cd791906155e6565b9250508190555060126000815480929190611cf190615373565b91905055503360106000601254815260200190815260200160002060006101000a81548173ffffffffffffffffffffffffffffffffffffffff021916908373ffffffffffffffffffffffffffffffffffffffff1602179055508260146000828254611d5c91906155e6565b92505081905550505050565b606060018054611d7790615100565b80601f0160208091040260200160405190810160405280929190818152602001828054611da390615100565b8015611df05780601f10611dc557610100808354040283529160200191611df0565b820191906000526020600020905b815481529060010190602001808311611dd357829003601f168201915b5050505050905090565b60606000806000806000611e0c6131e1565b90506000815167ffffffffffffffff811115611e2b57611e2a614c58565b5b604051908082528060200260200182016040528015611e595781602001602082028036833780820191505090505b50905060005b8251811015611f9c5760005b8351811015611ef357828181518110611e8757611e866153bb565b5b602002602001015173ffffffffffffffffffffffffffffffffffffffff16848381518110611eb857611eb76153bb565b5b602002602001015173ffffffffffffffffffffffffffffffffffffffff1603611ee057600197505b8080611eeb90615373565b915050611e6b565b506000151587151503611f8557828181518110611f1357611f126153bb565b5b6020026020010151828781518110611f2e57611f2d6153bb565b5b602002602001019073ffffffffffffffffffffffffffffffffffffffff16908173ffffffffffffffffffffffffffffffffffffffff16815250508580611f7390615373565b9650508380611f8190615373565b9450505b600096508080611f9490615373565b915050611e5f565b5060008367ffffffffffffffff811115611fb957611fb8614c58565b5b604051908082528060200260200182016040528015611fe75781602001602082028036833780820191505090505b50905060005b835181101561211b5760005b8581101561208057828181518110612014576120136153bb565b5b602002602001015173ffffffffffffffffffffffffffffffffffffffff16858381518110612045576120446153bb565b5b602002602001015173ffffffffffffffffffffffffffffffffffffffff160361206d57600198505b808061207890615373565b915050611ff9565b506000151588151503612104578381815181106120a05761209f6153bb565b5b60200260200101518287815181106120bb576120ba6153bb565b5b602002602001019073ffffffffffffffffffffffffffffffffffffffff16908173ffffffffffffffffffffffffffffffffffffffff1681525050858061210090615373565b9650505b60009750808061211390615373565b915050611fed565b508097505050505050505090565b6015805461213690615100565b80601f016020809104026020016040519081016040528092919081815260200182805461216290615100565b80156121af5780601f10612184576101008083540402835291602001916121af565b820191906000526020600020905b81548152906001019060200180831161219257829003601f168201915b505050505081565b60115481565b6121c5612b78565b80601590816121d4919061594c565b5050565b6121ea6121e3612ab7565b83836132f1565b5050565b60096020528060005260406000206000915054906101000a900473ffffffffffffffffffffffffffffffffffffffff1681565b60606007805480602002602001604051908101604052809291908181526020016000905b828210156123485783829060005260206000209060030201604051806080016040529081600082015481526020016001820160009054906101000a900473ffffffffffffffffffffffffffffffffffffffff1673ffffffffffffffffffffffffffffffffffffffff1673ffffffffffffffffffffffffffffffffffffffff1681526020016002820160009054906101000a900473ffffffffffffffffffffffffffffffffffffffff1673ffffffffffffffffffffffffffffffffffffffff1673ffffffffffffffffffffffffffffffffffffffff1681526020016002820160149054906101000a900460ff16151515158152505081526020019060010190612245565b50505050905090565b61236261235c612ab7565b83612bf6565b6123a1576040517f08c379a0000000000000000000000000000000000000000000000000000000008152600401612398906152c7565b60405180910390fd5b6123ad8484848461345d565b50505050565b60606123be82612a6c565b60006123c86134b9565b905060008151116123e85760405180602001604052806000815250612413565b806123f2846134d0565b604051602001612403929190615a5a565b6040516020818303038152906040525b915050919050565b6000600f60008373ffffffffffffffffffffffffffffffffffffffff1673ffffffffffffffffffffffffffffffffffffffff168152602001908152602001600020549050919050565b60606000600b60008473ffffffffffffffffffffffffffffffffffffffff1673ffffffffffffffffffffffffffffffffffffffff1681526020019081526020016000205467ffffffffffffffff8111156124c1576124c0614c58565b5b6040519080825280602002602001820160405280156124ef5781602001602082028036833780820191505090505b5090506000805b6007805490508110156125ab578473ffffffffffffffffffffffffffffffffffffffff166009600083815260200190815260200160002060009054906101000a900473ffffffffffffffffffffffffffffffffffffffff1673ffffffffffffffffffffffffffffffffffffffff1603612598578083838151811061257d5761257c6153bb565b5b602002602001018181525050818061259490615373565b9250505b80806125a390615373565b9150506124f6565b508192505050919050565b6000600560008473ffffffffffffffffffffffffffffffffffffffff1673ffffffffffffffffffffffffffffffffffffffff16815260200190815260200160002060008373ffffffffffffffffffffffffffffffffffffffff1673ffffffffffffffffffffffffffffffffffffffff16815260200190815260200160002060009054906101000a900460ff16905092915050565b612652612b78565b8060078381548110612667576126666153bb565b5b906000526020600020906003020160020160006101000a81548173ffffffffffffffffffffffffffffffffffffffff021916908373ffffffffffffffffffffffffffffffffffffffff1602179055505050565b6126c2612b78565b600073ffffffffffffffffffffffffffffffffffffffff168173ffffffffffffffffffffffffffffffffffffffff1603612731576040517f08c379a000000000000000000000000000000000000000000000000000000000815260040161272890615af0565b60405180910390fd5b61273a816130fd565b50565b61271081565b61274b612b78565b6000612755611dfa565b90506000805b82518110156129fd576000835167ffffffffffffffff81111561278157612780614c58565b5b6040519080825280602002602001820160405280156127af5781602001602082028036833780820191505090505b5090506127d58483815181106127c8576127c76153bb565b5b602002602001015161359e565b600f60008584815181106127ec576127eb6153bb565b5b602002602001015173ffffffffffffffffffffffffffffffffffffffff1673ffffffffffffffffffffffffffffffffffffffff16815260200190815260200160002054818381518110612842576128416153bb565b5b602002602001018181525050808281518110612861576128606153bb565b5b60200260200101518361287491906155e6565b92506000820361292a576000600190505b818381518110612898576128976153bb565b5b60200260200101518111612924573373ffffffffffffffffffffffffffffffffffffffff166128c6826115a4565b73ffffffffffffffffffffffffffffffffffffffff1603612911576128eb3082610cdd565b61291033868581518110612902576129016153bb565b5b602002602001015183610e6f565b5b808061291c90615373565b915050612885565b506129e9565b600060018260018561293c9190615316565b8151811061294d5761294c6153bb565b5b602002602001015161295f91906155e6565b90505b8381116129e7573373ffffffffffffffffffffffffffffffffffffffff16612989826115a4565b73ffffffffffffffffffffffffffffffffffffffff16036129d4576129ae3082610cdd565b6129d3338685815181106129c5576129c46153bb565b5b602002602001015183610e6f565b5b80806129df90615373565b915050612962565b505b5080806129f590615373565b91505061275b565b505050565b60007f01ffc9a7000000000000000000000000000000000000000000000000000000007bffffffffffffffffffffffffffffffffffffffffffffffffffffffff1916827bffffffffffffffffffffffffffffffffffffffffffffffffffffffff1916149050919050565b612a7581613aeb565b612ab4576040517f08c379a0000000000000000000000000000000000000000000000000000000008152600401612aab90615436565b60405180910390fd5b50565b600033905090565b816004600083815260200190815260200160002060006101000a81548173ffffffffffffffffffffffffffffffffffffffff021916908373ffffffffffffffffffffffffffffffffffffffff160217905550808273ffffffffffffffffffffffffffffffffffffffff16612b32836115a4565b73ffffffffffffffffffffffffffffffffffffffff167f8c5be1e5ebec7d5bd14f71427d1e84f3dd0314c0f7b2291e5b200ac8c7c3b92560405160405180910390a45050565b612b80612ab7565b73ffffffffffffffffffffffffffffffffffffffff16612b9e611a4a565b73ffffffffffffffffffffffffffffffffffffffff1614612bf4576040517f08c379a0000000000000000000000000000000000000000000000000000000008152600401612beb90615b5c565b60405180910390fd5b565b600080612c02836115a4565b90508073ffffffffffffffffffffffffffffffffffffffff168473ffffffffffffffffffffffffffffffffffffffff161480612c445750612c4381856125b6565b5b80612c8257508373ffffffffffffffffffffffffffffffffffffffff16612c6a84610c97565b73ffffffffffffffffffffffffffffffffffffffff16145b91505092915050565b8273ffffffffffffffffffffffffffffffffffffffff16612cab826115a4565b73ffffffffffffffffffffffffffffffffffffffff1614612d01576040517f08c379a0000000000000000000000000000000000000000000000000000000008152600401612cf890615bee565b60405180910390fd5b600073ffffffffffffffffffffffffffffffffffffffff168273ffffffffffffffffffffffffffffffffffffffff1603612d70576040517f08c379a0000000000000000000000000000000000000000000000000000000008152600401612d6790615c80565b60405180910390fd5b612d7d8383836001613b2c565b8273ffffffffffffffffffffffffffffffffffffffff16612d9d826115a4565b73ffffffffffffffffffffffffffffffffffffffff1614612df3576040517f08c379a0000000000000000000000000000000000000000000000000000000008152600401612dea90615bee565b60405180910390fd5b6004600082815260200190815260200160002060006101000a81549073ffffffffffffffffffffffffffffffffffffffff02191690556001600360008573ffffffffffffffffffffffffffffffffffffffff1673ffffffffffffffffffffffffffffffffffffffff168152602001908152602001600020600082825403925050819055506001600360008473ffffffffffffffffffffffffffffffffffffffff1673ffffffffffffffffffffffffffffffffffffffff16815260200190815260200160002060008282540192505081905550816002600083815260200190815260200160002060006101000a81548173ffffffffffffffffffffffffffffffffffffffff021916908373ffffffffffffffffffffffffffffffffffffffff160217905550808273ffffffffffffffffffffffffffffffffffffffff168473ffffffffffffffffffffffffffffffffffffffff167fddf252ad1be2c89b69c2b068fc378daa952ba7f163c4a11628f55a4df523b3ef60405160405180910390a4612f7f8383836001613c52565b505050565b6000808284612f9391906155e6565b905083811015612fa657612fa5615ca0565b5b8091505092915050565b60006002600083815260200190815260200160002060009054906101000a900473ffffffffffffffffffffffffffffffffffffffff169050919050565b6060600060078054905067ffffffffffffffff8111156130105761300f614c58565b5b60405190808252806020026020018201604052801561303e5781602001602082028036833780820191505090505b5090506000805b6007805490508110156130f4576009600082815260200190815260200160002060009054906101000a900473ffffffffffffffffffffffffffffffffffffffff16838381518110613099576130986153bb565b5b602002602001019073ffffffffffffffffffffffffffffffffffffffff16908173ffffffffffffffffffffffffffffffffffffffff168152505081806130de90615373565b92505080806130ec90615373565b915050613045565b50819250505090565b6000600660009054906101000a900473ffffffffffffffffffffffffffffffffffffffff16905081600660006101000a81548173ffffffffffffffffffffffffffffffffffffffff021916908373ffffffffffffffffffffffffffffffffffffffff1602179055508173ffffffffffffffffffffffffffffffffffffffff168173ffffffffffffffffffffffffffffffffffffffff167f8be0079c531659141344cd1fd0a4f28419497f9722a3daafe3b4186f6b6457e060405160405180910390a35050565b6131dd828260405180602001604052806000815250613c58565b5050565b6060600060078054905067ffffffffffffffff81111561320457613203614c58565b5b6040519080825280602002602001820160405280156132325781602001602082028036833780820191505090505b5090506000805b6007805490508110156132e857600a600082815260200190815260200160002060009054906101000a900473ffffffffffffffffffffffffffffffffffffffff1683838151811061328d5761328c6153bb565b5b602002602001019073ffffffffffffffffffffffffffffffffffffffff16908173ffffffffffffffffffffffffffffffffffffffff168152505081806132d290615373565b92505080806132e090615373565b915050613239565b50819250505090565b8173ffffffffffffffffffffffffffffffffffffffff168373ffffffffffffffffffffffffffffffffffffffff160361335f576040517f08c379a000000000000000000000000000000000000000000000000000000000815260040161335690615d1b565b60405180910390fd5b80600560008573ffffffffffffffffffffffffffffffffffffffff1673ffffffffffffffffffffffffffffffffffffffff16815260200190815260200160002060008473ffffffffffffffffffffffffffffffffffffffff1673ffffffffffffffffffffffffffffffffffffffff16815260200190815260200160002060006101000a81548160ff0219169083151502179055508173ffffffffffffffffffffffffffffffffffffffff168373ffffffffffffffffffffffffffffffffffffffff167f17307eab39ab6107e8899845ad3d59bd9653f200f220920489ca2b5937696c318360405161345091906146d7565b60405180910390a3505050565b613468848484612c8b565b61347484848484613cb3565b6134b3576040517f08c379a00000000000000000000000000000000000000000000000000000000081526004016134aa90615dad565b60405180910390fd5b50505050565b606060405180602001604052806000815250905090565b6060600060016134df84613e3a565b01905060008167ffffffffffffffff8111156134fe576134fd614c58565b5b6040519080825280601f01601f1916602001820160405280156135305781602001600182028036833780820191505090505b509050600082602001820190505b600115613593578080600190039150507f3031323334353637383961626364656600000000000000000000000000000000600a86061a8153600a858161358757613586615dcd565b5b0494506000850361353e575b819350505050919050565b600115156135aa613f8d565b1515146135b657600080fd5b6000805b60078054905081101561378e57600d60008473ffffffffffffffffffffffffffffffffffffffff1673ffffffffffffffffffffffffffffffffffffffff16815260200190815260200160002060000154600d600060078481548110613622576136216153bb565b5b906000526020600020906003020160020160009054906101000a900473ffffffffffffffffffffffffffffffffffffffff1673ffffffffffffffffffffffffffffffffffffffff1673ffffffffffffffffffffffffffffffffffffffff168152602001908152602001600020600001541480156137675750600d60008473ffffffffffffffffffffffffffffffffffffffff1673ffffffffffffffffffffffffffffffffffffffff16815260200190815260200160002060010154600d6000600784815481106136f5576136f46153bb565b5b906000526020600020906003020160020160009054906101000a900473ffffffffffffffffffffffffffffffffffffffff1673ffffffffffffffffffffffffffffffffffffffff1673ffffffffffffffffffffffffffffffffffffffff16815260200190815260200160002060010154145b1561377b57818061377790615373565b9250505b808061378690615373565b9150506135ba565b5060008167ffffffffffffffff8111156137ab576137aa614c58565b5b6040519080825280602002602001820160405280156137e457816020015b6137d16145cd565b8152602001906001900390816137c95790505b5090506000805b600780549050811015613adb57600d60008673ffffffffffffffffffffffffffffffffffffffff1673ffffffffffffffffffffffffffffffffffffffff16815260200190815260200160002060000154600d600060078481548110613853576138526153bb565b5b906000526020600020906003020160020160009054906101000a900473ffffffffffffffffffffffffffffffffffffffff1673ffffffffffffffffffffffffffffffffffffffff1673ffffffffffffffffffffffffffffffffffffffff168152602001908152602001600020600001541480156139985750600d60008673ffffffffffffffffffffffffffffffffffffffff1673ffffffffffffffffffffffffffffffffffffffff16815260200190815260200160002060010154600d600060078481548110613926576139256153bb565b5b906000526020600020906003020160020160009054906101000a900473ffffffffffffffffffffffffffffffffffffffff1673ffffffffffffffffffffffffffffffffffffffff1673ffffffffffffffffffffffffffffffffffffffff16815260200190815260200160002060010154145b15613ac857600781815481106139b1576139b06153bb565b5b9060005260206000209060030201604051806080016040529081600082015481526020016001820160009054906101000a900473ffffffffffffffffffffffffffffffffffffffff1673ffffffffffffffffffffffffffffffffffffffff1673ffffffffffffffffffffffffffffffffffffffff1681526020016002820160009054906101000a900473ffffffffffffffffffffffffffffffffffffffff1673ffffffffffffffffffffffffffffffffffffffff1673ffffffffffffffffffffffffffffffffffffffff1681526020016002820160149054906101000a900460ff161515151581525050838381518110613aae57613aad6153bb565b5b60200260200101819052508180613ac490615373565b9250505b8080613ad390615373565b9150506137eb565b50613ae582613fad565b50505050565b60008073ffffffffffffffffffffffffffffffffffffffff16613b0d83612fb0565b73ffffffffffffffffffffffffffffffffffffffff1614159050919050565b6001811115613c4c57600073ffffffffffffffffffffffffffffffffffffffff168473ffffffffffffffffffffffffffffffffffffffff1614613bc05780600360008673ffffffffffffffffffffffffffffffffffffffff1673ffffffffffffffffffffffffffffffffffffffff1681526020019081526020016000206000828254613bb89190615316565b925050819055505b600073ffffffffffffffffffffffffffffffffffffffff168373ffffffffffffffffffffffffffffffffffffffff1614613c4b5780600360008573ffffffffffffffffffffffffffffffffffffffff1673ffffffffffffffffffffffffffffffffffffffff1681526020019081526020016000206000828254613c4391906155e6565b925050819055505b5b50505050565b50505050565b613c628383614304565b613c6f6000848484613cb3565b613cae576040517f08c379a0000000000000000000000000000000000000000000000000000000008152600401613ca590615dad565b60405180910390fd5b505050565b6000613cd48473ffffffffffffffffffffffffffffffffffffffff16614521565b15613e2d578373ffffffffffffffffffffffffffffffffffffffff1663150b7a02613cfd612ab7565b8786866040518563ffffffff1660e01b8152600401613d1f9493929190615e51565b6020604051808303816000875af1925050508015613d5b57506040513d601f19601f82011682018060405250810190613d589190615eb2565b60015b613ddd573d8060008114613d8b576040519150601f19603f3d011682016040523d82523d6000602084013e613d90565b606091505b506000815103613dd5576040517f08c379a0000000000000000000000000000000000000000000000000000000008152600401613dcc90615dad565b60405180910390fd5b805181602001fd5b63150b7a0260e01b7bffffffffffffffffffffffffffffffffffffffffffffffffffffffff1916817bffffffffffffffffffffffffffffffffffffffffffffffffffffffff191614915050613e32565b600190505b949350505050565b600080600090507a184f03e93ff9f4daa797ed6e38ed64bf6a1f0100000000000000008310613e98577a184f03e93ff9f4daa797ed6e38ed64bf6a1f0100000000000000008381613e8e57613e8d615dcd565b5b0492506040810190505b6d04ee2d6d415b85acef81000000008310613ed5576d04ee2d6d415b85acef81000000008381613ecb57613eca615dcd565b5b0492506020810190505b662386f26fc100008310613f0457662386f26fc100008381613efa57613ef9615dcd565b5b0492506010810190505b6305f5e1008310613f2d576305f5e1008381613f2357613f22615dcd565b5b0492506008810190505b6127108310613f52576127108381613f4857613f47615dcd565b5b0492506004810190505b60648310613f755760648381613f6b57613f6a615dcd565b5b0492506002810190505b600a8310613f84576001810190505b80915050919050565b6000806007805490501115613fa55760019050613faa565b600090505b90565b6000815167ffffffffffffffff811115613fca57613fc9614c58565b5b604051908082528060200260200182016040528015613ff85781602001602082028036833780820191505090505b5090506000805b835181101561410357600184828151811061401d5761401c6153bb565b5b60200260200101516060019015159081151581525050838181518110614046576140456153bb565b5b602002602001015160600151600e6000868481518110614069576140686153bb565b5b602002602001015160000151815260200190815260200160002060006101000a81548160ff0219169083151502179055508381815181106140ad576140ac6153bb565b5b6020026020010151600001518383815181106140cc576140cb6153bb565b5b60200260200101818152505081806140e390615373565b9250506140f08185614544565b80806140fb90615373565b915050613fff565b5060005b6007805490508110156142fe5760005b83518110156142ea5760078281548110614134576141336153bb565b5b906000526020600020906003020160000154848281518110614159576141586153bb565b5b6020026020010151036142d75760016007838154811061417c5761417b6153bb565b5b906000526020600020906003020160020160146101000a81548160ff0219169083151502179055506142d6826007805480602002602001604051908101604052809291908181526020016000905b828210156142cd5783829060005260206000209060030201604051806080016040529081600082015481526020016001820160009054906101000a900473ffffffffffffffffffffffffffffffffffffffff1673ffffffffffffffffffffffffffffffffffffffff1673ffffffffffffffffffffffffffffffffffffffff1681526020016002820160009054906101000a900473ffffffffffffffffffffffffffffffffffffffff1673ffffffffffffffffffffffffffffffffffffffff1673ffffffffffffffffffffffffffffffffffffffff1681526020016002820160149054906101000a900460ff161515151581525050815260200190600101906141ca565b50505050614544565b5b80806142e290615373565b915050614117565b5080806142f690615373565b915050614107565b50505050565b600073ffffffffffffffffffffffffffffffffffffffff168273ffffffffffffffffffffffffffffffffffffffff1603614373576040517f08c379a000000000000000000000000000000000000000000000000000000000815260040161436a90615f2b565b60405180910390fd5b61437c81613aeb565b156143bc576040517f08c379a00000000000000000000000000000000000000000000000000000000081526004016143b390615f97565b60405180910390fd5b6143ca600083836001613b2c565b6143d381613aeb565b15614413576040517f08c379a000000000000000000000000000000000000000000000000000000000815260040161440a90615f97565b60405180910390fd5b6001600360008473ffffffffffffffffffffffffffffffffffffffff1673ffffffffffffffffffffffffffffffffffffffff16815260200190815260200160002060008282540192505081905550816002600083815260200190815260200160002060006101000a81548173ffffffffffffffffffffffffffffffffffffffff021916908373ffffffffffffffffffffffffffffffffffffffff160217905550808273ffffffffffffffffffffffffffffffffffffffff16600073ffffffffffffffffffffffffffffffffffffffff167fddf252ad1be2c89b69c2b068fc378daa952ba7f163c4a11628f55a4df523b3ef60405160405180910390a461451d600083836001613c52565b5050565b6000808273ffffffffffffffffffffffffffffffffffffffff163b119050919050565b80600182516145539190615316565b81518110614564576145636153bb565b5b602002602001015181838151811061457f5761457e6153bb565b5b602002602001018190525080828151811061459d5761459c6153bb565b5b602002602001016145ac6145cd565b8152505050565b604051806040016040528060008152602001600081525090565b604051806080016040528060008152602001600073ffffffffffffffffffffffffffffffffffffffff168152602001600073ffffffffffffffffffffffffffffffffffffffff1681526020016000151581525090565b6000604051905090565b600080fd5b600080fd5b60007fffffffff0000000000000000000000000000000000000000000000000000000082169050919050565b61466c81614637565b811461467757600080fd5b50565b60008135905061468981614663565b92915050565b6000602082840312156146a5576146a461462d565b5b60006146b38482850161467a565b91505092915050565b60008115159050919050565b6146d1816146bc565b82525050565b60006020820190506146ec60008301846146c8565b92915050565b600081519050919050565b600082825260208201905092915050565b60005b8381101561472c578082015181840152602081019050614711565b60008484015250505050565b6000601f19601f8301169050919050565b6000614754826146f2565b61475e81856146fd565b935061476e81856020860161470e565b61477781614738565b840191505092915050565b6000602082019050818103600083015261479c8184614749565b905092915050565b6000819050919050565b6147b7816147a4565b81146147c257600080fd5b50565b6000813590506147d4816147ae565b92915050565b6000602082840312156147f0576147ef61462d565b5b60006147fe848285016147c5565b91505092915050565b600073ffffffffffffffffffffffffffffffffffffffff82169050919050565b600061483282614807565b9050919050565b61484281614827565b82525050565b600060208201905061485d6000830184614839565b92915050565b61486c81614827565b811461487757600080fd5b50565b60008135905061488981614863565b92915050565b600080604083850312156148a6576148a561462d565b5b60006148b48582860161487a565b92505060206148c5858286016147c5565b9150509250929050565b6000602082840312156148e5576148e461462d565b5b60006148f38482850161487a565b91505092915050565b614905816147a4565b82525050565b600060208201905061492060008301846148fc565b92915050565b60008060006060848603121561493f5761493e61462d565b5b600061494d8682870161487a565b935050602061495e8682870161487a565b925050604061496f868287016147c5565b9150509250925092565b600060808201905061498e60008301876148fc565b61499b6020830186614839565b6149a86040830185614839565b6149b560608301846146c8565b95945050505050565b600080600080608085870312156149d8576149d761462d565b5b60006149e68782880161487a565b94505060206149f7878288016147c5565b9350506040614a08878288016147c5565b9250506060614a19878288016147c5565b91505092959194509250565b6000604082019050614a3a60008301856148fc565b614a4760208301846148fc565b9392505050565b600081519050919050565b600082825260208201905092915050565b6000819050602082019050919050565b614a83816147a4565b82525050565b6000614a958383614a7a565b60208301905092915050565b6000602082019050919050565b6000614ab982614a4e565b614ac38185614a59565b9350614ace83614a6a565b8060005b83811015614aff578151614ae68882614a89565b9750614af183614aa1565b925050600181019050614ad2565b5085935050505092915050565b60006020820190508181036000830152614b268184614aae565b905092915050565b600081519050919050565b600082825260208201905092915050565b6000819050602082019050919050565b614b6381614827565b82525050565b6000614b758383614b5a565b60208301905092915050565b6000602082019050919050565b6000614b9982614b2e565b614ba38185614b39565b9350614bae83614b4a565b8060005b83811015614bdf578151614bc68882614b69565b9750614bd183614b81565b925050600181019050614bb2565b5085935050505092915050565b60006020820190508181036000830152614c068184614b8e565b905092915050565b60008060408385031215614c2557614c2461462d565b5b6000614c33858286016147c5565b9250506020614c448582860161487a565b9150509250929050565b600080fd5b600080fd5b7f4e487b7100000000000000000000000000000000000000000000000000000000600052604160045260246000fd5b614c9082614738565b810181811067ffffffffffffffff82111715614caf57614cae614c58565b5b80604052505050565b6000614cc2614623565b9050614cce8282614c87565b919050565b600067ffffffffffffffff821115614cee57614ced614c58565b5b614cf782614738565b9050602081019050919050565b82818337600083830152505050565b6000614d26614d2184614cd3565b614cb8565b905082815260208101848484011115614d4257614d41614c53565b5b614d4d848285614d04565b509392505050565b600082601f830112614d6a57614d69614c4e565b5b8135614d7a848260208601614d13565b91505092915050565b600060208284031215614d9957614d9861462d565b5b600082013567ffffffffffffffff811115614db757614db6614632565b5b614dc384828501614d55565b91505092915050565b614dd5816146bc565b8114614de057600080fd5b50565b600081359050614df281614dcc565b92915050565b60008060408385031215614e0f57614e0e61462d565b5b6000614e1d8582860161487a565b9250506020614e2e85828601614de3565b9150509250929050565b600081519050919050565b600082825260208201905092915050565b6000819050602082019050919050565b614e6d816146bc565b82525050565b608082016000820151614e896000850182614a7a565b506020820151614e9c6020850182614b5a565b506040820151614eaf6040850182614b5a565b506060820151614ec26060850182614e64565b50505050565b6000614ed48383614e73565b60808301905092915050565b6000602082019050919050565b6000614ef882614e38565b614f028185614e43565b9350614f0d83614e54565b8060005b83811015614f3e578151614f258882614ec8565b9750614f3083614ee0565b925050600181019050614f11565b5085935050505092915050565b60006020820190508181036000830152614f658184614eed565b905092915050565b600067ffffffffffffffff821115614f8857614f87614c58565b5b614f9182614738565b9050602081019050919050565b6000614fb1614fac84614f6d565b614cb8565b905082815260208101848484011115614fcd57614fcc614c53565b5b614fd8848285614d04565b509392505050565b600082601f830112614ff557614ff4614c4e565b5b8135615005848260208601614f9e565b91505092915050565b600080600080608085870312156150285761502761462d565b5b60006150368782880161487a565b94505060206150478782880161487a565b9350506040615058878288016147c5565b925050606085013567ffffffffffffffff81111561507957615078614632565b5b61508587828801614fe0565b91505092959194509250565b600080604083850312156150a8576150a761462d565b5b60006150b68582860161487a565b92505060206150c78582860161487a565b9150509250929050565b7f4e487b7100000000000000000000000000000000000000000000000000000000600052602260045260246000fd5b6000600282049050600182168061511857607f821691505b60208210810361512b5761512a6150d1565b5b50919050565b7f4552433732313a20617070726f76616c20746f2063757272656e74206f776e6560008201527f7200000000000000000000000000000000000000000000000000000000000000602082015250565b600061518d6021836146fd565b915061519882615131565b604082019050919050565b600060208201905081810360008301526151bc81615180565b9050919050565b7f4552433732313a20617070726f76652063616c6c6572206973206e6f7420746f60008201527f6b656e206f776e6572206f7220617070726f76656420666f7220616c6c000000602082015250565b600061521f603d836146fd565b915061522a826151c3565b604082019050919050565b6000602082019050818103600083015261524e81615212565b9050919050565b7f4552433732313a2063616c6c6572206973206e6f7420746f6b656e206f776e6560008201527f72206f7220617070726f76656400000000000000000000000000000000000000602082015250565b60006152b1602d836146fd565b91506152bc82615255565b604082019050919050565b600060208201905081810360008301526152e0816152a4565b9050919050565b7f4e487b7100000000000000000000000000000000000000000000000000000000600052601160045260246000fd5b6000615321826147a4565b915061532c836147a4565b9250828203905081811115615344576153436152e7565b5b92915050565b600060408201905061535f60008301856148fc565b61536c6020830184614839565b9392505050565b600061537e826147a4565b91507fffffffffffffffffffffffffffffffffffffffffffffffffffffffffffffffff82036153b0576153af6152e7565b5b600182019050919050565b7f4e487b7100000000000000000000000000000000000000000000000000000000600052603260045260246000fd5b7f4552433732313a20696e76616c696420746f6b656e2049440000000000000000600082015250565b60006154206018836146fd565b915061542b826153ea565b602082019050919050565b6000602082019050818103600083015261544f81615413565b9050919050565b7f4552433732313a2061646472657373207a65726f206973206e6f74206120766160008201527f6c6964206f776e65720000000000000000000000000000000000000000000000602082015250565b60006154b26029836146fd565b91506154bd82615456565b604082019050919050565b600060208201905081810360008301526154e1816154a5565b9050919050565b7f5468652073616c65206973207061757365642e00000000000000000000000000600082015250565b600061551e6013836146fd565b9150615529826154e8565b602082019050919050565b6000602082019050818103600083015261554d81615511565b9050919050565b7f596f752063616e6e6f74206d696e742074686174206d616e7920696e206f6e6560008201527f207472616e73616374696f6e2e00000000000000000000000000000000000000602082015250565b60006155b0602d836146fd565b91506155bb82615554565b604082019050919050565b600060208201905081810360008301526155df816155a3565b9050919050565b60006155f1826147a4565b91506155fc836147a4565b9250828201905080821115615614576156136152e7565b5b92915050565b7f596f752063616e6e6f74206d696e742074686174206d616e7920746f74616c2e600082015250565b60006156506020836146fd565b915061565b8261561a565b602082019050919050565b6000602082019050818103600083015261567f81615643565b9050919050565b7f4578636565647320746f74616c20737570706c792e0000000000000000000000600082015250565b60006156bc6015836146fd565b91506156c782615686565b602082019050919050565b600060208201905081810360008301526156eb816156af565b9050919050565b60006156fd826147a4565b9150615708836147a4565b9250828202615716816147a4565b9150828204841483151761572d5761572c6152e7565b5b5092915050565b7f496e73756666696369656e742066756e64732e00000000000000000000000000600082015250565b600061576a6013836146fd565b915061577582615734565b602082019050919050565b600060208201905081810360008301526157998161575d565b9050919050565b60008190508160005260206000209050919050565b60006020601f8301049050919050565b600082821b905092915050565b6000600883026158027fffffffffffffffffffffffffffffffffffffffffffffffffffffffffffffffff826157c5565b61580c86836157c5565b95508019841693508086168417925050509392505050565b6000819050919050565b600061584961584461583f846147a4565b615824565b6147a4565b9050919050565b6000819050919050565b6158638361582e565b61587761586f82615850565b8484546157d2565b825550505050565b600090565b61588c61587f565b61589781848461585a565b505050565b5b818110156158bb576158b0600082615884565b60018101905061589d565b5050565b601f821115615900576158d1816157a0565b6158da846157b5565b810160208510156158e9578190505b6158fd6158f5856157b5565b83018261589c565b50505b505050565b600082821c905092915050565b600061592360001984600802615905565b1980831691505092915050565b600061593c8383615912565b9150826002028217905092915050565b615955826146f2565b67ffffffffffffffff81111561596e5761596d614c58565b5b6159788254615100565b6159838282856158bf565b600060209050601f8311600181146159b657600084156159a4578287015190505b6159ae8582615930565b865550615a16565b601f1984166159c4866157a0565b60005b828110156159ec578489015182556001820191506020850194506020810190506159c7565b86831015615a095784890151615a05601f891682615912565b8355505b6001600288020188555050505b505050505050565b600081905092915050565b6000615a34826146f2565b615a3e8185615a1e565b9350615a4e81856020860161470e565b80840191505092915050565b6000615a668285615a29565b9150615a728284615a29565b91508190509392505050565b7f4f776e61626c653a206e6577206f776e657220697320746865207a65726f206160008201527f6464726573730000000000000000000000000000000000000000000000000000602082015250565b6000615ada6026836146fd565b9150615ae582615a7e565b604082019050919050565b60006020820190508181036000830152615b0981615acd565b9050919050565b7f4f776e61626c653a2063616c6c6572206973206e6f7420746865206f776e6572600082015250565b6000615b466020836146fd565b9150615b5182615b10565b602082019050919050565b60006020820190508181036000830152615b7581615b39565b9050919050565b7f4552433732313a207472616e736665722066726f6d20696e636f72726563742060008201527f6f776e6572000000000000000000000000000000000000000000000000000000602082015250565b6000615bd86025836146fd565b9150615be382615b7c565b604082019050919050565b60006020820190508181036000830152615c0781615bcb565b9050919050565b7f4552433732313a207472616e7366657220746f20746865207a65726f2061646460008201527f7265737300000000000000000000000000000000000000000000000000000000602082015250565b6000615c6a6024836146fd565b9150615c7582615c0e565b604082019050919050565b60006020820190508181036000830152615c9981615c5d565b9050919050565b7f4e487b7100000000000000000000000000000000000000000000000000000000600052600160045260246000fd5b7f4552433732313a20617070726f766520746f2063616c6c657200000000000000600082015250565b6000615d056019836146fd565b9150615d1082615ccf565b602082019050919050565b60006020820190508181036000830152615d3481615cf8565b9050919050565b7f4552433732313a207472616e7366657220746f206e6f6e20455243373231526560008201527f63656976657220696d706c656d656e7465720000000000000000000000000000602082015250565b6000615d976032836146fd565b9150615da282615d3b565b604082019050919050565b60006020820190508181036000830152615dc681615d8a565b9050919050565b7f4e487b7100000000000000000000000000000000000000000000000000000000600052601260045260246000fd5b600081519050919050565b600082825260208201905092915050565b6000615e2382615dfc565b615e2d8185615e07565b9350615e3d81856020860161470e565b615e4681614738565b840191505092915050565b6000608082019050615e666000830187614839565b615e736020830186614839565b615e8060408301856148fc565b8181036060830152615e928184615e18565b905095945050505050565b600081519050615eac81614663565b92915050565b600060208284031215615ec857615ec761462d565b5b6000615ed684828501615e9d565b91505092915050565b7f4552433732313a206d696e7420746f20746865207a65726f2061646472657373600082015250565b6000615f156020836146fd565b9150615f2082615edf565b602082019050919050565b60006020820190508181036000830152615f4481615f08565b9050919050565b7f4552433732313a20746f6b656e20616c7265616479206d696e74656400000000600082015250565b6000615f81601c836146fd565b9150615f8c82615f4b565b602082019050919050565b60006020820190508181036000830152615fb081615f74565b905091905056fea26469706673582212204fc0ee0bc2db8606f24d1582e121e3851d5bd441aa7b28391dd10070f27959b864736f6c63430008110033697066733a2f2f78787878787878787878787878787878787878787878787878787878782f",
  "immutableReferences": {},
  "source": "// SPDX-License-Identifier: UNIBO\npragma solidity ^0.8.0;\n\nimport \"./packhelper.sol\";\n\ncontract PackDeliver is PackHelper {\n\n  function isContainerNotEmpty() private view returns(bool) {\n    if (container.length > 0){\n        return true;\n    } else {\n        return false;\n    }\n  }\n\n  function remove(uint index, Pack[] memory array) internal pure {\n    array[index] = array[array.length - 1];\n    delete array[index];\n  }\n\n  //aggiornamenti stato consegna\n  function _delivering(Pack[] memory _toDeliver) internal {\n    uint256[] memory pCodes = new uint256[](_toDeliver.length);\n    uint index = 0;\n    for (uint i = 0; i < _toDeliver.length; i++){\n      _toDeliver[i].delivered = true;\n      isDeliveredMap[_toDeliver[i].pCode] = _toDeliver[i].delivered;\n      pCodes[index] = _toDeliver[i].pCode;\n      index++;\n      remove(i, _toDeliver);\n    }\n    for (uint i = 0; i < container.length; i++){\n      for(uint j = 0; j < pCodes.length; j++){\n        if(pCodes[j] == container[i].pCode){\n          container[i].delivered = true;\n          remove(i, container);\n        }\n      }\n    }\n  }\n\n  //controllo indirizzi e coordinate\n  function _checkDelivering(address _receiver) internal {\n    require(isContainerNotEmpty() == true);\n    uint dim = 0;\n    for (uint i = 0; i < container.length; i++){\n      if((coordinateFromReceiver[container[i].receiver].lat == coordinateFromReceiver[_receiver].lat) \n        && (coordinateFromReceiver[container[i].receiver].long == coordinateFromReceiver[_receiver].long)){\n        dim++;\n      }\n    }\n    Pack[] memory toDeliver = new Pack[](dim);\n    uint index = 0;\n    for (uint i = 0; i < container.length; i++){\n      if((coordinateFromReceiver[container[i].receiver].lat == coordinateFromReceiver[_receiver].lat) \n        && (coordinateFromReceiver[container[i].receiver].long == coordinateFromReceiver[_receiver].long)){\n        toDeliver[index] = container[i];\n        index++;\n      }\n    }\n    _delivering(toDeliver);\n  }\n\n  //avviene consegna e trasferimento NFT da sender a receiver\n  function deliver() public onlyOwner {\n    address[] memory receivers = getAddressReceiver();\n    uint dim = 0;\n    for (uint i = 0; i < receivers.length; i++){\n      uint[] memory count = new uint[](receivers.length);\n      _checkDelivering(receivers[i]); //check coordinate\n      count[i] = mintedPerWallet[receivers[i]];\n      dim = dim + count[i];\n      if(i == 0){\n        for(uint j = 1; j <= count[i]; j++){\n          if(ownerOf(j) == msg.sender){\n            approve(address(this), j);\n            transferFrom(msg.sender, receivers[i], j);\n          }\n        }\n      }\n      else {\n        for(uint j = count[i - 1] + 1; j <= dim; j++){\n          if(ownerOf(j) == msg.sender){\n            approve(address(this), j);\n            transferFrom(msg.sender, receivers[i], j);\n          }\n        }\n      }\n    }\n  }\n\n  function getContainerElements() public view returns(Pack[] memory){\n    return container;\n  }\n} \n",
  "sourcePath": "/Users/luigidinuzzo/Desktop/smart-pack/contracts/packdeliver.sol",
  "compiler": {
    "name": "solc",
    "version": "0.8.17+commit.8df45f5f.Emscripten.clang"
  },
  "schemaVersion": "3.4.10",
  "updatedAt": "2022-11-22T17:22:17.347Z",
  "networkType": "ethereum",
  "devdoc": {
    "kind": "dev",
    "methods": {
      "approve(address,uint256)": {
        "details": "See {IERC721-approve}."
      },
      "balanceOf(address)": {
        "details": "See {IERC721-balanceOf}."
      },
      "getApproved(uint256)": {
        "details": "See {IERC721-getApproved}."
      },
      "isApprovedForAll(address,address)": {
        "details": "See {IERC721-isApprovedForAll}."
      },
      "name()": {
        "details": "See {IERC721Metadata-name}."
      },
      "owner()": {
        "details": "Returns the address of the current owner."
      },
      "ownerOf(uint256)": {
        "details": "See {IERC721-ownerOf}."
      },
      "renounceOwnership()": {
        "details": "Leaves the contract without owner. It will not be possible to call `onlyOwner` functions anymore. Can only be called by the current owner. NOTE: Renouncing ownership will leave the contract without an owner, thereby removing any functionality that is only available to the owner."
      },
      "safeTransferFrom(address,address,uint256)": {
        "details": "See {IERC721-safeTransferFrom}."
      },
      "safeTransferFrom(address,address,uint256,bytes)": {
        "details": "See {IERC721-safeTransferFrom}."
      },
      "setApprovalForAll(address,bool)": {
        "details": "See {IERC721-setApprovalForAll}."
      },
      "supportsInterface(bytes4)": {
        "details": "See {IERC165-supportsInterface}."
      },
      "symbol()": {
        "details": "See {IERC721Metadata-symbol}."
      },
      "tokenURI(uint256)": {
        "details": "See {IERC721Metadata-tokenURI}."
      },
      "transferFrom(address,address,uint256)": {
        "details": "See {IERC721-transferFrom}."
      },
      "transferOwnership(address)": {
        "details": "Transfers ownership of the contract to a new account (`newOwner`). Can only be called by the current owner."
      }
    },
    "version": 1
  },
  "userdoc": {
    "kind": "user",
    "methods": {},
    "version": 1
  }
}